{
  "_format": "hh-sol-artifact-1",
  "contractName": "MysteryChineseChess",
  "sourceName": "contracts/MysteryChineseChess.sol",
  "abi": [
    {
      "inputs": [],
      "stateMutability": "payable",
      "type": "constructor"
    },
    {
      "inputs": [
        {
          "internalType": "string",
          "name": "message",
          "type": "string"
        }
      ],
      "name": "InvalidAction",
      "type": "error"
    },
    {
      "inputs": [
        {
          "internalType": "address",
          "name": "owner",
          "type": "address"
        }
      ],
      "name": "OwnableInvalidOwner",
      "type": "error"
    },
    {
      "inputs": [
        {
          "internalType": "address",
          "name": "account",
          "type": "address"
        }
      ],
      "name": "OwnableUnauthorizedAccount",
      "type": "error"
    },
    {
      "inputs": [
        {
          "internalType": "string",
          "name": "message",
          "type": "string"
        }
      ],
      "name": "ResourceNotFound",
      "type": "error"
    },
    {
      "inputs": [],
      "name": "Unauthorized",
      "type": "error"
    },
    {
      "anonymous": false,
      "inputs": [
        {
          "indexed": false,
          "internalType": "address",
          "name": "playerAddress",
          "type": "address"
        },
        {
          "indexed": false,
          "internalType": "uint256",
          "name": "tableId",
          "type": "uint256"
        }
      ],
      "name": "ExitedTable",
      "type": "event"
    },
    {
      "anonymous": false,
      "inputs": [
        {
          "indexed": false,
          "internalType": "address",
          "name": "playerAddress",
          "type": "address"
        },
        {
          "indexed": false,
          "internalType": "uint256",
          "name": "tableId",
          "type": "uint256"
        }
      ],
      "name": "JoinedTable",
      "type": "event"
    },
    {
      "anonymous": false,
      "inputs": [
        {
          "indexed": false,
          "internalType": "uint256",
          "name": "matchId",
          "type": "uint256"
        },
        {
          "components": [
            {
              "internalType": "uint8",
              "name": "winnerIndex",
              "type": "uint8"
            },
            {
              "internalType": "enum MysteryChineseChess.MatchResultType",
              "name": "resultType",
              "type": "uint8"
            },
            {
              "internalType": "uint8",
              "name": "increasingElo",
              "type": "uint8"
            },
            {
              "internalType": "uint8",
              "name": "decreasingElo",
              "type": "uint8"
            }
          ],
          "indexed": false,
          "internalType": "struct MysteryChineseChess.MatchResult",
          "name": "matchResult",
          "type": "tuple"
        },
        {
          "indexed": false,
          "internalType": "address",
          "name": "winner",
          "type": "address"
        },
        {
          "indexed": false,
          "internalType": "address",
          "name": "loser",
          "type": "address"
        }
      ],
      "name": "MatchEnded",
      "type": "event"
    },
    {
      "anonymous": false,
      "inputs": [
        {
          "indexed": false,
          "internalType": "uint256",
          "name": "matchId",
          "type": "uint256"
        },
        {
          "indexed": false,
          "internalType": "address[2]",
          "name": "players",
          "type": "address[2]"
        }
      ],
      "name": "NewMatchStarted",
      "type": "event"
    },
    {
      "anonymous": false,
      "inputs": [
        {
          "components": [
            {
              "internalType": "address",
              "name": "playerAddress",
              "type": "address"
            },
            {
              "internalType": "string",
              "name": "playerName",
              "type": "string"
            },
            {
              "internalType": "int32",
              "name": "elo",
              "type": "int32"
            },
            {
              "internalType": "uint256",
              "name": "tableId",
              "type": "uint256"
            }
          ],
          "indexed": false,
          "internalType": "struct MysteryChineseChess.Player",
          "name": "player",
          "type": "tuple"
        }
      ],
      "name": "NewPlayer",
      "type": "event"
    },
    {
      "anonymous": false,
      "inputs": [
        {
          "components": [
            {
              "internalType": "uint256",
              "name": "id",
              "type": "uint256"
            },
            {
              "internalType": "enum MysteryChineseChess.GameMode",
              "name": "gameMode",
              "type": "uint8"
            },
            {
              "internalType": "string",
              "name": "name",
              "type": "string"
            },
            {
              "internalType": "address[2]",
              "name": "players",
              "type": "address[2]"
            },
            {
              "internalType": "uint8",
              "name": "hostIndex",
              "type": "uint8"
            },
            {
              "internalType": "uint256",
              "name": "stake",
              "type": "uint256"
            },
            {
              "internalType": "uint24",
              "name": "timeControl",
              "type": "uint24"
            },
            {
              "internalType": "uint256",
              "name": "matchId",
              "type": "uint256"
            }
          ],
          "indexed": false,
          "internalType": "struct MysteryChineseChess.Table",
          "name": "table",
          "type": "tuple"
        }
      ],
      "name": "NewTableCreated",
      "type": "event"
    },
    {
      "anonymous": false,
      "inputs": [
        {
          "indexed": true,
          "internalType": "address",
          "name": "previousOwner",
          "type": "address"
        },
        {
          "indexed": true,
          "internalType": "address",
          "name": "newOwner",
          "type": "address"
        }
      ],
      "name": "OwnershipTransferred",
      "type": "event"
    },
    {
      "anonymous": false,
      "inputs": [
        {
          "indexed": false,
          "internalType": "address",
          "name": "playerAddress",
          "type": "address"
        }
      ],
      "name": "UpdatedPlayerInfo",
      "type": "event"
    },
    {
      "anonymous": false,
      "inputs": [
        {
          "components": [
            {
              "internalType": "uint256",
              "name": "id",
              "type": "uint256"
            },
            {
              "internalType": "enum MysteryChineseChess.GameMode",
              "name": "gameMode",
              "type": "uint8"
            },
            {
              "internalType": "string",
              "name": "name",
              "type": "string"
            },
            {
              "internalType": "address[2]",
              "name": "players",
              "type": "address[2]"
            },
            {
              "internalType": "uint8",
              "name": "hostIndex",
              "type": "uint8"
            },
            {
              "internalType": "uint256",
              "name": "stake",
              "type": "uint256"
            },
            {
              "internalType": "uint24",
              "name": "timeControl",
              "type": "uint24"
            },
            {
              "internalType": "uint256",
              "name": "matchId",
              "type": "uint256"
            }
          ],
          "indexed": false,
          "internalType": "struct MysteryChineseChess.Table",
          "name": "table",
          "type": "tuple"
        }
      ],
      "name": "UpdatedTable",
      "type": "event"
    },
    {
      "anonymous": false,
      "inputs": [
        {
          "indexed": false,
          "internalType": "uint256",
          "name": "oldTableId",
          "type": "uint256"
        },
        {
          "indexed": false,
          "internalType": "uint256",
          "name": "newTableId",
          "type": "uint256"
        }
      ],
      "name": "UpdatedTableId",
      "type": "event"
    },
    {
      "inputs": [],
      "name": "BLACK",
      "outputs": [
        {
          "internalType": "uint8",
          "name": "",
          "type": "uint8"
        }
      ],
      "stateMutability": "view",
      "type": "function"
    },
    {
      "inputs": [],
      "name": "MAX_TIME_CONTROL",
      "outputs": [
        {
          "internalType": "uint24",
          "name": "",
          "type": "uint24"
        }
      ],
      "stateMutability": "view",
      "type": "function"
    },
    {
      "inputs": [],
      "name": "RED",
      "outputs": [
        {
          "internalType": "uint8",
          "name": "",
          "type": "uint8"
        }
      ],
      "stateMutability": "view",
      "type": "function"
    },
    {
      "inputs": [
        {
          "internalType": "enum MysteryChineseChess.GameMode",
          "name": "gameMode",
          "type": "uint8"
        },
        {
          "internalType": "string",
          "name": "name",
          "type": "string"
        },
        {
          "internalType": "uint256",
          "name": "stake",
          "type": "uint256"
        }
      ],
      "name": "createTable",
      "outputs": [],
      "stateMutability": "nonpayable",
      "type": "function"
    },
    {
      "inputs": [
        {
          "internalType": "uint256",
          "name": "tableId",
          "type": "uint256"
        }
      ],
      "name": "exitTable",
      "outputs": [],
      "stateMutability": "nonpayable",
      "type": "function"
    },
    {
      "inputs": [],
      "name": "getAllMatches",
      "outputs": [
        {
          "components": [
            {
              "internalType": "uint256",
              "name": "id",
              "type": "uint256"
            },
            {
              "internalType": "enum MysteryChineseChess.GameMode",
              "name": "gameMode",
              "type": "uint8"
            },
            {
              "internalType": "address[2]",
              "name": "players",
              "type": "address[2]"
            },
            {
              "internalType": "uint256",
              "name": "stake",
              "type": "uint256"
            },
            {
              "internalType": "uint24",
              "name": "timeControl",
              "type": "uint24"
            },
            {
              "internalType": "uint256",
              "name": "startTimestamp",
              "type": "uint256"
            },
            {
              "internalType": "uint256",
              "name": "endTimestamp",
              "type": "uint256"
            },
            {
              "internalType": "enum MysteryChineseChess.MatchStatus",
              "name": "gameStatus",
              "type": "uint8"
            },
            {
              "components": [
                {
                  "internalType": "uint8",
                  "name": "winnerIndex",
                  "type": "uint8"
                },
                {
                  "internalType": "enum MysteryChineseChess.MatchResultType",
                  "name": "resultType",
                  "type": "uint8"
                },
                {
                  "internalType": "uint8",
                  "name": "increasingElo",
                  "type": "uint8"
                },
                {
                  "internalType": "uint8",
                  "name": "decreasingElo",
                  "type": "uint8"
                }
              ],
              "internalType": "struct MysteryChineseChess.MatchResult",
              "name": "matchResult",
              "type": "tuple"
            },
            {
              "components": [
                {
                  "internalType": "uint8",
                  "name": "color",
                  "type": "uint8"
                },
                {
                  "internalType": "enum MysteryChineseChess.Piece",
                  "name": "piece",
                  "type": "uint8"
                },
                {
                  "internalType": "bool",
                  "name": "unfolded",
                  "type": "bool"
                }
              ],
              "internalType": "struct MysteryChineseChess.PlayerPiece[9][10]",
              "name": "board",
              "type": "tuple[9][10]"
            },
            {
              "components": [
                {
                  "internalType": "uint8",
                  "name": "row",
                  "type": "uint8"
                },
                {
                  "internalType": "uint8",
                  "name": "column",
                  "type": "uint8"
                }
              ],
              "internalType": "struct MysteryChineseChess.Position[2][]",
              "name": "steps",
              "type": "tuple[2][]"
            }
          ],
          "internalType": "struct MysteryChineseChess.Match[]",
          "name": "",
          "type": "tuple[]"
        }
      ],
      "stateMutability": "view",
      "type": "function"
    },
    {
      "inputs": [],
      "name": "getAllPlayers",
      "outputs": [
        {
          "components": [
            {
              "internalType": "address",
              "name": "playerAddress",
              "type": "address"
            },
            {
              "internalType": "string",
              "name": "playerName",
              "type": "string"
            },
            {
              "internalType": "int32",
              "name": "elo",
              "type": "int32"
            },
            {
              "internalType": "uint256",
              "name": "tableId",
              "type": "uint256"
            }
          ],
          "internalType": "struct MysteryChineseChess.Player[]",
          "name": "",
          "type": "tuple[]"
        }
      ],
      "stateMutability": "view",
      "type": "function"
    },
    {
      "inputs": [
        {
          "internalType": "enum MysteryChineseChess.GameMode",
          "name": "gameMode",
          "type": "uint8"
        },
        {
          "internalType": "uint24",
          "name": "page",
          "type": "uint24"
        },
        {
          "internalType": "uint16",
          "name": "size",
          "type": "uint16"
        }
      ],
      "name": "getAllTables",
      "outputs": [
        {
          "components": [
            {
              "internalType": "uint256",
              "name": "id",
              "type": "uint256"
            },
            {
              "internalType": "enum MysteryChineseChess.GameMode",
              "name": "gameMode",
              "type": "uint8"
            },
            {
              "internalType": "string",
              "name": "name",
              "type": "string"
            },
            {
              "internalType": "address[2]",
              "name": "players",
              "type": "address[2]"
            },
            {
              "internalType": "uint8",
              "name": "hostIndex",
              "type": "uint8"
            },
            {
              "internalType": "uint256",
              "name": "stake",
              "type": "uint256"
            },
            {
              "internalType": "uint24",
              "name": "timeControl",
              "type": "uint24"
            },
            {
              "internalType": "uint256",
              "name": "matchId",
              "type": "uint256"
            }
          ],
          "internalType": "struct MysteryChineseChess.Table[]",
          "name": "",
          "type": "tuple[]"
        }
      ],
      "stateMutability": "view",
      "type": "function"
    },
    {
      "inputs": [
        {
          "internalType": "uint256",
          "name": "id",
          "type": "uint256"
        }
      ],
      "name": "getMatch",
      "outputs": [
        {
          "components": [
            {
              "internalType": "uint256",
              "name": "id",
              "type": "uint256"
            },
            {
              "internalType": "enum MysteryChineseChess.GameMode",
              "name": "gameMode",
              "type": "uint8"
            },
            {
              "internalType": "address[2]",
              "name": "players",
              "type": "address[2]"
            },
            {
              "internalType": "uint256",
              "name": "stake",
              "type": "uint256"
            },
            {
              "internalType": "uint24",
              "name": "timeControl",
              "type": "uint24"
            },
            {
              "internalType": "uint256",
              "name": "startTimestamp",
              "type": "uint256"
            },
            {
              "internalType": "uint256",
              "name": "endTimestamp",
              "type": "uint256"
            },
            {
              "internalType": "enum MysteryChineseChess.MatchStatus",
              "name": "gameStatus",
              "type": "uint8"
            },
            {
              "components": [
                {
                  "internalType": "uint8",
                  "name": "winnerIndex",
                  "type": "uint8"
                },
                {
                  "internalType": "enum MysteryChineseChess.MatchResultType",
                  "name": "resultType",
                  "type": "uint8"
                },
                {
                  "internalType": "uint8",
                  "name": "increasingElo",
                  "type": "uint8"
                },
                {
                  "internalType": "uint8",
                  "name": "decreasingElo",
                  "type": "uint8"
                }
              ],
              "internalType": "struct MysteryChineseChess.MatchResult",
              "name": "matchResult",
              "type": "tuple"
            },
            {
              "components": [
                {
                  "internalType": "uint8",
                  "name": "color",
                  "type": "uint8"
                },
                {
                  "internalType": "enum MysteryChineseChess.Piece",
                  "name": "piece",
                  "type": "uint8"
                },
                {
                  "internalType": "bool",
                  "name": "unfolded",
                  "type": "bool"
                }
              ],
              "internalType": "struct MysteryChineseChess.PlayerPiece[9][10]",
              "name": "board",
              "type": "tuple[9][10]"
            },
            {
              "components": [
                {
                  "internalType": "uint8",
                  "name": "row",
                  "type": "uint8"
                },
                {
                  "internalType": "uint8",
                  "name": "column",
                  "type": "uint8"
                }
              ],
              "internalType": "struct MysteryChineseChess.Position[2][]",
              "name": "steps",
              "type": "tuple[2][]"
            }
          ],
          "internalType": "struct MysteryChineseChess.Match",
          "name": "",
          "type": "tuple"
        }
      ],
      "stateMutability": "view",
      "type": "function"
    },
    {
      "inputs": [
        {
          "internalType": "address",
          "name": "_addr",
          "type": "address"
        }
      ],
      "name": "getPlayer",
      "outputs": [
        {
          "components": [
            {
              "internalType": "address",
              "name": "playerAddress",
              "type": "address"
            },
            {
              "internalType": "string",
              "name": "playerName",
              "type": "string"
            },
            {
              "internalType": "int32",
              "name": "elo",
              "type": "int32"
            },
            {
              "internalType": "uint256",
              "name": "tableId",
              "type": "uint256"
            }
          ],
          "internalType": "struct MysteryChineseChess.Player",
          "name": "",
          "type": "tuple"
        }
      ],
      "stateMutability": "view",
      "type": "function"
    },
    {
      "inputs": [
        {
          "internalType": "uint256",
          "name": "id",
          "type": "uint256"
        }
      ],
      "name": "getTable",
      "outputs": [
        {
          "components": [
            {
              "internalType": "uint256",
              "name": "id",
              "type": "uint256"
            },
            {
              "internalType": "enum MysteryChineseChess.GameMode",
              "name": "gameMode",
              "type": "uint8"
            },
            {
              "internalType": "string",
              "name": "name",
              "type": "string"
            },
            {
              "internalType": "address[2]",
              "name": "players",
              "type": "address[2]"
            },
            {
              "internalType": "uint8",
              "name": "hostIndex",
              "type": "uint8"
            },
            {
              "internalType": "uint256",
              "name": "stake",
              "type": "uint256"
            },
            {
              "internalType": "uint24",
              "name": "timeControl",
              "type": "uint24"
            },
            {
              "internalType": "uint256",
              "name": "matchId",
              "type": "uint256"
            }
          ],
          "internalType": "struct MysteryChineseChess.Table",
          "name": "",
          "type": "tuple"
        }
      ],
      "stateMutability": "view",
      "type": "function"
    },
    {
      "inputs": [],
      "name": "initializeTables",
      "outputs": [],
      "stateMutability": "payable",
      "type": "function"
    },
    {
      "inputs": [
        {
          "internalType": "address",
          "name": "_addr",
          "type": "address"
        }
      ],
      "name": "isPlayer",
      "outputs": [
        {
          "internalType": "bool",
          "name": "",
          "type": "bool"
        }
      ],
      "stateMutability": "view",
      "type": "function"
    },
    {
      "inputs": [
        {
          "internalType": "uint256",
          "name": "tableId",
          "type": "uint256"
        }
      ],
      "name": "joinTable",
      "outputs": [],
      "stateMutability": "nonpayable",
      "type": "function"
    },
    {
      "inputs": [
        {
          "internalType": "uint256",
          "name": "",
          "type": "uint256"
        }
      ],
      "name": "matchIndexes",
      "outputs": [
        {
          "internalType": "uint256",
          "name": "",
          "type": "uint256"
        }
      ],
      "stateMutability": "view",
      "type": "function"
    },
    {
      "inputs": [
        {
          "internalType": "uint256",
          "name": "",
          "type": "uint256"
        }
      ],
      "name": "matches",
      "outputs": [
        {
          "internalType": "uint256",
          "name": "id",
          "type": "uint256"
        },
        {
          "internalType": "enum MysteryChineseChess.GameMode",
          "name": "gameMode",
          "type": "uint8"
        },
        {
          "internalType": "uint256",
          "name": "stake",
          "type": "uint256"
        },
        {
          "internalType": "uint24",
          "name": "timeControl",
          "type": "uint24"
        },
        {
          "internalType": "uint256",
          "name": "startTimestamp",
          "type": "uint256"
        },
        {
          "internalType": "uint256",
          "name": "endTimestamp",
          "type": "uint256"
        },
        {
          "internalType": "enum MysteryChineseChess.MatchStatus",
          "name": "gameStatus",
          "type": "uint8"
        },
        {
          "components": [
            {
              "internalType": "uint8",
              "name": "winnerIndex",
              "type": "uint8"
            },
            {
              "internalType": "enum MysteryChineseChess.MatchResultType",
              "name": "resultType",
              "type": "uint8"
            },
            {
              "internalType": "uint8",
              "name": "increasingElo",
              "type": "uint8"
            },
            {
              "internalType": "uint8",
              "name": "decreasingElo",
              "type": "uint8"
            }
          ],
          "internalType": "struct MysteryChineseChess.MatchResult",
          "name": "matchResult",
          "type": "tuple"
        }
      ],
      "stateMutability": "view",
      "type": "function"
    },
    {
      "inputs": [
        {
          "internalType": "uint8",
          "name": "sourceRow",
          "type": "uint8"
        },
        {
          "internalType": "uint8",
          "name": "sourceCol",
          "type": "uint8"
        },
        {
          "internalType": "uint8",
          "name": "destRow",
          "type": "uint8"
        },
        {
          "internalType": "uint8",
          "name": "destCol",
          "type": "uint8"
        }
      ],
      "name": "move",
      "outputs": [
        {
          "internalType": "bool",
          "name": "",
          "type": "bool"
        }
      ],
      "stateMutability": "payable",
      "type": "function"
    },
    {
      "inputs": [
        {
          "internalType": "uint256",
          "name": "",
          "type": "uint256"
        }
      ],
      "name": "normalModeAdvancedTableIndexes",
      "outputs": [
        {
          "internalType": "uint256",
          "name": "",
          "type": "uint256"
        }
      ],
      "stateMutability": "view",
      "type": "function"
    },
    {
      "inputs": [
        {
          "internalType": "uint256",
          "name": "",
          "type": "uint256"
        }
      ],
      "name": "normalModeBeginnerTableIndexes",
      "outputs": [
        {
          "internalType": "uint256",
          "name": "",
          "type": "uint256"
        }
      ],
      "stateMutability": "view",
      "type": "function"
    },
    {
      "inputs": [
        {
          "internalType": "uint256",
          "name": "",
          "type": "uint256"
        }
      ],
      "name": "normalModeIntermediateTableIndexes",
      "outputs": [
        {
          "internalType": "uint256",
          "name": "",
          "type": "uint256"
        }
      ],
      "stateMutability": "view",
      "type": "function"
    },
    {
      "inputs": [
        {
          "internalType": "uint256",
          "name": "matchId",
          "type": "uint256"
        }
      ],
      "name": "offerDraw",
      "outputs": [],
      "stateMutability": "payable",
      "type": "function"
    },
    {
      "inputs": [
        {
          "internalType": "uint256",
          "name": "",
          "type": "uint256"
        },
        {
          "internalType": "uint256",
          "name": "",
          "type": "uint256"
        }
      ],
      "name": "originalPieces",
      "outputs": [
        {
          "internalType": "enum MysteryChineseChess.Piece",
          "name": "",
          "type": "uint8"
        }
      ],
      "stateMutability": "view",
      "type": "function"
    },
    {
      "inputs": [],
      "name": "owner",
      "outputs": [
        {
          "internalType": "address",
          "name": "",
          "type": "address"
        }
      ],
      "stateMutability": "view",
      "type": "function"
    },
    {
      "inputs": [
        {
          "internalType": "address",
          "name": "",
          "type": "address"
        }
      ],
      "name": "playerIndexes",
      "outputs": [
        {
          "internalType": "uint256",
          "name": "",
          "type": "uint256"
        }
      ],
      "stateMutability": "view",
      "type": "function"
    },
    {
      "inputs": [
        {
          "internalType": "uint256",
          "name": "",
          "type": "uint256"
        }
      ],
      "name": "players",
      "outputs": [
        {
          "internalType": "address",
          "name": "playerAddress",
          "type": "address"
        },
        {
          "internalType": "string",
          "name": "playerName",
          "type": "string"
        },
        {
          "internalType": "int32",
          "name": "elo",
          "type": "int32"
        },
        {
          "internalType": "uint256",
          "name": "tableId",
          "type": "uint256"
        }
      ],
      "stateMutability": "view",
      "type": "function"
    },
    {
      "inputs": [
        {
          "internalType": "uint256",
          "name": "",
          "type": "uint256"
        }
      ],
      "name": "rankModeTableIndexes",
      "outputs": [
        {
          "internalType": "uint256",
          "name": "",
          "type": "uint256"
        }
      ],
      "stateMutability": "view",
      "type": "function"
    },
    {
      "inputs": [
        {
          "internalType": "string",
          "name": "_name",
          "type": "string"
        }
      ],
      "name": "registerPlayer",
      "outputs": [],
      "stateMutability": "payable",
      "type": "function"
    },
    {
      "inputs": [],
      "name": "renounceOwnership",
      "outputs": [],
      "stateMutability": "nonpayable",
      "type": "function"
    },
    {
      "inputs": [
        {
          "internalType": "uint256",
          "name": "matchId",
          "type": "uint256"
        }
      ],
      "name": "resign",
      "outputs": [],
      "stateMutability": "payable",
      "type": "function"
    },
    {
      "inputs": [
        {
          "internalType": "uint256",
          "name": "tableId",
          "type": "uint256"
        }
      ],
      "name": "startNewMatch",
      "outputs": [],
      "stateMutability": "payable",
      "type": "function"
    },
    {
      "inputs": [
        {
          "internalType": "uint256",
          "name": "",
          "type": "uint256"
        }
      ],
      "name": "tables",
      "outputs": [
        {
          "internalType": "uint256",
          "name": "id",
          "type": "uint256"
        },
        {
          "internalType": "enum MysteryChineseChess.GameMode",
          "name": "gameMode",
          "type": "uint8"
        },
        {
          "internalType": "string",
          "name": "name",
          "type": "string"
        },
        {
          "internalType": "uint8",
          "name": "hostIndex",
          "type": "uint8"
        },
        {
          "internalType": "uint256",
          "name": "stake",
          "type": "uint256"
        },
        {
          "internalType": "uint24",
          "name": "timeControl",
          "type": "uint24"
        },
        {
          "internalType": "uint256",
          "name": "matchId",
          "type": "uint256"
        }
      ],
      "stateMutability": "view",
      "type": "function"
    },
    {
      "inputs": [
        {
          "internalType": "address",
          "name": "newOwner",
          "type": "address"
        }
      ],
      "name": "transferOwnership",
      "outputs": [],
      "stateMutability": "nonpayable",
      "type": "function"
    },
    {
      "inputs": [
        {
          "internalType": "string",
          "name": "playerName",
          "type": "string"
        },
        {
          "internalType": "uint256",
          "name": "tableId",
          "type": "uint256"
        },
        {
          "internalType": "bool",
          "name": "setsTableId",
          "type": "bool"
        }
      ],
      "name": "updatePlayer",
      "outputs": [],
      "stateMutability": "nonpayable",
      "type": "function"
    },
    {
      "inputs": [
        {
          "components": [
            {
              "internalType": "uint256",
              "name": "id",
              "type": "uint256"
            },
            {
              "internalType": "enum MysteryChineseChess.GameMode",
              "name": "gameMode",
              "type": "uint8"
            },
            {
              "internalType": "string",
              "name": "name",
              "type": "string"
            },
            {
              "internalType": "address[2]",
              "name": "players",
              "type": "address[2]"
            },
            {
              "internalType": "uint8",
              "name": "hostIndex",
              "type": "uint8"
            },
            {
              "internalType": "uint256",
              "name": "stake",
              "type": "uint256"
            },
            {
              "internalType": "uint24",
              "name": "timeControl",
              "type": "uint24"
            },
            {
              "internalType": "uint256",
              "name": "matchId",
              "type": "uint256"
            }
          ],
          "internalType": "struct MysteryChineseChess.Table",
          "name": "c_table",
          "type": "tuple"
        }
      ],
      "name": "updateTable",
      "outputs": [],
      "stateMutability": "nonpayable",
      "type": "function"
    },
    {
      "inputs": [
        {
          "internalType": "uint256",
          "name": "matchId",
          "type": "uint256"
        }
      ],
      "name": "verifyCheckmate",
      "outputs": [],
      "stateMutability": "payable",
      "type": "function"
    }
  ],
  "bytecode": "0x608080604052331562000bbb5760008054336001600160a01b0319821681178355916001600160a01b03909116907f8be0079c531659141344cd1fd0a4f28419497f9722a3daafe3b4186f6b6457e09080a3600160406200005f62000bd1565b600281526000602082015201526015805462ffffff19166201000217905560405161014081016001600160401b038111828210176200087b5760405260005b610140811062000b525750620000b362000bf1565b60008152620000c162000c31565b600081526020820152600060408201526000606082015260015490680100000000000000008210156200087b576001820180600155821015620009455760016000528051600283901b7fb10e2d527612073b26eecdfd717e6a320cf44b4afac2b0732d9fcbe2b7fa0cf690810180546001600160a01b0319166001600160a01b03939093169290921790915560208201518051919291906001600160401b0382116200087b5760018560021b85010154600181811c9116801562000b47575b602082101462000a5857601f811162000b09575b50602090601f831160011462000a85579180600395949260609460009262000a79575b50508160011b9160001990871b1c19161760018660021b850101555b600285811b840101604082015163ffffffff198254169063ffffffff1617905501519260021b0101556200020662000c11565b60008082526020820152604051906001600160401b036101008301908111908311176200087b57610100820160405260008252600060208301526200024a62000c31565b600081526040830152606082015260006080820152600060a0820152600060c0820152600060e082015260035490680100000000000000008210156200087b57600182018060035582101562000945576003600052602060002090805160098402830155602081015160068110156200090957620002d19060016009860285010162000c6a565b60408101518051906001600160401b0382116200087b576002600986028501015490600182811c9216801562000a6e575b602083101462000a585781601f84931162000a0e575b50602090601f83116001146200098d5760009262000981575b50508160011b916000199060031b1c191617600260098502840101555b606081015160005b600281106200095b575050608081015160099390930290910160058101805460ff191660ff949094169390931790925560a0810151600683015560c081015160078301805462ffffff191662ffffff9290921691909117905560e0015160089190910155620003c462000c11565b906000825260006020830152620003da62000bf1565b60008152600060208201526000604082015260006060820152604051928361016081011060018060401b03610160860111176200087b576101608401604052600084526000602085015260408401526000606084015260006080840152600060a0840152600060c0840152600260e08401526101008301526101208201526060610140820152600854680100000000000000008110156200087b57600181018060085581101562000945576008600052602060002090825160658202830155602083015160068110156200090957620004bc9060016065840285010162000c6a565b604083015160005b600281106200091f57505060608301516065820283016004810191909155608084015160058201805462ffffff191662ffffff9290921691909117905560a0840151600682015560c084015160079091015560e0830151600381101562000909576008606583028401908101805460ff191660ff93841617905561010085015180516009928301546020830151949293919092169190841015620009095762ff00009161ff0063ff0000006060604087015196015160181b169560081b169163ffffffff191617179160101b16171760096065830284010155610120830151600a606583028401016000915b600a831062000891576101408601518051606586028701606401916801000000000000000082116200087b5782548284558083106200080d575b50602001916000526020600020916000905b828210620007b557604051604160f81b8152600a6001820152602180912060ff19815416905580604051602160f91b8152600a600182015220600160ff1982541617905580604051604360f81b8152600a600182015220600260ff1982541617905580604051601160fa1b8152600a600182015220600360ff1982541617905580604051604560f81b8152600a600182015220600460ff1982541617905580604051602360f91b8152600a600182015220600560ff1982541617905580604051604760f81b8152600a600182015220600660ff1982541617905580604051600960fb1b8152600a600182015220600760ff1982541617905580604051604960f81b8152600a600182015220600860ff19825416179055604051602560f91b8152600a600182015220600960ff19825416179055600b546014549068050403020002030405918268ffffffff00ffffffff1980931617600b55161760145567060000000000060067ff0000000000ff00198181600d541617600d5560125416176012556807000700070007000768ff00ff00ff00ff00ff198181600e541617600e556011541617601155604051614537908162000c848239f35b8051846000915b60028310620007dc575050506002602060019201940191019092620005fc565b600160208282935160ff81511661ff0084885493015160081b169161ffff19161717855501920192019190620007bc565b6001600160ff1b03818116820362000865578316830362000865578360005260206000209060011b8101908360011b015b8181106200084d5750620005ea565b806200085e60028093018262000c51565b016200083e565b634e487b7160e01b600052601160045260246000fd5b634e487b7160e01b600052604160045260246000fd5b8051826000915b60098310620008b8575050506009602060019201920192019190620005b0565b805160ff81511690835492602082015160088110156200090957600194859461ff0062ff000060406020970151151560101b169360081b169162ffffff191617171785550192019201919062000898565b634e487b7160e01b600052602160045260246000fd5b81516001600160a01b0316600260658502860183010155602090910190600101620004c4565b634e487b7160e01b600052603260045260246000fd5b81516001600160a01b031660036009870286018301015560209091019060010162000356565b01519050868062000331565b92506002600987028601016000526020600020906000935b601f1984168510620009f2576001945083601f19811610620009d8575b505050811b01600260098502840101556200034e565b015160001960f88460031b161c19169055868080620009c2565b81810151835560209485019460019093019290910190620009a5565b62000a46906002600989028801016000526020600020601f850160051c8101916020861062000a4d575b601f0160051c019062000c51565b8762000318565b909150819062000a38565b634e487b7160e01b600052602260045260246000fd5b91607f169162000302565b015190508880620001b7565b9060018660021b86010160005260206000209160005b601f198516811062000af0575092600395949260019260609583601f1981161062000ad7575b505050811b0160018660021b85010155620001d3565b015160001983891b60f8161c1916905588808062000ac1565b9192602060018192868501518155019401920162000a9b565b62000b409060018760021b8701016000526020600020601f850160051c8101916020861062000a4d57601f0160051c019062000c51565b8662000194565b90607f169062000180565b6040516101208082016001600160401b038111838210176200087b5760405260005b81811062000b8b575050828201526020016200009e565b90602080959262000b9b62000bd1565b600081526000838201526000604082015281860152019091945062000b74565b631e4fbdf760e01b815260006004820152602490fd5b60405190606082016001600160401b038111838210176200087b57604052565b60405190608082016001600160401b038111838210176200087b57604052565b60408051919082016001600160401b038111838210176200087b57604052565b60405190602082016001600160401b038111838210176200087b57604052565b81811062000c5d575050565b6000815560010162000c51565b906006811015620009095760ff8019835416911617905556fe608080604052600436101561001357600080fd5b60003560e01c90816308d9801c14612e035781630971e31614612ddb5750806309c95e1014612d9f578063115577bc14612cc3578063195e251f14612c87578063200301e214612c36578063225b031d14612c1a57806336d18b6714612bfe5780633823bb0314612aac57806338b8abe6146128945780633d092b3d146127725780634768d4ef146126ca5780634e02a715146113475780634f5ba44d14612679578063559028fc146122b85780635c12cd4b146121b35780636f86c80614611453578063715018a6146113fa57806371671bf21461134c57806384ff731c146113475780638da5cb5b1461131e57806391628795146112e45780639bfb29781461109a578063b3446f8514610d9d578063c17c5a4514610cb4578063c7e5992c1461090a578063d2ccd05714610862578063e1e20c2014610812578063ea77647b146107c1578063eed79abb14610770578063efa1c4821461069d578063efb79e351461067f578063f1819eb9146102b1578063f2fde38b1461022b5763f71d96cb146101a057600080fd5b3461022657602036600319011261022657600435600154811015610226576101c790613490565b5060018060a01b03815416604051916101ee836101e781600185016133a8565b038461329c565b600360028201549101546102146040519485948552608060208601526080850190612e5a565b9160030b604084015260608301520390f35b600080fd5b3461022657602036600319011261022657610244612e14565b61024c613ec6565b6001600160a01b03908116908115610298576000548260018060a01b0319821617600055167f8be0079c531659141344cd1fd0a4f28419497f9722a3daafe3b4186f6b6457e0600080a3005b604051631e4fbdf760e01b815260006004820152602490fd5b34610226576020806003193601126102265760043590604051629c95e160e41b81523360048201528181602481305afa90811561067357600091610646575b5015610635576102ff8261334f565b50541561059f57606061031a6103148461334f565b50613759565b015160018060a01b03908183818351163314159283610625575b5050506105e35760039060008261034a33614056565b01556103558461334f565b50918083013383825416146000146105dc5760005b61037381613eb5565b958461037f88856137e8565b905490861b1c161561046a5750918593917f2de3400c5320d2aca62a876730addbd498e102edf4a9fbb7cb99d7f1d6b56010979593600160ff61040e991614610413575b509160ff93916103de6005946103d888613eb5565b906137e8565b81939154921b1b1916905501911660ff198254161790555b60408051338152602081019290925290918291820190565b0390a1005b9161045960ff959361043b8661042d869a600599976137e8565b905490861b1c1691896137e8565b90919060018060a01b038084549260031b9316831b921b1916179055565b6103de6000969294505091936103c3565b935050506000935083925061054b61048f61052b9261048833614056565b0154613ef2565b926104d560316040518096700383630bcb2b9173a30b13632a4b2101e9607d1b858301526104c581518092878686019101612e37565b810103601181018752018561329c565b61053d6040516104e4816131db565b60178152762e20537461727420746f2064656c657465207461626c6560481b83820152604051948593840196634b5c427760e01b8852604060248601526064850190612e5a565b83810360231901604485015290612e5a565b03601f19810183528261329c565b51906a636f6e736f6c652e6c6f675afa506105658161334f565b50541561059f5761040e8161059a7f2de3400c5320d2aca62a876730addbd498e102edf4a9fbb7cb99d7f1d6b5601093614194565b6103f6565b604051633bca200b60e21b81526020600482015260146024820152731518589b1948191bd95cc81b9bdd08195e1a5cdd60621b6044820152606490fd5b600161036a565b6040516312a441ad60e01b8152602060048201526019602482015278596f7520617265206e6f7420696e2074686973207461626c6560381b6044820152606490fd5b0151163314159050818386610334565b6040516282b42960e81b8152600490fd5b6106669150823d841161066c575b61065e818361329c565b8101906137f8565b836102f0565b503d610654565b6040513d6000823e3d90fd5b34610226576000366003190112610226576020604051621b77408152f35b346102265760003660031901126102265760018054906106bc82613967565b906106ca604051928361329c565b828252602080830193846001600052826000206000915b8383106107495750505050604051928184019082855251809152604084019160408260051b86010195926000905b83821061071c5786880387f35b90919293948380610738839a603f198b82030186528951613310565b99970195949391909101910161070f565b9460048582999761075c859a989a613bb9565b8152019201920191909694969593956106e1565b34610226576020366003190112610226576004356005548110156102265760056000527f036b6384b5eca791c62761152d0c79bb0604c104a5fb6f4eb0703f3154bb3db00154604051908152602090f35b34610226576020366003190112610226576004356007548110156102265760076000527fa66cc928b5edb82af9bd49922954155ab7b0942694bea4ce44661d9a8736c6880154604051908152602090f35b3461022657604036600319011261022657600435602435600a821015610226576009811015610226576108608160ff600b60209560f89560051c01015460405194859360031b161c16613018565bf35b346102265760603660031901126102265760043560068110156102265760243562ffffff81168103610226576044359061ffff82168203610226576108a692613c6b565b60405160209160208201926020835281518094526040830193602060408260051b8601019301916000955b8287106108de5785850386f35b9091929382806108fa600193603f198a82030186528851612eb0565b96019201960195929190926108d1565b346102265760206003198181360112610226576001600160401b03916004358381116102265761012080938236030112610226576040519261094b846131f6565b8160040135845260248201356006811015610226578385015260448201358581116102265782013660238201121561022657610991903690602460048201359101613459565b936040810194855236608384011215610226576040516109b0816131db565b8060a48501913683116102265760648601905b838210610c9557505060608301523560ff8116810361022657608082015260a0810160c4840135815260e48401359162ffffff948584168403610226576101049060c08301948552013560e0820152610a1c815161334f565b50541561059f57610a2d905161334f565b509580518681518015159283610c41575b505050610b37575b506000805160206144a283398151915296509083915180151580610b29575b610b1e575b50511680151580610b0e575b610af8575b506008604051948486958652815490860152610aa260ff6001830154166040870190612e2a565b826060860152610ab96101408601600283016133a8565b93610aca6080870160038401613727565b60ff60058301541660c0870152600682015460e08701526007820154166101008601520154908301520390a1005b600785019062ffffff1982541617905585610a7b565b5082600786015416811415610a76565b600687015587610a6a565b506006870154811415610a65565b519660028701908851908111610c2b57610b5b81610b55845461336e565b846134fb565b86601f8211600114610bb357818795949392610b9e926000805160206144a28339815191529c600092610ba8575b50508160011b916000199060031b1c19161790565b90555b9091610a46565b015190508c80610b89565b601f1982169983600052886000209a60005b818110610c1457509a60019284928a989796956000805160206144a28339815191529e10610bfb575b505050811b019055610ba1565b015160001960f88460031b161c191690558b8080610bee565b838301518d556001909c019b928a01928a01610bc5565b634e487b7160e01b600052604160045260246000fd5b829350918192610c6d92610c6060405195869385850198899101612e37565b810103808452018261329c565b51902060405187810190610c888161053d8460028e01613810565b5190201415868a80610a3e565b81356001600160a01b03811681036102265781529087019087016109c3565b3461022657600036600319011261022657600854610cd181613967565b90610cdf604051928361329c565b80825260086000908152602091828401917ff3f7a9fe364faab93b216da50a3214154f22a0a2b415b23a84c8169e8b636ee3835b838310610d7a5750505050604051918083019381845251809452604083019360408160051b85010192916000955b828710610d4e5785850386f35b909192938280610d6a600193603f198a82030186528851613025565b9601920196019592919092610d41565b606586600192610d8c859a999a61397e565b815201920192019190959495610d13565b602080600319360112610226576001600160401b039060043582811161022657610dcb903690600401612fa8565b919060405193629c95e160e41b855233600486015260249483818781305afa9081156106735760009161107d575b5061103d57831561100157600190610e2482549360405196610e1a8861322e565b3388523691613459565b848601908152604086019060008252606087019260008452600160401b861015610fec578486018555610e5686613490565b959095610fd757885186546001600160a01b0319166001600160a01b03919091161786559151805190998387019391928311610fc35750610ea182610e9b855461336e565b856134fb565b8790601f8311600114610f3a575081600395949392610ef8927f1a9f78dbaab8e275c9024eed0763e6dbd23496aa15c942786fb1f868cb5832b29c600092610ba85750508160011b916000199060031b1c19161790565b90555b60028401905163ffffffff198254169063ffffffff1617905551910155336000526002825260406000205561040e604051928284938452830190613310565b9190601f1982169a84600052896000209b60005b818110610fae5750917f1a9f78dbaab8e275c9024eed0763e6dbd23496aa15c942786fb1f868cb5832b29c9184600399989796959410610f96575b505050811b019055610efb565b015160001983891b60f8161c191690558b8080610f89565b838301518e559c85019c928b01928b01610f4e565b634e487b7160e01b60009081526041600452fd5b89634e487b7160e01b60005260006004526000fd5b88634e487b7160e01b60005260416004526000fd5b6040516312a441ad60e01b815260048101849052601481870152734e616d652063616e6e6f7420626520656d70747960601b6044820152606490fd5b60405162461bcd60e51b81526004810184905260198187015278141b185e595c88185b1c9958591e481c9959da5cdd195c9959603a1b6044820152606490fd5b6110949150843d861161066c5761065e818361329c565b86610df9565b346102265760603660031901126102265760043560068110156102265760249081356001600160401b038111610226576110d8903690600401612fa8565b9290916003549261111d604051916110ef836131db565b3383526000602084015260405196611106886131f6565b8688526111168560208a016134c0565b3691613459565b604086015260608501526000608085015260443560a0850152621b774060c0850152600060e085015261114f846136af565b82600361115b33614056565b0155600281036111cb575060045490600160401b821015610fc35750916111b761040e9261119e8560016000805160206144828339815191529701600455612f8d565b90919082549060031b91821b91600019901b1916179055565b604051918291602083526020830190612eb0565b60038103611211575060055490600160401b821015610fc357509161120c61040e9261119e8560016000805160206144828339815191529701600555612f72565b6111b7565b60048103611252575060065490600160401b821015610fc357509161120c61040e9261119e8560016000805160206144828339815191529701600655612f57565b6005036112915760075490600160401b821015610fc357509161120c61040e9261119e8560016000805160206144828339815191529701600755612f26565b6084906025604051916312a441ad60e01b8352602060048401528201527f496e76616c69642047616d654d6f64652e2043616e6e6f7420637265617465206044820152647461626c6560d81b6064820152fd5b34610226576020366003190112610226576001600160a01b03611305612e14565b1660005260026020526020604060002054604051908152f35b34610226576000366003190112610226576000546040516001600160a01b039091168152602090f35b613302565b3461022657602036600319011261022657600435600354811015610226576113739061334f565b50805460ff6001830154169160405161139a8161139381600286016133a8565b038261329c565b60ff6005830154169160068101546113e1600862ffffff600785015416930154936113d060405198899889526020890190612e2a565b60e0604088015260e0870190612e5a565b936060860152608085015260a084015260c08301520390f35b3461022657600036600319011261022657611413613ec6565b600080546001600160a01b0319811682556001600160a01b03167f8be0079c531659141344cd1fd0a4f28419497f9722a3daafe3b4186f6b6457e08280a3005b602036600319011261022657600435604051629c95e160e41b8152336004820152602081602481305afa90811561067357600091612194575b50156106355761149b8161334f565b50541561059f5760606114b06103148361334f565b015180516001600160a01b0316331415908161217c575b506105e3576114d59061334f565b5060038101546001600160a01b0316158015612167575b612121578054604051903360601b60208301524260348301526054820152605481526115178161322e565b602081519101209081600882015561152d613906565b916040519061153b82613280565b61154482613894565b60405161155081613280565b61155981613894565b6040519461156686613280565b61156f86613894565b6040519461157c86613280565b61158586613894565b6040519461159286613280565b61159b86613894565b604051946115a886613280565b6115b186613894565b604051966115be88613280565b6115c788613894565b604051966115d488613280565b6115dd88613894565b604051916115ea83613280565b6115f383613894565b6040519761160089613280565b61160989613894565b85885260208801528b60408801528a6060880152608087015260a08601528760c08601528660e08601526101008501528461012085015260405161164c81613249565b600081526001602082015260016040820152608083015260405161166f81613249565b60018152600160208201526001604082015260808601526116d360405161169581613249565b602681527f5b5f696e6974426f6172645d204372656174656420313020726f777320666f7260208201526508189bd85c9960d21b604082015261409c565b6116e76040516116e281613264565b6138cd565b604051936116f485613264565b6002855260076020860152600660408601526007606086015260056080860152600360a0860152600760c0860152600260e08601526004610100860152600761012086015260036101408601526006610160860152600761018086015260056101a086015260046101c08601526040519461176e86613264565b611777866138cd565b600f60006000195b600f821061207957505050506117dc60405161179a81613249565b602a81527f5b5f696e6974426f6172645d2047656e657261746564206f72646572206f66206020820152697265642070696563657360b01b604082015261409c565b6117eb6040516116e281613264565b604051936117f885613264565b6002855260076020860152600660408601526007606086015260056080860152600360a0860152600760c0860152600260e08601526004610100860152600761012086015260036101408601526006610160860152600761018086015260056101a086015260046101c08601526040519461187286613264565b61187b866138cd565b600f60006000195b600f8210611f8c57505050506118e260405161189e81613249565b602c81527f5b5f696e6974426f6172645d2047656e657261746564206f72646572206f662060208201526b626c61636b2070696563657360a01b604082015261409c565b60009860005b60ff808216906009821015611977576004821461195f579161194d828c8f8261193f8f8f8f6119539a611939916119286119599e6119469916809661408b565b516119338383613ba8565b52613ba8565b5061408b565b5192613ba8565b528c613ba8565b506134af565b9a6134af565b996118e8565b5050996119536119716119599261407b565b9b6134af565b5050509650968993506119fc611a1c92998c6119d460405161199881613249565b603681526000805160206144c2833981519152602082015275666972737420726f77206f662065616368207369646560501b604082015261409c565b60e06119f360ff84166119e7818d61408b565b5160208501528b61408b565b519101526134af565b9060e06119f360ff8416611a10818a61408b565b5160208501528861408b565b95611a68604051611a2c81613249565b603681526000805160206144c2833981519152602082015275746869726420726f77206f662065616368207369646560501b604082015261409c565b6000965b600960ff89161015611afc5780611ab060ff611acc9316611a8d818a61408b565b51611a9b60ff8d1689613ba8565b52611aa960ff8c1688613ba8565b508761408b565b51611abe60ff8b168a613ba8565b5261194d60ff8a1689613ba8565b9660ff60028183160111611ae65760ff1660020196611a6c565b634e487b7160e01b600052601160045260246000fd5b5087611b49604051611b0d81613249565b603681526000805160206144c2833981519152602082015275666f75746820726f77206f662065616368207369646560501b604082015261409c565b611b7b604051611b58816131db565b601181527010dbdb9cdd1c9d58dd195908189bd85c99607a1b602082015261409c565b60ff60018301541690600683015462ffffff60078501541660405191611ba08361322e565b6000835260006020840152600a6040840152600a6060840152611bd560405195611bc987613212565b888752602087016134c0565b604051611be58160038901613727565b611bee816131db565b6040860152606085015260808401524260a0840152600060c0840152600060e08401526101008301526101208201526060610140820152611c57604051611c34816131db565b6011815270086dedce6e8e4eac6e8cac840dac2e8c6d607b1b602082015261409c565b600854600160401b811015610c2b57806001611c7692016008556131bc565b919091611f76578051825560208101516006811015611f4057611c9c90600184016134cc565b604081015160005b60028110611f56575050606081015160048301556005820162ffffff60808301511662ffffff1982541617905560a0810151600683015560c0810151600783015560e08101516003811015611f405760ff8019600885015416911617600883015561010081015160ff815116906009840154916020820151926009841015611f405762ff00009161ff0063ff0000006060604087015196015160181b169560081b169163ffffffff191617179160101b1617176009830155610120810151600a83016000915b600a8310611ecc57505050610140015180519190600160401b8311610c2b576064820154836064840155808410611e6c575b50602060649101910160005260206000206000915b838310611e17578585600854916000198301928311611ae657611e146060927f0e3e1d0e77b3d9d48881e33085e74d23a87a9447f9b8d8ff919c1a511be1e501948360005260096020526040600020556040519283526003602084019101613727565ba1005b8051826000915b60028310611e3c575050506002602060019201920192019190611db1565b600160208282935160ff81511661ff0084885493015160081b169161ffff19161717855501920192019190611e1e565b6001600160ff1b038181168203611ae65784168403611ae6576064830160005260206000208460011b81015b8260011b82018110611eab575050611d9c565b805b600282018110611ec05750600201611e98565b60008155600101611ead565b8051826000915b60098310611ef1575050506009602060019201920192019190611d6a565b805160ff8151169083549260208201516008811015611f4057600194859461ff0062ff000060406020970151151560101b169360081b169162ffffff1916171717855501920192019190611ed3565b634e487b7160e01b600052602160045260246000fd5b81516001600160a01b031660028286010155602090910190600101611ca4565b634e487b7160e01b600052600060045260246000fd5b60409d9c9d5160208101913360601b835242603483015260f81b605482015260358152611fb881613249565b51902060ff8316156120635760ff60019181851690061691611fe2611fdd848761408b565b613c04565b611ffe60405191611ff283613249565b8483526020830161395b565b6000604082015261200f828c61408b565b5261201a818b61408b565b50600061205761202c85830b9661407b565b9461205160ff87169161204c612045611fdd858d61408b565b918b61408b565b61395b565b8761408b565b520190919c9b9c611883565b634e487b7160e01b600052601260045260246000fd5b60409c9b9c5160208101913360601b835242603483015260f81b6054820152603581526120a581613249565b51902060ff8316156120635760ff600191818516900616916120ca611fdd848761408b565b6120e7604051916120da83613249565b600083526020830161395b565b600060408201526120f8828c61408b565b52612103818b61408b565b50600061211561202c85830b9661407b565b520190919b9a9b61177f565b6040516312a441ad60e01b815260206004820152601b60248201527f4e6f7420656e6f75676820706c617965727320746f20737461727400000000006044820152606490fd5b5060048101546001600160a01b0316156114ec565b602001516001600160a01b03163314159050826114c7565b6121ad915060203d60201161066c5761065e818361329c565b8261148c565b3461022657602080600319360112610226576121cd612e14565b600060606040516121dd8161322e565b8281528185820152826040820152015260405190629c95e160e41b825260018060a01b0316908160048201528281602481305afa9081156106735760009161229b575b501561225d576000526002815261224461223e604060002054613490565b50613bb9565b90612259604051928284938452830190613310565b0390f35b604051633bca200b60e21b8152600481018390526015602482015274141b185e595c88191bd95cc81b9bdd08195e1a5cdd605a1b6044820152606490fd5b6122b29150833d851161066c5761065e818361329c565b83612220565b60803660031901126102265760043560ff808216809203610226576024918235908282168092036102265760443592808416809403610226576064359481861680960361022657600a83108061266f575b80612665575b8061265b575b1561022657604051635c12cd4b60e01b81523360048201526000818381305afa801561067357600090612589575b606091500180511561253a5761235e61031460e0925161334f565b018051156124fb5761237361237991516131bc565b5061397e565b604081015180516001600160a01b0390811633036124dc5750508260005b16906002820361248d576123bc61012085920151966123b68789613b97565b51613ba8565b5151160361245a576001604061244c886123b689896124468a8a6123ff876123e8816123b68689613b97565b516123f38888613b97565b51906119338383613ba8565b5061240a8285613b97565b519089519061241882613249565b6015548181168352612432828260081c166020850161395b565b60101c1615158a8201526119338383613ba8565b50613b97565b510152602060405160018152f35b606490600c6040519162461bcd60e51b8352602060048401528201526b496e76616c6964206d6f766560a01b6044820152fd5b60405162461bcd60e51b8152602060048201526022818501527f596f75206861736e2774206265656e206265696e6720696e20616e79206d61746044820152610c6d60f31b6064820152608490fd5b60203392015116146000146124f357826001612397565b826002612397565b60405162461bcd60e51b8152602060048201526018818401527711d85b59481a185cdb89dd081899595b881cdd185c9d195960421b6044820152606490fd5b60405162461bcd60e51b8152602060048201526022818401527f596f75206861736e2774206265656e206265696e6720696e20616e79207461626044820152616c6560f01b6064820152608490fd5b503d806000833e61259a818361329c565b81019060209182828203126102265781516001600160401b039283821161022657019260808483031261022657604051926125d48461322e565b84516001600160a01b03811681036102265784528185015190811161022657840182601f8201121561022657805161260b8161343e565b93612619604051958661329c565b8185528382840101116102265761263591838086019101612e37565b82015260408201518060030b810361022657604082015260609182015181830152612343565b5060098610612315565b506009841061230f565b50600a8510612309565b34610226576020366003190112610226576004356006548110156102265760066000527ff652222313e28459528d920b65115c16c04f3efc82aaedc97be59f3f377c0d3f0154604051908152602090f35b3461022657602036600319011261022657600435600854811015610226576126f4610160916131bc565b5061086081549161276860ff60018301541691600481015462ffffff60058301541660068301549060078401549261274a612739600960ff60088901541697016132bd565b976040519a8b5260208b0190612e2a565b60408901526060880152608087015260a086015260c0850190612fd5565b60e0830190612fe2565b346102265760208060031936011261022657600435606061014060405161279881613212565b600081526000858201526040516127ae816131db565b6040368237604082015260008382015260006080820152600060a0820152600060c0820152600060e08201526040516127e68161322e565b600081526000868201526000604082015260008482015261010082015261280b613906565b6101208201520152806000526009825260406000205415612853576000526009815261283e6123736040600020546131bc565b90612259604051928284938452830190613025565b604051633bca200b60e21b8152600481018390526018602482015277151a19481b585d18da08191bd95cc81b9bdd08195e1a5cdd60421b6044820152606490fd5b34610226576060366003190112610226576001600160401b03600435818111610226576128c5903690600401612fa8565b9190604435801515810361022657604051629c95e160e41b8152336004820152602093908481602481305afa90811561067357600091612a8f575b501561063557336000526002845261291c604060002054613490565b509285151580612a45575b61295c575b50506000805160206144e2833981519152935061294e575b50604051338152a1005b600360243591015582612944565b60019060018501928711610c2b5761297887610e9b855461336e565b600091601f88116001146129ce575095806129b9926000805160206144e2833981519152986000926129c35750508160011b916000199060031b1c19161790565b90555b848061292c565b013590508880610b89565b91601f1988168460005287600020936000905b828210612a2e5750509160019391896000805160206144e28339815191529a9410612a14575b505050811b0190556129bc565b0135600019600384901b60f8161c19169055878080612a07565b8484013586559485019492890192908901906129e1565b506040518581019087838337612a6a87828a810160008382015203808452018261329c565b51902060405186810190612a858161053d8460018b01613810565b5190201415612927565b612aa69150853d871161066c5761065e818361329c565b86612900565b3461022657602036600319011261022657600435612ac98161334f565b50541561059f57612ad98161334f565b5060029160038201916004810160018060a01b038082541615612bf5575b8085541615612bec575b600260ff871614612bb2578085612b5d612b3f7f763c767a5382e600b41ed4384a37ec09f8ca82425090658ecab866f16effc7419961040e996137e8565b81546001600160a01b0360039290921b91821b19163390911b179055565b856003612b6933614056565b01555416159182612ba6575b5050612b95575b5060408051338152602081019290925290918291820190565b600501805460ff1916905583612b7c565b54161590508580612b75565b6040516312a441ad60e01b8152602060048201526011602482015270151a19481d18589b19481a5cc8199d5b1b607a1b6044820152606490fd5b60009550612b01565b60019550612af7565b3461022657600036600319011261022657602060405160008152f35b3461022657600036600319011261022657602060405160018152f35b34610226576020366003190112610226576004356004548110156102265760046000527f8a35acfbc15ff81a39ae7d344fd709f28e8600b4aa8c65c6b64bfe7fe36bd19b0154604051908152602090f35b3461022657602036600319011261022657600435612ca36136d8565b50612cad8161334f565b50541561059f576111b76103146122599261334f565b600036600319011261022657612cd7613ec6565b600180805b612ce257005b60ff81169060148211612d9d57612d9282612cff612d9794613ef2565b6040516020916402937b7b6960dd1b83830152612d3e82602592612d2b81518092888786019101612e37565b810103916005928381018552018361329c565b60405192612d4b846131db565b6000845260008185015260405194612d62866131f6565b85528401526040830152606082015260006080820152600060a0820152600060c0820152600060e08201526136af565b6134af565b81612cdc565b005b34610226576020366003190112610226576001600160a01b03612dc0612e14565b16600052600260205260206040600020541515604051908152f35b3461022657602036600319011261022657602090600435600052600982526040600020548152f35b602036600319011261022657600080fd5b600435906001600160a01b038216820361022657565b906006821015611f405752565b60005b838110612e4a5750506000910152565b8181015183820152602001612e3a565b90602091612e7381518092818552858086019101612e37565b601f01601f1916010190565b6000915b60028310612e9057505050565b81516001600160a01b031681526001929092019160209182019101612e83565b9061010060e0612ee661012085518552612ed260208701516020870190612e2a565b604086015190806040870152850190612e5a565b93612ef960608201516060860190612e7f565b60ff60808201511660a085015260a081015160c085015262ffffff60c08201511682850152015191015290565b600754811015612f4157600760005260206000200190600090565b634e487b7160e01b600052603260045260246000fd5b600654811015612f4157600660005260206000200190600090565b600554811015612f4157600560005260206000200190600090565b600454811015612f4157600460005260206000200190600090565b9181601f84011215610226578235916001600160401b038311610226576020838186019501011161022657565b906003821015611f405752565b60ff81511682526020810151906009821015611f4057606060ff9181936020860152826040820151166040860152015116910152565b906008821015611f405752565b6123809182810190825181526020906130448285015183830190612e2a565b60409061305960408601516040830190612e7f565b606094606081015195608096608084015262ffffff60808301511660a084015260a082015160c084015260c082015160e084015260e08201516130a26101009182860190612fd5565b8201516130b56101209182860190612fe2565b8201516000906101a085015b600a8310613154575050505083916101406123a0920151976123608201528751809652019501936000915b8483106130fc5750505050505090565b909192939495848388518390856000925b6002841061312b5750505092019701959493600101929190506130ec565b8260019496939550518360ff91828151168452015116838201520192019201879285879361310d565b87829a9798999a5182866000915b6009831061318557505050506103606001920192019201919098979695986130c1565b908394918d80600195965160ff81511684526131a78682015187860190613018565b01511515908201520193019101868c93613162565b600854811015612f415760086000526065602060002091020190600090565b604081019081106001600160401b03821117610c2b57604052565b61010081019081106001600160401b03821117610c2b57604052565b61016081019081106001600160401b03821117610c2b57604052565b608081019081106001600160401b03821117610c2b57604052565b606081019081106001600160401b03821117610c2b57604052565b6101e081019081106001600160401b03821117610c2b57604052565b61012081019081106001600160401b03821117610c2b57604052565b90601f801991011681019081106001600160401b03821117610c2b57604052565b906040516132ca8161322e565b80925460ff8116825260ff8160081c166009811015611f405760609160ff916020850152818160101c16604085015260181c16910152565b602036600319011261022657005b9060018060a01b0382511681526060806133396020850151608060208601526080850190612e5a565b93604081015160030b6040850152015191015290565b600354811015612f415760036000526009602060002091020190600090565b90600182811c9216801561339e575b602083101461338857565b634e487b7160e01b600052602260045260246000fd5b91607f169161337d565b8054600093926133b78261336e565b9182825260209360019160018116908160001461341f57506001146133de575b5050505050565b90939495506000929192528360002092846000945b83861061340b575050505001019038808080806133d7565b8054858701830152940193859082016133f3565b60ff19168685015250505090151560051b0101915038808080806133d7565b6001600160401b038111610c2b57601f01601f191660200190565b9291926134658261343e565b91613473604051938461329c565b829481845281830111610226578281602093846000960137010152565b600154811015612f4157600160005260206000209060021b0190600090565b60ff1660ff8114611ae65760010190565b6006821015611f405752565b906006811015611f405760ff80198354169116179055565b8181106134ef575050565b600081556001016134e4565b9190601f811161350a57505050565b613536926000526020600020906020601f840160051c83019310613538575b601f0160051c01906134e4565b565b9091508190613529565b9190611f76578051825560016020808301516006811015611f405761356a90600186016134cc565b6002906002850160408501518051906001600160401b038211610c2b5761359582610e9b855461336e565b8390601f8311600114613648576135c492916000918361363d5750508160011b916000199060031b1c19161790565b90555b60608401519060005b83811061362057505050505060e06008916005840160ff60808301511660ff1982541617905560a081015160068501556007840162ffffff60c08301511662ffffff198254161790550151910155565b82516001600160a01b0316878201600301559181019184016135d0565b015190503880610b89565b90601f1983169184600052856000209260005b878a83831061369b57505050908460019594939210613682575b505050811b0190556135c7565b015160001960f88460031b161c19169055388080613675565b85968293968601518155019501930161365b565b60035490600160401b821015610c2b576136d2826001613536940160035561334f565b90613542565b604051906136e5826131f6565b8160e060009182815282602082015260606040820152604051613707816131db565b604036823760608201528260808201528260a08201528260c08201520152565b906000905b6002821061373957505050565b82546001600160a01b03168152600192830192919091019060200161372c565b90604051613766816131f6565b60e0600882948054845261378460ff600183015416602086016134c0565b6040516137988161139381600286016133a8565b60408501526040516137ad8160038401613727565b6137b6816131db565b606085015260ff6005820154166080850152600681015460a085015262ffffff60078201541660c08501520154910152565b6002821015612f41570190600090565b90816020910312610226575180151581036102265790565b60009291815461381f8161336e565b92600191808316908115613879575060011461383c575b50505050565b9091929394506000526020906020600020906000915b8583106138685750505050019038808080613836565b805485840152918301918101613852565b60ff1916845250505081151590910201915038808080613836565b6000805b61012081106138a657505050565b6020906040838151916138b883613249565b81835281858401528201528185015201613898565b6000805b6101e081106138df57505050565b6020906040838151916138f183613249565b818352818584015282015281850152016138d1565b604090604051610140908181018181106001600160401b03821117610c2b57604052809360005b83811061393a5750505050565b602090825161394881613280565b61395181613894565b818501520161392d565b6008821015611f405752565b6001600160401b038111610c2b5760051b60200190565b9060405161398b81613212565b8092805482526139a560ff600183015416602084016134c0565b6040516139b58160028401613727565b6139be816131db565b60408301526004810154606083015262ffffff6005820154166080830152600681015460a0830152600781015460c083015260ff6008820154166003811015611f405760e0830152613a12600982016132bd565b61010083015260405161014081018181106001600160401b03821117610c2b57604052600a82016000825b600a8210613af6575050509060649161012084015201908154613a5f81613967565b92613a6d604051948561329c565b818452602084019060005260206000206000915b838310613a9357505050506101400152565b604051613a9f816131db565b600083825b60028310613ac5575050506020826002926001945201920192019190613a81565b600160208192604051613ad7816131db565b60ff8654818116835260081c1683820152815201920192019190613aa4565b604051806101208101106001600160401b0361012083011117610c2b576101208101604052600084825b60098310613b41575050506020826009926001945201930191019091613a3d565b600160208192604051613b5381613249565b60ff86548181168352613b6d828260081c1686850161395b565b60101c1615156040820152815201920192019190613b20565b906002811015612f415760051b0190565b90600a811015612f415760051b0190565b906009811015612f415760051b0190565b90604051613bc68161322e565b60606003829460018060a01b038154168452604051613bec8161139381600186016133a8565b60208501526002810154820b60408501520154910152565b516008811015611f405790565b62ffffff9081166000190191908211611ae657565b91909162ffffff80809416911602918216918203611ae657565b91909162ffffff80809416911601918211611ae657565b8051821015612f415760209160051b010190565b929161ffff1692613c7b84613967565b92604091613c8c604051958661329c565b858552601f19613c9b87613967565b0160005b818110613e9e5750506006811015611f40578015613e1a5760028103613dad575060049183955b62ffffff9081613cde82613cd989613c11565b613c26565b1682613d00613cfb84613cf681613cd98c549d613c11565b613c40565b613c11565b16811015613da25783516000806020928381019063f82c50f160e01b8252602486818301528152613d3081613249565b51906a636f6e736f6c652e6c6f675afa5087821015613d965791613cf681613cd9600185613d86818f613d768f613cfb9b613d009d61031492600052600020015461334f565b613d808383613c57565b52613c57565b500194919592848895928f613c11565b50505050509350505090565b505050509350505090565b60038103613dc157506005915b8395613cc6565b60048103613dd25750600691613dba565b600503613de157600791613dba565b6040516312a441ad60e01b815260206004820152601060248201526f496e76616c69642047616d654d6f646560801b6044820152606490fd5b509193905062ffffff80613e3183613cd988613c11565b1691600354925b82613e4a83613cf681613cd98c613c11565b16811015613e9557838114613e955790613cf681613cd9600185613e73610314613e4a9861334f565b613e7d828d613c57565b52613e88818c613c57565b5001935050925050613e38565b50505050915090565b602090613ea96136d8565b82828a01015201613c9f565b60ff166001039060ff8211611ae657565b6000546001600160a01b03163303613eda57565b60405163118cdaa760e01b8152336004820152602490fd5b6000908072184f03e93ff9f4daa797ed6e38ed64bf6a1f0160401b80821015614048575b506d04ee2d6d415b85acef810000000080831015614039575b50662386f26fc100008083101561402a575b506305f5e1008083101561401b575b506127108083101561400c575b506064821015613ffc575b600a80921015613ff2575b6001908160216001860195613f878761343e565b96613f95604051988961329c565b808852613fa4601f199161343e565b01366020890137860101905b613fbc575b5050505090565b600019019083906f181899199a1a9b1b9c1cb0b131b232b360811b8282061a835304918215613fed57919082613fb0565b613fb5565b9160010191613f73565b9190606460029104910191613f68565b60049193920491019138613f5d565b60089193920491019138613f50565b60109193920491019138613f41565b60209193920491019138613f2f565b604093508104915038613f16565b6001600160a01b031660009081526002602052604090205461407790613490565b5090565b60ff168015611ae6576000190190565b90600f811015612f415760051b0190565b600080916040516140ca8161053d602082019463104c13eb60e21b8652602060248401526044830190612e5a565b51906a636f6e736f6c652e6c6f675afa50565b600354801561417e57600019016140f38161334f565b611f765760086000918281558260018201558260028201614114815461336e565b80614141575b50506005820161412d81600385016134e4565b558260068201558260078201550155600355565b82601f8211600114614159575050555b82388061411a565b9091808252614177601f60208420940160051c8401600185016134e4565b5555614151565b634e487b7160e01b600052603160045260246000fd5b6141a06103148261334f565b6060810160005b60ff8116600181116142ac5782516141de92916001600160a01b039182906141d0908390613b86565b51166141e3575b50506134af565b6141a7565b6142a0614223826104888560008a61420d6142a599614206600397889451613b86565b5116614056565b015561420661421b87613ef2565b968b51613b86565b9160405180936020927001434b7103637b7b81490283630bcb2b91607d1b84840152770103430b9903a30b13632a4b21031b430b733b2b2103a37960451b60319161427681518092888689019101612e37565b84019182015261429160499483519384918785019101612e37565b0103602981018452018261329c565b61409c565b38806141d7565b50505060200180519060069182811015611f40576002036143ea575050600454801561417e57600019016142f36142e282612f8d565b8154906000199060031b1b19169055565b6004555b600354600019810191908211611ae657614333604051614316816131db565b600b81526a4d6f73746c7920646f6e6560a81b602082015261409c565b8082146143ba57818160409260036143a560606143736103147f9003df9102c82cb1355f80d0db09c128787aa2adde042a70815408301544fb419961334f565b614380816136d28761334f565b01602060018060a01b0391858561439a8584515116614056565b015551015116614056565b015582519182526020820152a16135366140dd565b50506143c46140dd565b6135366040516143d3816131db565b6005815264446f6e652160d81b602082015261409c565b805182811015611f405760030361441f575050600554801561417e57600019016144166142e282612f72565b6005555b6142f7565b805182811015611f405760040361445057508054801561417e57600019019061444a6142e283612f57565b556142f7565b5190811015611f405760050361441a57600754801561417e57600019016144796142e282612f26565b6007556142f756fe5ef14ac0341ddf16cc13a71f61852b0e40afdb913b241e2b2b50b8e0876192821496c7288501eeeb4145c783b323b4a2b8bc56489dbd541da962d1b03447d41a5b5f696e6974426f6172645d2041737369676e65642070696563657320746f20040b6e4d98acb52cfb61a8beb8587bf37d362f8afc07142f5211d2c386f09f2da2646970667358221220cdb2b5fd6306e2a081072d3fd434d3dcfac5f4dd9db1cb0ec39c4ed03472220564736f6c63430008160033",
  "linkReferences": {},
  "deployedLinkReferences": {}
}