{
  "_format": "hh-sol-artifact-1",
  "contractName": "MysteryChineseChess",
  "sourceName": "contracts/MysteryChineseChess.sol",
  "abi": [
    {
      "inputs": [],
      "stateMutability": "payable",
      "type": "constructor"
    },
    {
      "inputs": [
        {
          "internalType": "string",
          "name": "message",
          "type": "string"
        }
      ],
      "name": "InvalidAction",
      "type": "error"
    },
    {
      "inputs": [
        {
          "internalType": "address",
          "name": "owner",
          "type": "address"
        }
      ],
      "name": "OwnableInvalidOwner",
      "type": "error"
    },
    {
      "inputs": [
        {
          "internalType": "address",
          "name": "account",
          "type": "address"
        }
      ],
      "name": "OwnableUnauthorizedAccount",
      "type": "error"
    },
    {
      "inputs": [
        {
          "internalType": "string",
          "name": "message",
          "type": "string"
        }
      ],
      "name": "ResourceNotFound",
      "type": "error"
    },
    {
      "inputs": [],
      "name": "Unauthorized",
      "type": "error"
    },
    {
      "anonymous": false,
      "inputs": [
        {
          "indexed": false,
          "internalType": "uint256",
          "name": "matchId",
          "type": "uint256"
        },
        {
          "components": [
            {
              "internalType": "uint8",
              "name": "winnerIndex",
              "type": "uint8"
            },
            {
              "internalType": "enum MysteryChineseChess.MatchResultType",
              "name": "resultType",
              "type": "uint8"
            },
            {
              "internalType": "uint8",
              "name": "increasingElo",
              "type": "uint8"
            },
            {
              "internalType": "uint8",
              "name": "decreasingElo",
              "type": "uint8"
            }
          ],
          "indexed": false,
          "internalType": "struct MysteryChineseChess.MatchResult",
          "name": "matchResult",
          "type": "tuple"
        },
        {
          "indexed": false,
          "internalType": "address",
          "name": "winner",
          "type": "address"
        },
        {
          "indexed": false,
          "internalType": "address",
          "name": "loser",
          "type": "address"
        }
      ],
      "name": "MatchEnded",
      "type": "event"
    },
    {
      "anonymous": false,
      "inputs": [
        {
          "indexed": false,
          "internalType": "string",
          "name": "gameName",
          "type": "string"
        },
        {
          "indexed": false,
          "internalType": "address",
          "name": "player1",
          "type": "address"
        },
        {
          "indexed": false,
          "internalType": "address",
          "name": "player2",
          "type": "address"
        }
      ],
      "name": "NewGameStarted",
      "type": "event"
    },
    {
      "anonymous": false,
      "inputs": [
        {
          "components": [
            {
              "internalType": "address",
              "name": "playerAddress",
              "type": "address"
            },
            {
              "internalType": "string",
              "name": "playerName",
              "type": "string"
            },
            {
              "internalType": "uint32",
              "name": "elo",
              "type": "uint32"
            },
            {
              "internalType": "uint256",
              "name": "tableId",
              "type": "uint256"
            }
          ],
          "indexed": false,
          "internalType": "struct MysteryChineseChess.Player",
          "name": "player",
          "type": "tuple"
        }
      ],
      "name": "NewPlayer",
      "type": "event"
    },
    {
      "anonymous": false,
      "inputs": [
        {
          "indexed": false,
          "internalType": "uint256",
          "name": "id",
          "type": "uint256"
        },
        {
          "indexed": false,
          "internalType": "string",
          "name": "name",
          "type": "string"
        },
        {
          "indexed": false,
          "internalType": "address",
          "name": "hostAddress",
          "type": "address"
        }
      ],
      "name": "NewTableCreated",
      "type": "event"
    },
    {
      "anonymous": false,
      "inputs": [
        {
          "indexed": true,
          "internalType": "address",
          "name": "previousOwner",
          "type": "address"
        },
        {
          "indexed": true,
          "internalType": "address",
          "name": "newOwner",
          "type": "address"
        }
      ],
      "name": "OwnershipTransferred",
      "type": "event"
    },
    {
      "inputs": [],
      "name": "BLACK",
      "outputs": [
        {
          "internalType": "uint8",
          "name": "",
          "type": "uint8"
        }
      ],
      "stateMutability": "view",
      "type": "function"
    },
    {
      "inputs": [],
      "name": "MAX_GAME_DURATION",
      "outputs": [
        {
          "internalType": "uint24",
          "name": "",
          "type": "uint24"
        }
      ],
      "stateMutability": "view",
      "type": "function"
    },
    {
      "inputs": [],
      "name": "RED",
      "outputs": [
        {
          "internalType": "uint8",
          "name": "",
          "type": "uint8"
        }
      ],
      "stateMutability": "view",
      "type": "function"
    },
    {
      "inputs": [
        {
          "internalType": "enum MysteryChineseChess.GameMode",
          "name": "gameMode",
          "type": "uint8"
        },
        {
          "internalType": "string",
          "name": "name",
          "type": "string"
        },
        {
          "internalType": "uint256",
          "name": "stake",
          "type": "uint256"
        }
      ],
      "name": "createTable",
      "outputs": [],
      "stateMutability": "nonpayable",
      "type": "function"
    },
    {
      "inputs": [
        {
          "internalType": "uint256",
          "name": "tableId",
          "type": "uint256"
        }
      ],
      "name": "exitTable",
      "outputs": [],
      "stateMutability": "nonpayable",
      "type": "function"
    },
    {
      "inputs": [],
      "name": "getAllMatches",
      "outputs": [
        {
          "components": [
            {
              "internalType": "uint256",
              "name": "id",
              "type": "uint256"
            },
            {
              "internalType": "enum MysteryChineseChess.GameMode",
              "name": "gameMode",
              "type": "uint8"
            },
            {
              "internalType": "address[2]",
              "name": "players",
              "type": "address[2]"
            },
            {
              "internalType": "uint256",
              "name": "stake",
              "type": "uint256"
            },
            {
              "internalType": "uint24",
              "name": "timeControl",
              "type": "uint24"
            },
            {
              "internalType": "uint256",
              "name": "startTimestamp",
              "type": "uint256"
            },
            {
              "internalType": "uint256",
              "name": "endTimestamp",
              "type": "uint256"
            },
            {
              "internalType": "enum MysteryChineseChess.MatchStatus",
              "name": "gameStatus",
              "type": "uint8"
            },
            {
              "components": [
                {
                  "internalType": "uint8",
                  "name": "winnerIndex",
                  "type": "uint8"
                },
                {
                  "internalType": "enum MysteryChineseChess.MatchResultType",
                  "name": "resultType",
                  "type": "uint8"
                },
                {
                  "internalType": "uint8",
                  "name": "increasingElo",
                  "type": "uint8"
                },
                {
                  "internalType": "uint8",
                  "name": "decreasingElo",
                  "type": "uint8"
                }
              ],
              "internalType": "struct MysteryChineseChess.MatchResult",
              "name": "matchResult",
              "type": "tuple"
            },
            {
              "components": [
                {
                  "internalType": "uint8",
                  "name": "color",
                  "type": "uint8"
                },
                {
                  "internalType": "enum MysteryChineseChess.Piece",
                  "name": "piece",
                  "type": "uint8"
                },
                {
                  "internalType": "bool",
                  "name": "unfolded",
                  "type": "bool"
                }
              ],
              "internalType": "struct MysteryChineseChess.PlayerPiece[9][10]",
              "name": "board",
              "type": "tuple[9][10]"
            },
            {
              "components": [
                {
                  "internalType": "uint8",
                  "name": "row",
                  "type": "uint8"
                },
                {
                  "internalType": "uint8",
                  "name": "column",
                  "type": "uint8"
                }
              ],
              "internalType": "struct MysteryChineseChess.Position[2][]",
              "name": "steps",
              "type": "tuple[2][]"
            }
          ],
          "internalType": "struct MysteryChineseChess.Match[]",
          "name": "",
          "type": "tuple[]"
        }
      ],
      "stateMutability": "view",
      "type": "function"
    },
    {
      "inputs": [],
      "name": "getAllPlayers",
      "outputs": [
        {
          "components": [
            {
              "internalType": "address",
              "name": "playerAddress",
              "type": "address"
            },
            {
              "internalType": "string",
              "name": "playerName",
              "type": "string"
            },
            {
              "internalType": "uint32",
              "name": "elo",
              "type": "uint32"
            },
            {
              "internalType": "uint256",
              "name": "tableId",
              "type": "uint256"
            }
          ],
          "internalType": "struct MysteryChineseChess.Player[]",
          "name": "",
          "type": "tuple[]"
        }
      ],
      "stateMutability": "view",
      "type": "function"
    },
    {
      "inputs": [
        {
          "internalType": "enum MysteryChineseChess.GameMode",
          "name": "gameMode",
          "type": "uint8"
        },
        {
          "internalType": "uint24",
          "name": "page",
          "type": "uint24"
        },
        {
          "internalType": "uint16",
          "name": "size",
          "type": "uint16"
        }
      ],
      "name": "getAllTables",
      "outputs": [
        {
          "components": [
            {
              "internalType": "uint256",
              "name": "id",
              "type": "uint256"
            },
            {
              "internalType": "enum MysteryChineseChess.GameMode",
              "name": "gameMode",
              "type": "uint8"
            },
            {
              "internalType": "string",
              "name": "name",
              "type": "string"
            },
            {
              "internalType": "address[2]",
              "name": "players",
              "type": "address[2]"
            },
            {
              "internalType": "uint8",
              "name": "hostIndex",
              "type": "uint8"
            },
            {
              "internalType": "uint256",
              "name": "stake",
              "type": "uint256"
            },
            {
              "internalType": "uint24",
              "name": "timeControl",
              "type": "uint24"
            },
            {
              "internalType": "uint256",
              "name": "matchId",
              "type": "uint256"
            }
          ],
          "internalType": "struct MysteryChineseChess.Table[]",
          "name": "",
          "type": "tuple[]"
        }
      ],
      "stateMutability": "view",
      "type": "function"
    },
    {
      "inputs": [
        {
          "internalType": "uint256",
          "name": "id",
          "type": "uint256"
        }
      ],
      "name": "getMatch",
      "outputs": [
        {
          "components": [
            {
              "internalType": "uint256",
              "name": "id",
              "type": "uint256"
            },
            {
              "internalType": "enum MysteryChineseChess.GameMode",
              "name": "gameMode",
              "type": "uint8"
            },
            {
              "internalType": "address[2]",
              "name": "players",
              "type": "address[2]"
            },
            {
              "internalType": "uint256",
              "name": "stake",
              "type": "uint256"
            },
            {
              "internalType": "uint24",
              "name": "timeControl",
              "type": "uint24"
            },
            {
              "internalType": "uint256",
              "name": "startTimestamp",
              "type": "uint256"
            },
            {
              "internalType": "uint256",
              "name": "endTimestamp",
              "type": "uint256"
            },
            {
              "internalType": "enum MysteryChineseChess.MatchStatus",
              "name": "gameStatus",
              "type": "uint8"
            },
            {
              "components": [
                {
                  "internalType": "uint8",
                  "name": "winnerIndex",
                  "type": "uint8"
                },
                {
                  "internalType": "enum MysteryChineseChess.MatchResultType",
                  "name": "resultType",
                  "type": "uint8"
                },
                {
                  "internalType": "uint8",
                  "name": "increasingElo",
                  "type": "uint8"
                },
                {
                  "internalType": "uint8",
                  "name": "decreasingElo",
                  "type": "uint8"
                }
              ],
              "internalType": "struct MysteryChineseChess.MatchResult",
              "name": "matchResult",
              "type": "tuple"
            },
            {
              "components": [
                {
                  "internalType": "uint8",
                  "name": "color",
                  "type": "uint8"
                },
                {
                  "internalType": "enum MysteryChineseChess.Piece",
                  "name": "piece",
                  "type": "uint8"
                },
                {
                  "internalType": "bool",
                  "name": "unfolded",
                  "type": "bool"
                }
              ],
              "internalType": "struct MysteryChineseChess.PlayerPiece[9][10]",
              "name": "board",
              "type": "tuple[9][10]"
            },
            {
              "components": [
                {
                  "internalType": "uint8",
                  "name": "row",
                  "type": "uint8"
                },
                {
                  "internalType": "uint8",
                  "name": "column",
                  "type": "uint8"
                }
              ],
              "internalType": "struct MysteryChineseChess.Position[2][]",
              "name": "steps",
              "type": "tuple[2][]"
            }
          ],
          "internalType": "struct MysteryChineseChess.Match",
          "name": "",
          "type": "tuple"
        }
      ],
      "stateMutability": "view",
      "type": "function"
    },
    {
      "inputs": [
        {
          "internalType": "address",
          "name": "_addr",
          "type": "address"
        }
      ],
      "name": "getPlayer",
      "outputs": [
        {
          "components": [
            {
              "internalType": "address",
              "name": "playerAddress",
              "type": "address"
            },
            {
              "internalType": "string",
              "name": "playerName",
              "type": "string"
            },
            {
              "internalType": "uint32",
              "name": "elo",
              "type": "uint32"
            },
            {
              "internalType": "uint256",
              "name": "tableId",
              "type": "uint256"
            }
          ],
          "internalType": "struct MysteryChineseChess.Player",
          "name": "",
          "type": "tuple"
        }
      ],
      "stateMutability": "view",
      "type": "function"
    },
    {
      "inputs": [
        {
          "internalType": "uint256",
          "name": "id",
          "type": "uint256"
        }
      ],
      "name": "getTable",
      "outputs": [
        {
          "components": [
            {
              "internalType": "uint256",
              "name": "id",
              "type": "uint256"
            },
            {
              "internalType": "enum MysteryChineseChess.GameMode",
              "name": "gameMode",
              "type": "uint8"
            },
            {
              "internalType": "string",
              "name": "name",
              "type": "string"
            },
            {
              "internalType": "address[2]",
              "name": "players",
              "type": "address[2]"
            },
            {
              "internalType": "uint8",
              "name": "hostIndex",
              "type": "uint8"
            },
            {
              "internalType": "uint256",
              "name": "stake",
              "type": "uint256"
            },
            {
              "internalType": "uint24",
              "name": "timeControl",
              "type": "uint24"
            },
            {
              "internalType": "uint256",
              "name": "matchId",
              "type": "uint256"
            }
          ],
          "internalType": "struct MysteryChineseChess.Table",
          "name": "",
          "type": "tuple"
        }
      ],
      "stateMutability": "view",
      "type": "function"
    },
    {
      "inputs": [],
      "name": "initializeTables",
      "outputs": [],
      "stateMutability": "payable",
      "type": "function"
    },
    {
      "inputs": [
        {
          "internalType": "address",
          "name": "_addr",
          "type": "address"
        }
      ],
      "name": "isPlayer",
      "outputs": [
        {
          "internalType": "bool",
          "name": "",
          "type": "bool"
        }
      ],
      "stateMutability": "view",
      "type": "function"
    },
    {
      "inputs": [
        {
          "internalType": "uint256",
          "name": "tableId",
          "type": "uint256"
        }
      ],
      "name": "joinTable",
      "outputs": [],
      "stateMutability": "nonpayable",
      "type": "function"
    },
    {
      "inputs": [
        {
          "internalType": "uint256",
          "name": "",
          "type": "uint256"
        }
      ],
      "name": "matches",
      "outputs": [
        {
          "internalType": "uint256",
          "name": "id",
          "type": "uint256"
        },
        {
          "internalType": "enum MysteryChineseChess.GameMode",
          "name": "gameMode",
          "type": "uint8"
        },
        {
          "internalType": "uint256",
          "name": "stake",
          "type": "uint256"
        },
        {
          "internalType": "uint24",
          "name": "timeControl",
          "type": "uint24"
        },
        {
          "internalType": "uint256",
          "name": "startTimestamp",
          "type": "uint256"
        },
        {
          "internalType": "uint256",
          "name": "endTimestamp",
          "type": "uint256"
        },
        {
          "internalType": "enum MysteryChineseChess.MatchStatus",
          "name": "gameStatus",
          "type": "uint8"
        },
        {
          "components": [
            {
              "internalType": "uint8",
              "name": "winnerIndex",
              "type": "uint8"
            },
            {
              "internalType": "enum MysteryChineseChess.MatchResultType",
              "name": "resultType",
              "type": "uint8"
            },
            {
              "internalType": "uint8",
              "name": "increasingElo",
              "type": "uint8"
            },
            {
              "internalType": "uint8",
              "name": "decreasingElo",
              "type": "uint8"
            }
          ],
          "internalType": "struct MysteryChineseChess.MatchResult",
          "name": "matchResult",
          "type": "tuple"
        }
      ],
      "stateMutability": "view",
      "type": "function"
    },
    {
      "inputs": [
        {
          "internalType": "uint8",
          "name": "sourceRow",
          "type": "uint8"
        },
        {
          "internalType": "uint8",
          "name": "sourceCol",
          "type": "uint8"
        },
        {
          "internalType": "uint8",
          "name": "destRow",
          "type": "uint8"
        },
        {
          "internalType": "uint8",
          "name": "destCol",
          "type": "uint8"
        }
      ],
      "name": "move",
      "outputs": [
        {
          "internalType": "bool",
          "name": "",
          "type": "bool"
        }
      ],
      "stateMutability": "payable",
      "type": "function"
    },
    {
      "inputs": [
        {
          "internalType": "uint256",
          "name": "matchId",
          "type": "uint256"
        }
      ],
      "name": "offerDraw",
      "outputs": [],
      "stateMutability": "payable",
      "type": "function"
    },
    {
      "inputs": [
        {
          "internalType": "uint256",
          "name": "",
          "type": "uint256"
        },
        {
          "internalType": "uint256",
          "name": "",
          "type": "uint256"
        }
      ],
      "name": "originalPieces",
      "outputs": [
        {
          "internalType": "enum MysteryChineseChess.Piece",
          "name": "",
          "type": "uint8"
        }
      ],
      "stateMutability": "view",
      "type": "function"
    },
    {
      "inputs": [],
      "name": "owner",
      "outputs": [
        {
          "internalType": "address",
          "name": "",
          "type": "address"
        }
      ],
      "stateMutability": "view",
      "type": "function"
    },
    {
      "inputs": [
        {
          "internalType": "address",
          "name": "",
          "type": "address"
        }
      ],
      "name": "playerIndexes",
      "outputs": [
        {
          "internalType": "uint256",
          "name": "",
          "type": "uint256"
        }
      ],
      "stateMutability": "view",
      "type": "function"
    },
    {
      "inputs": [
        {
          "internalType": "uint256",
          "name": "",
          "type": "uint256"
        }
      ],
      "name": "players",
      "outputs": [
        {
          "internalType": "address",
          "name": "playerAddress",
          "type": "address"
        },
        {
          "internalType": "string",
          "name": "playerName",
          "type": "string"
        },
        {
          "internalType": "uint32",
          "name": "elo",
          "type": "uint32"
        },
        {
          "internalType": "uint256",
          "name": "tableId",
          "type": "uint256"
        }
      ],
      "stateMutability": "view",
      "type": "function"
    },
    {
      "inputs": [
        {
          "internalType": "string",
          "name": "_name",
          "type": "string"
        }
      ],
      "name": "registerPlayer",
      "outputs": [
        {
          "components": [
            {
              "internalType": "address",
              "name": "playerAddress",
              "type": "address"
            },
            {
              "internalType": "string",
              "name": "playerName",
              "type": "string"
            },
            {
              "internalType": "uint32",
              "name": "elo",
              "type": "uint32"
            },
            {
              "internalType": "uint256",
              "name": "tableId",
              "type": "uint256"
            }
          ],
          "internalType": "struct MysteryChineseChess.Player",
          "name": "_player",
          "type": "tuple"
        }
      ],
      "stateMutability": "payable",
      "type": "function"
    },
    {
      "inputs": [],
      "name": "renounceOwnership",
      "outputs": [],
      "stateMutability": "nonpayable",
      "type": "function"
    },
    {
      "inputs": [
        {
          "internalType": "uint256",
          "name": "matchId",
          "type": "uint256"
        }
      ],
      "name": "resign",
      "outputs": [],
      "stateMutability": "payable",
      "type": "function"
    },
    {
      "inputs": [
        {
          "internalType": "uint256",
          "name": "tableId",
          "type": "uint256"
        }
      ],
      "name": "startNewMatch",
      "outputs": [
        {
          "components": [
            {
              "internalType": "uint256",
              "name": "id",
              "type": "uint256"
            },
            {
              "internalType": "enum MysteryChineseChess.GameMode",
              "name": "gameMode",
              "type": "uint8"
            },
            {
              "internalType": "address[2]",
              "name": "players",
              "type": "address[2]"
            },
            {
              "internalType": "uint256",
              "name": "stake",
              "type": "uint256"
            },
            {
              "internalType": "uint24",
              "name": "timeControl",
              "type": "uint24"
            },
            {
              "internalType": "uint256",
              "name": "startTimestamp",
              "type": "uint256"
            },
            {
              "internalType": "uint256",
              "name": "endTimestamp",
              "type": "uint256"
            },
            {
              "internalType": "enum MysteryChineseChess.MatchStatus",
              "name": "gameStatus",
              "type": "uint8"
            },
            {
              "components": [
                {
                  "internalType": "uint8",
                  "name": "winnerIndex",
                  "type": "uint8"
                },
                {
                  "internalType": "enum MysteryChineseChess.MatchResultType",
                  "name": "resultType",
                  "type": "uint8"
                },
                {
                  "internalType": "uint8",
                  "name": "increasingElo",
                  "type": "uint8"
                },
                {
                  "internalType": "uint8",
                  "name": "decreasingElo",
                  "type": "uint8"
                }
              ],
              "internalType": "struct MysteryChineseChess.MatchResult",
              "name": "matchResult",
              "type": "tuple"
            },
            {
              "components": [
                {
                  "internalType": "uint8",
                  "name": "color",
                  "type": "uint8"
                },
                {
                  "internalType": "enum MysteryChineseChess.Piece",
                  "name": "piece",
                  "type": "uint8"
                },
                {
                  "internalType": "bool",
                  "name": "unfolded",
                  "type": "bool"
                }
              ],
              "internalType": "struct MysteryChineseChess.PlayerPiece[9][10]",
              "name": "board",
              "type": "tuple[9][10]"
            },
            {
              "components": [
                {
                  "internalType": "uint8",
                  "name": "row",
                  "type": "uint8"
                },
                {
                  "internalType": "uint8",
                  "name": "column",
                  "type": "uint8"
                }
              ],
              "internalType": "struct MysteryChineseChess.Position[2][]",
              "name": "steps",
              "type": "tuple[2][]"
            }
          ],
          "internalType": "struct MysteryChineseChess.Match",
          "name": "newMatch",
          "type": "tuple"
        }
      ],
      "stateMutability": "payable",
      "type": "function"
    },
    {
      "inputs": [
        {
          "internalType": "uint256",
          "name": "",
          "type": "uint256"
        }
      ],
      "name": "tables",
      "outputs": [
        {
          "internalType": "uint256",
          "name": "id",
          "type": "uint256"
        },
        {
          "internalType": "enum MysteryChineseChess.GameMode",
          "name": "gameMode",
          "type": "uint8"
        },
        {
          "internalType": "string",
          "name": "name",
          "type": "string"
        },
        {
          "internalType": "uint8",
          "name": "hostIndex",
          "type": "uint8"
        },
        {
          "internalType": "uint256",
          "name": "stake",
          "type": "uint256"
        },
        {
          "internalType": "uint24",
          "name": "timeControl",
          "type": "uint24"
        },
        {
          "internalType": "uint256",
          "name": "matchId",
          "type": "uint256"
        }
      ],
      "stateMutability": "view",
      "type": "function"
    },
    {
      "inputs": [
        {
          "internalType": "address",
          "name": "newOwner",
          "type": "address"
        }
      ],
      "name": "transferOwnership",
      "outputs": [],
      "stateMutability": "nonpayable",
      "type": "function"
    },
    {
      "inputs": [
        {
          "internalType": "enum MysteryChineseChess.GameMode",
          "name": "",
          "type": "uint8"
        },
        {
          "internalType": "uint256",
          "name": "",
          "type": "uint256"
        }
      ],
      "name": "typeTableMapping",
      "outputs": [
        {
          "internalType": "uint256",
          "name": "",
          "type": "uint256"
        }
      ],
      "stateMutability": "view",
      "type": "function"
    },
    {
      "inputs": [
        {
          "internalType": "uint256",
          "name": "matchId",
          "type": "uint256"
        }
      ],
      "name": "verifyCheckmate",
      "outputs": [],
      "stateMutability": "payable",
      "type": "function"
    }
  ],
  "bytecode": "0x608080604052331562000bba5760008054336001600160a01b0319821681178355916001600160a01b03909116907f8be0079c531659141344cd1fd0a4f28419497f9722a3daafe3b4186f6b6457e09080a3600160406200005f62000bd0565b600281526000602082015201526011805462ffffff19166201000217905560405161014081016001600160401b038111828210176200087a5760405260005b610140811062000b515750620000b362000bf0565b60008152620000c162000c30565b600081526020820152600060408201526000606082015260015490680100000000000000008210156200087a576001820180600155821015620009445760016000528051600283901b7fb10e2d527612073b26eecdfd717e6a320cf44b4afac2b0732d9fcbe2b7fa0cf690810180546001600160a01b0319166001600160a01b03939093169290921790915560208201518051919291906001600160401b0382116200087a5760018560021b85010154600181811c9116801562000b46575b602082101462000a5757601f811162000b08575b50602090601f831160011462000a84579180600395949260609460009262000a78575b50508160011b9160001990871b1c19161760018660021b850101555b600285811b84010163ffffffff60408301511663ffffffff1982541617905501519260021b0101556200020562000c10565b60008082526020820152604051906001600160401b036101008301908111908311176200087a57610100820160405260008252600060208301526200024962000c30565b600081526040830152606082015260006080820152600060a0820152600060c0820152600060e082015260035490680100000000000000008210156200087a57600182018060035582101562000944576003600052602060002090805160098402830155602081015160048110156200090857620002d09060016009860285010162000c69565b60408101518051906001600160401b0382116200087a576002600986028501015490600182811c9216801562000a6d575b602083101462000a575781601f84931162000a0d575b50602090601f83116001146200098c5760009262000980575b50508160011b916000199060031b1c191617600260098502840101555b606081015160005b600281106200095a575050608081015160099390930290910160058101805460ff191660ff949094169390931790925560a0810151600683015560c081015160078301805462ffffff191662ffffff9290921691909117905560e0015160089190910155620003c362000c10565b906000825260006020830152620003d962000bf0565b60008152600060208201526000604082015260006060820152604051928361016081011060018060401b03610160860111176200087a576101608401604052600084526000602085015260408401526000606084015260006080840152600060a0840152600060c0840152600260e08401526101008301526101208201526060610140820152600554680100000000000000008110156200087a57600181018060055581101562000944576005600052602060002090825160658202830155602083015160048110156200090857620004bb9060016065840285010162000c69565b604083015160005b600281106200091e57505060608301516065820283016004810191909155608084015160058201805462ffffff191662ffffff9290921691909117905560a0840151600682015560c084015160079091015560e0830151600381101562000908576008606583028401908101805460ff191660ff93841617905561010085015180516009928301546020830151949293919092169190841015620009085762ff00009161ff0063ff0000006060604087015196015160181b169560081b169163ffffffff191617179160101b16171760096065830284010155610120830151600a606583028401016000915b600a831062000890576101408601518051606586028701606401916801000000000000000082116200087a5782548284558083106200080c575b50602001916000526020600020916000905b828210620007b457604051604160f81b815260066001820152602180912060ff19815416905580604051602160f91b81526006600182015220600160ff1982541617905580604051604360f81b81526006600182015220600260ff1982541617905580604051601160fa1b81526006600182015220600360ff1982541617905580604051604560f81b81526006600182015220600460ff1982541617905580604051602360f91b81526006600182015220600560ff1982541617905580604051604760f81b81526006600182015220600660ff1982541617905580604051600960fb1b81526006600182015220600760ff1982541617905580604051604960f81b81526006600182015220600860ff19825416179055604051602560f91b81526006600182015220600960ff198254161790556007546010549068050403020002030405918268ffffffff00ffffffff1980931617600755161760105567060000000000060067ff0000000000ff001981816009541617600955600e541617600e556807000700070007000768ff00ff00ff00ff00ff198181600a541617600a55600d541617600d55604051613854908162000c838239f35b8051846000915b60028310620007db575050506002602060019201940191019092620005fb565b600160208282935160ff81511661ff0084885493015160081b169161ffff19161717855501920192019190620007bb565b6001600160ff1b03818116820362000864578316830362000864578360005260206000209060011b8101908360011b015b8181106200084c5750620005e9565b806200085d60028093018262000c50565b016200083d565b634e487b7160e01b600052601160045260246000fd5b634e487b7160e01b600052604160045260246000fd5b8051826000915b60098310620008b7575050506009602060019201920192019190620005af565b805160ff81511690835492602082015160088110156200090857600194859461ff0062ff000060406020970151151560101b169360081b169162ffffff191617171785550192019201919062000897565b634e487b7160e01b600052602160045260246000fd5b81516001600160a01b0316600260658502860183010155602090910190600101620004c3565b634e487b7160e01b600052603260045260246000fd5b81516001600160a01b031660036009870286018301015560209091019060010162000355565b01519050868062000330565b92506002600987028601016000526020600020906000935b601f1984168510620009f1576001945083601f19811610620009d7575b505050811b01600260098502840101556200034d565b015160001960f88460031b161c19169055868080620009c1565b81810151835560209485019460019093019290910190620009a4565b62000a45906002600989028801016000526020600020601f850160051c8101916020861062000a4c575b601f0160051c019062000c50565b8762000317565b909150819062000a37565b634e487b7160e01b600052602260045260246000fd5b91607f169162000301565b015190508880620001b7565b9060018660021b86010160005260206000209160005b601f198516811062000aef575092600395949260019260609583601f1981161062000ad6575b505050811b0160018660021b85010155620001d3565b015160001983891b60f8161c1916905588808062000ac0565b9192602060018192868501518155019401920162000a9a565b62000b3f9060018760021b8701016000526020600020601f850160051c8101916020861062000a4c57601f0160051c019062000c50565b8662000194565b90607f169062000180565b6040516101208082016001600160401b038111838210176200087a5760405260005b81811062000b8a575050828201526020016200009e565b90602080959262000b9a62000bd0565b600081526000838201526000604082015281860152019091945062000b73565b631e4fbdf760e01b815260006004820152602490fd5b60405190606082016001600160401b038111838210176200087a57604052565b60405190608082016001600160401b038111838210176200087a57604052565b60408051919082016001600160401b038111838210176200087a57604052565b60405190602082016001600160401b038111838210176200087a57604052565b81811062000c5c575050565b6000815560010162000c50565b906004811015620009085760ff8019835416911617905556fe61010080604052600436101561001457600080fd5b60003560e01c90816308d9801c1461276357816309c95e101461272657508063115577bc14612518578063195e251f146124c8578063225b031d146124ac57806336d18b67146124905780633823bb03146120c95780633d092b3d146120385780634768d4ef14611f905780634e02a71514610ec7578063559028fc14611c805780635c12cd4b14611b925780636f86c80614610fc4578063715018a614610f6b57806371671bf214610ecc57806384ff731c14610ec75780638bb8a04614610e7b5780638da5cb5b14610e525780639162879514610e145780639bfb297814610d01578063b3446f85146109fd578063c17c5a4514610914578063d2ccd0571461086c578063e1e20c201461081c578063ee1f63d8146107fe578063efa1c4821461072b578063f1819eb914610267578063f2fde38b146101df5763f71d96cb1461015f57600080fd5b346101da5760203660031901126101da576004356001548110156101da5761018690612d84565b5080546001600160a01b031661019e60018301612c5c565b91600363ffffffff6002830154169101546101cb60405194859485526080602086015260808501906127a4565b91604084015260608301520390f35b600080fd5b346101da5760203660031901126101da576004356001600160a01b03818116918290036101da5761020e6137e1565b811561024e576000548260018060a01b0319821617600055167f8be0079c531659141344cd1fd0a4f28419497f9722a3daafe3b4186f6b6457e0600080a3005b604051631e4fbdf760e01b815260006004820152602490fd5b346101da576020806003193601126101da5760043560405190629c95e160e41b825233600483015260249183818481305afa90811561049e576000916106fe575b50156106ed576102b781612c03565b50541561065b576102d6926102cb82612c03565b506060948591613070565b015160018060a01b039081838183511633141592836106dd575b50505061069b578461030a61030485612c03565b50613070565b019233828551511614600014610693576000925b610327846137d0565b95604051635c12cd4b60e01b908181523360048201526000818481305afa90811561049e576000918b918391610679575b50015286519360ff938661037060ff8c1680986130ea565b5116156103d35750505050506103a19550600181146103a3575b50505061039a60ff9151926137d0565b16906130ea565b005b8394506103b5906103c49394516130ea565b51169160ff84519116906130ea565b5260009061039a60ff8561038a565b9398509350945094506103e582612c03565b50541561065b576103f861030483612c03565b870160005b878116600181116104aa57610414869184516130ea565b5116610429575b61042490612da3565b6103fd565b8461043385612c03565b506104428360038093016130fb565b9054911b1c16906040519187835260048301526000828981305afa801561049e578a60009161042494839161047c575b500152905061041b565b61049891503d8085833e6104908183612b4d565b81019061310b565b8d610472565b6040513d6000823e3d90fd5b5050509591939450916003549360001994858101908111610646576104d26103048592612c03565b6104e5816104df88612c03565b90612def565b018181515116906040519184835260048301526000828981305afa801561049e578587918b9460009161062b575b5001525101511660405191825260048201526000818681305afa90811561049e57600091610610575b50015260035480156105fb57019161055383612c03565b9290926105e75750816008916000809455836001830155600282016105788154612c22565b806105aa575b50505082600582016105938160038501612dd8565b558260068201558260078201550155600355600080f35b8592601f82116001146105c3575050555b84808061057e565b82845283209183916105e090601f0160051c840160018501612dd8565b55556105bb565b634e487b7160e01b60005260006004526000fd5b82634e487b7160e01b60005260316004526000fd5b61062591503d806000833e6104908183612b4d565b8661053c565b61064091503d806000833e6104908183612b4d565b8c610513565b86634e487b7160e01b60005260116004526000fd5b604051633bca200b60e21b81528061067560048201613004565b0390fd5b61068d91503d8085833e6104908183612b4d565b8c610358565b60019261031e565b6040516312a441ad60e01b8152602060048201526019602482015278596f7520617265206e6f7420696e2074686973207461626c6560381b6044820152606490fd5b01511633141590508183886102f0565b6040516282b42960e81b8152600490fd5b61071e9150843d8611610724575b6107168183612b4d565b81019061357d565b846102a8565b503d61070c565b346101da5760003660031901126101da57600180549061074a82613324565b906107586040519283612b4d565b828252602080830193846001600052826000206000915b8383106107d75750505050604051928184019082855251809152604084019160408260051b86010195926000905b8382106107aa5786880387f35b909192939483806107c6839a603f198b82030186528951612bc1565b99970195949391909101910161079d565b946004858299976107ea859a989a613595565b81520192019201919096949695939561076f565b346101da5760003660031901126101da576020604051621b77408152f35b346101da5760403660031901126101da57600435602435600a8210156101da5760098110156101da5761086a8160ff600760209560f89560051c01015460405194859360031b161c166128b3565bf35b346101da5760603660031901126101da5760043560048110156101da5760243562ffffff811681036101da576044359061ffff821682036101da576108b092613647565b60405160209160208201926020835281518094526040830193602060408260051b8601019301916000955b8287106108e85785850386f35b909192938280610904600193603f198a820301865288516127fa565b96019201960195929190926108db565b346101da5760003660031901126101da5760055461093181613324565b9061093f6040519283612b4d565b80825260056000908152602091828401917f036b6384b5eca791c62761152d0c79bb0604c104a5fb6f4eb0703f3154bb3db0835b8383106109da5750505050604051918083019381845251809452604083019360408160051b85010192916000955b8287106109ae5785850386f35b9091929382806109ca600193603f198a820301865288516128c0565b96019201960195929190926109a1565b6065866001926109ec859a999a61333b565b815201920192019190959495610973565b6020806003193601126101da57600435906001600160401b03908183116101da57366023840112156101da57610a3e60249336908581600401359101612d4d565b91610a47613558565b50604051629c95e160e41b815233600482015282818681305afa90811561049e57600091610ce4575b50610ca457600180549160405194610a8786612ade565b338652848601908152604086019060008252606087019260008452600160401b861015610c8f578486018555610abc86612d84565b959095610c7a57885186546001600160a01b0319166001600160a01b03919091161786559151805190998387019391928311610c665750610afd8354612c22565b601f8111610c2b575b508790601f8311600114610bc657509080610b3f9260039798999a9b600092610bbb575b50508160011b916000199060031b1c19161790565b90555b63ffffffff6002850191511663ffffffff198254161790555191015533600052600282526040600020557f7906bdcdbe92fb87cf666c4220566af6efd647fb41323508c80f43e8222deea960405182815280610ba084820186612bc1565b0390a1610bb7604051928284938452830190612bc1565b0390f35b015190508b80610b2a565b9190601f1982169084600052896000209160005b818110610c1657509b836003999a9b9c9d10610bfe575b505050811b019055610b42565b015160001983891b60f8161c191690558a8080610bf1565b8d830151845592850192918b01918b01610bda565b610c56908460005289600020601f850160051c8101918b8610610c5c575b601f0160051c0190612dd8565b8a610b06565b9091508190610c49565b634e487b7160e01b60009081526041600452fd5b89634e487b7160e01b60005260006004526000fd5b88634e487b7160e01b60005260416004526000fd5b60405162461bcd60e51b81526004810183905260198186015278141b185e595c88185b1c9958591e481c9959da5cdd195c9959603a1b6044820152606490fd5b610cfb9150833d8511610724576107168183612b4d565b85610a70565b346101da5760603660031901126101da5760043560048110156101da57602435906001600160401b03908183116101da57366023840112156101da5782600401359182116101da5736602483850101116101da57610d9c610dc99360035493610d9260405194610d7086612a8c565b3386526000602087015260405196610d8788612aa7565b875260208701612db4565b6024369201612d4d565b604083015260608201526000608082015260443560a08201526104b060c0820152600060e0820152612f92565b610dd7610304600354612c03565b50604051635c12cd4b60e01b8152336004820152600081602481305afa801561049e57610e0057005b6103a1903d806000833e6104908183612b4d565b346101da5760203660031901126101da576004356001600160a01b038116908190036101da5760005260026020526020604060002054604051908152f35b346101da5760003660031901126101da576000546040516001600160a01b039091168152602090f35b346101da5760403660031901126101da5760043560048110156101da57610ea460243591612d01565b80548210156101da57602091610eb991612d1a565b90546040519160031b1c8152f35b612bb3565b346101da5760203660031901126101da576004356003548110156101da57610ef390612c03565b50805460ff60018301541691610f0b60028201612c5c565b60ff600583015416916006810154610f52600862ffffff60078501541693015493610f4160405198899889526020890190612774565b60e0604088015260e08701906127a4565b936060860152608085015260a084015260c08301520390f35b346101da5760003660031901126101da57610f846137e1565b600080546001600160a01b0319811682556001600160a01b03167f8be0079c531659141344cd1fd0a4f28419497f9722a3daafe3b4186f6b6457e08280a3005b60203660031901126101da57600435610fdb613293565b50604051629c95e160e41b8152336004820152602081602481305afa90811561049e57600091611b73575b50156106ed5761101581612c03565b50541561065b5761102a610304606092612c03565b015180516001600160a01b03163314159081611b5b575b5061069b57604051635c12cd4b60e01b8152336004820152600081602481305afa801561049e5760606103049161108293600091611b40575b500151612c03565b60608101805180519192916001600160a01b031615159081611b29575b5015611ae457805160405160208101913360601b83524260348301526054820152605481526110cd81612ade565b519020908160e082015260208101519260048410156118ce57929192519062ffffff60c060a0830151920151169361110361323e565b506040519061111182612b31565b61111a826131cc565b6040519361112785612b31565b611130856131cc565b60405160a05261114160a051612b31565b61114c60a0516131cc565b6040519361115985612b31565b611162856131cc565b6040519461116f86612b31565b611178866131cc565b6040519061118582612b31565b61118e826131cc565b6040519161119b83612b31565b6111a4836131cc565b60405160c0526111b560c051612b31565b6111c060c0516131cc565b604051906111cd82612b31565b6111d6826131cc565b604051986111e38a612b31565b6111ec8a6131cc565b6111f461323e565b9a898c5260208c015260a05160408c01528360608c015260808b015260a08a01528260c08a015260c05160e08a01526101008901528661012089015260405161123c81612ac3565b600081526001602082015260016040820152608087015260405161125f81612ac3565b600181526001602082015260016040820152608088015261128a60405161128581612b15565b613205565b60405160e05261129b60e051612b15565b600260e051526007602060e05101526006604060e05101526007606060e05101526005608060e0510152600360a060e0510152600760c060e0510152600260e080510152600461010060e0510152600761012060e0510152600361014060e0510152600661016060e0510152600761018060e051015260056101a060e051015260046101c060e05101526040519461133286612b15565b61133b86613205565b600f60006000195b600f8210611a0f5750505061135d60405161128581612b15565b60405160805261136e608051612b15565b6002608051526007602060805101526006604060805101526007606060805101526005608080510152600360a06080510152600760c06080510152600260e06080510152600461010060805101526007610120608051015260036101406080510152600661016060805101526007610180608051015260056101a0608051015260046101c06080510152604051986114058a612b15565b61140e8a613205565b600f60006000195b600f821061191a5750505060009a60005b600960ff821610156114b957808a8a8f8f90600460ff61149d9716146114b05761147b9361145c60ff6114759316809561380d565b5161146a60ff881683613547565b5260ff861690613547565b5061380d565b5161148960ff83168e613547565b5261149760ff82168d613547565b50612da3565b9c6114a88e9d612da3565b9c509c611427565b50505050612da3565b50918793918b938e6115218f6114f5906114e860ff82166114da818d61380d565b51602060a05101528b61380d565b5160e060a0510152612da3565b61151460ff8216611506818b61380d565b51602060c05101528961380d565b5160e060c0510152612da3565b986000995b600960ff8c1610156115b757808b61157960ff6115708d8c61155c611551856115879a16809461380d565b519185881690613547565b526115698584168e613547565b508d61380d565b5192168d613547565b5261149760ff8d168c613547565b9960ff600281831601116115a15760ff1660020199611526565b634e487b7160e01b600052601160045260246000fd5b508a6115fa604051946115c986612ade565b6000865260006020870152600a6040870152600a6060870152604051976115ef89612af9565b885260208801612db4565b6040860152606085015260808401524260a0840152600060c0840152600060e08401526101008301526101208201526060610140820152600554600160401b811015611844578060016116509201600555612a57565b6119045781518155602082015160048110156118ce576116739060018301612dc0565b604082015160005b600281106118e4575050606082015160048201556005810162ffffff60808401511662ffffff1982541617905560a0820151600682015560c0820151600782015560e082015160038110156118ce5760ff8019600884015416911617600882015561010082015160ff8151169060098301549160208201519260098410156118ce5762ff00009161ff0063ff0000006060604087015196015160181b169560081b169163ffffffff191617179160101b1617176009820155610120820151600a82016000915b600a831061185a57610140850151805186916064870190600160401b83116118445781548383558084106117f3575b506020019060005260206000206000915b83831061179e5760405160208082528190610bb7908201886128c0565b8051826000915b600283106117c3575050506002602060019201920192019190611781565b600160208282935160ff81511661ff0084885493015160081b169161ffff191617178555019201920191906117a5565b6001600160ff1b0381811682036115a157841684036115a1578260005260206000209060011b8101908460011b015b81811061182f5750611770565b8061183e600280930182612dd8565b01611822565b634e487b7160e01b600052604160045260246000fd5b8051826000915b6009831061187f575050506009602060019201920192019190611741565b805160ff81511690835492602082015160088110156118ce57600194859461ff0062ff000060406020970151151560101b169360081b169162ffffff1916171717855501920192019190611861565b634e487b7160e01b600052602160045260246000fd5b81516001600160a01b03166002828501015560209091019060010161167b565b634e487b7160e01b600052600060045260246000fd5b60409e9d9e5160208101913360601b835242603483015260f81b60548201526035815261194681612ac3565b51902060ff8316156119f957816119ab8e9360ff600194818816900616946119786119738760805161380d565b6135e0565b6119946040519161198883612ac3565b87835260208301613318565b600060408201526119a5838361380d565b5261380d565b5060006119ed84820b9560ff8319911601946119e560ff8716916119e06119d76119738560805161380d565b9160805161380d565b613318565b60805161380d565b520190919d9c9d611416565b634e487b7160e01b600052601260045260246000fd5b60409d9c9d5160208101913360601b835242603483015260f81b605482015260358152611a3b81612ac3565b51902060ff8316156119f95760ff60019181851690061691611a626119738460e05161380d565b611a7f60405191611a7283612ac3565b6000835260208301613318565b60006040820152611a90828c61380d565b52611a9b818b61380d565b506000611ad884820b9560ff831991160194611ad060ff8716916119e0611ac76119738560e05161380d565b9160e05161380d565b60e05161380d565b520190919c9b9c611343565b60405162461bcd60e51b815260206004820152601b60248201527f4e6f7420656e6f75676820706c617965727320746f20737461727400000000006044820152606490fd5b602001516001600160a01b0316151590508361109f565b611b5591503d806000833e6104908183612b4d565b8461107a565b602001516001600160a01b0316331415905081611041565b611b8c915060203d602011610724576107168183612b4d565b82611006565b346101da576020806003193601126101da576004356001600160a01b038116908190036101da57611bc1613558565b50604051629c95e160e41b8152600481018290528281602481305afa90811561049e57600091611c63575b5015611c255760005260028152611c10611c0a604060002054612d84565b50613595565b90610bb7604051928284938452830190612bc1565b604051633bca200b60e21b8152600481018390526015602482015274141b185e595c88191bd95cc81b9bdd08195e1a5cdd605a1b6044820152606490fd5b611c7a9150833d8511610724576107168183612b4d565b83611bec565b60803660031901126101da5760043560ff8082168092036101da576024918235908282168092036101da57604435928084168094036101da57606435948186168096036101da57600a831080611f86575b80611f7c575b80611f72575b156101da57604051635c12cd4b60e01b81523360048201526000818381305afa801561049e57606091600091611f57575b5001805115611f0857611d2661030460e09251612c03565b01805115611ec957611d3b611d419151612a57565b5061333b565b604081015180516001600160a01b039081163303611eaa5750508260005b169060028203611e5b57611d846101208592015196611d7e8789613536565b51613547565b51511603611e285760016040611e1a88611d7e8989611e148a8a611dcd87611db081611d7e8689613536565b51611dbb8888613536565b5190611dc78383613547565b52613547565b50611dd88285613536565b5190895190611de682612ac3565b6011548181168352611e00828260081c1660208501613318565b60101c1615158a820152611dc78383613547565b50613536565b510152602060405160018152f35b606490600c6040519162461bcd60e51b8352602060048401528201526b496e76616c6964206d6f766560a01b6044820152fd5b60405162461bcd60e51b8152602060048201526022818501527f596f75206861736e2774206265656e206265696e6720696e20616e79206d61746044820152610c6d60f31b6064820152608490fd5b6020339201511614600014611ec157826001611d5f565b826002611d5f565b60405162461bcd60e51b8152602060048201526018818401527711d85b59481a185cdb89dd081899595b881cdd185c9d195960421b6044820152606490fd5b60405162461bcd60e51b8152602060048201526022818401527f596f75206861736e2774206265656e206265696e6720696e20616e79207461626044820152616c6560f01b6064820152608490fd5b611f6c91503d806000833e6104908183612b4d565b88611d0e565b5060098610611cdd565b5060098410611cd7565b50600a8510611cd1565b346101da5760203660031901126101da576004356005548110156101da57611fba61016091612a57565b5061086a81549161202e60ff60018301541691600481015462ffffff600583015416600683015490600784015492612010611fff600960ff6008890154169701612b6e565b976040519a8b5260208b0190612774565b60408901526060880152608087015260a086015260c0850190612870565b60e083019061287d565b346101da5760203660031901126101da57600435612054613293565b5061205e81612a57565b50541561208857612074611d3b610bb792612a57565b6040519182916020835260208301906128c0565b604051633bca200b60e21b8152602060048201526018602482015277151a19481b585d18da08191bd95cc81b9bdd08195e1a5cdd60421b6044820152606490fd5b346101da576020806003193601126101da57600435906120e882612c03565b50541561065b576120fb61030483612c03565b8051156124775760608091019081519260018060a01b039384828183511615928315612469575b50505015612431578251848281835116159283612423575b5050506121b257505051511661219057612155600391612c03565b500180546001600160a01b031916331790555b604051635c12cd4b60e01b8152336004820152600081602481305afa801561049e57610e0057005b61219b600491612c03565b500180546001600160a01b03191633179055612168565b83856121bd81612c03565b50541561065b576121d061030482612c03565b84019260005b60ff811660018111612278576121ee859187516130ea565b5116612203575b6121fe90612da3565b6121d6565b8361220d84612c03565b5061221c8360038093016130fb565b9054911b1c169060405191635c12cd4b60e01b83526004830152600082602481305afa801561049e57876000916121fe94839161225e575b50015290506121f5565b61227291503d8085833e6104908183612b4d565b8a612254565b505092508360035492600019938481019081116115a15761229c6103048492612c03565b6122a9816104df87612c03565b01805151604051635c12cd4b60e01b8082529184166004820152909291600082602481305afa801561049e578587918a94600091612408575b500152510151166040519182526004820152600081602481305afa90811561049e576000916123ed575b5001526003549081156123d7576123239101612c03565b9190916119045761235f8260006064945560006001820155600281016123498154612c22565b908161239a575b50506003600582019101612dd8565b60405190633bca200b60e21b825260048201526016602482015275151a19481d18589b19481a5cc81b9bdd08199bdd5b9960521b6044820152fd5b81601f600093116001146123b25750555b8480612350565b9080839182526123d0601f888420940160051c840160018501612dd8565b55556123ab565b634e487b7160e01b600052603160045260246000fd5b61240291503d806000833e6104908183612b4d565b8561230c565b61241d91503d806000833e6104908183612b4d565b8b6122e2565b01511615905084828861213a565b6064906040519062461bcd60e51b825260048201526011602482015270151a19481d18589b19481a5cc8199d5b1b607a1b6044820152fd5b015116159050848288612122565b60405162461bcd60e51b81528061067560048201613004565b346101da5760003660031901126101da57602060405160008152f35b346101da5760003660031901126101da57602060405160018152f35b346101da5760203660031901126101da576004356124e4612fb5565b506124ee81612c03565b50541561065b57612504610304610bb792612c03565b6040519182916020835260208301906127fa565b60003660031901126101da5761252c6137e1565b60015b60ff811690601482116103a15781600072184f03e93ff9f4daa797ed6e38ed64bf6a1f0160401b8281811015612718575b50506d04ee2d6d415b85acef81000000008083101561270b575b50662386f26fc10000808310156126fe575b506305f5e100808310156126f1575b50612710808310156126e4575b506064808310156126d7575b50600a809210156126cf575b60018101916125e76125d184612d32565b936125df6040519586612b4d565b808552612d32565b9481602160209485870198601f1901368a378601015b60001901916f181899199a1a9b1b9c1cb0b131b232b360811b8282061a83530490811561262b5782906125fd565b5050506126ca9361266d6126c59360405180936402937b7b6960dd1b8683015261265d60259351809285850190612781565b8101036005810184520182612b4d565b6040519061267a82612a8c565b6000825260008383015260036040519361269385612aa7565b600085528401526040830152606082015260006080820152600060a0820152600060c0820152600060e0820152612f92565b612da3565b61252f565b6001016125c0565b60029192049101846125b4565b60049192049101846125a8565b600891920491018461259b565b601091920491018461258c565b602091920491018461257a565b915091500460408480612560565b346101da5760203660031901126101da576004356001600160a01b03811691908290036101da576020916000526002825260406000205415158152f35b60203660031901126101da57600080fd5b9060048210156118ce5752565b60005b8381106127945750506000910152565b8181015183820152602001612784565b906020916127bd81518092818552858086019101612781565b601f01601f1916010190565b6000915b600283106127da57505050565b81516001600160a01b0316815260019290920191602091820191016127cd565b9061010060e06128306101208551855261281c60208701516020870190612774565b6040860151908060408701528501906127a4565b93612843606082015160608601906127c9565b60ff60808201511660a085015260a081015160c085015262ffffff60c08201511682850152015191015290565b9060038210156118ce5752565b60ff815116825260208101519060098210156118ce57606060ff9181936020860152826040820151166040860152015116910152565b9060088210156118ce5752565b6123809182810190825181526020906128df8285015183830190612774565b6040906128f4604086015160408301906127c9565b606094606081015195608096608084015262ffffff60808301511660a084015260a082015160c084015260c082015160e084015260e082015161293d6101009182860190612870565b820151612950610120918286019061287d565b8201516000906101a085015b600a83106129ef575050505083916101406123a0920151976123608201528751809652019501936000915b8483106129975750505050505090565b909192939495848388518390856000925b600284106129c6575050509201970195949360010192919050612987565b8260019496939550518360ff9182815116845201511683820152019201920187928587936129a8565b87829a9798999a5182866000915b60098310612a20575050505061036060019201920192019190989796959861295c565b908394918d80600195965160ff8151168452612a4286820151878601906128b3565b01511515908201520193019101868c936129fd565b600554811015612a765760056000526065602060002091020190600090565b634e487b7160e01b600052603260045260246000fd5b604081019081106001600160401b0382111761184457604052565b61010081019081106001600160401b0382111761184457604052565b606081019081106001600160401b0382111761184457604052565b608081019081106001600160401b0382111761184457604052565b61016081019081106001600160401b0382111761184457604052565b6101e081019081106001600160401b0382111761184457604052565b61012081019081106001600160401b0382111761184457604052565b90601f801991011681019081106001600160401b0382111761184457604052565b90604051612b7b81612ade565b80925460ff8116825260ff8160081c1660098110156118ce5760609160ff916020850152818160101c16604085015260181c16910152565b60203660031901126101da57005b9060018060a01b038251168152606080612bea60208501516080602086015260808501906127a4565b9363ffffffff6040820151166040850152015191015290565b600354811015612a765760036000526009602060002091020190600090565b90600182811c92168015612c52575b6020831014612c3c57565b634e487b7160e01b600052602260045260246000fd5b91607f1691612c31565b90604051918260008254612c6f81612c22565b90818452602094600191600181169081600014612cdf5750600114612ca0575b505050612c9e92500383612b4d565b565b600090815285812095935091905b818310612cc7575050612c9e9350820101388080612c8f565b85548884018501529485019487945091830191612cae565b92505050612c9e94925060ff191682840152151560051b820101388080612c8f565b60048110156118ce576000526004602052604060002090565b8054821015612a765760005260206000200190600090565b6001600160401b03811161184457601f01601f191660200190565b929192612d5982612d32565b91612d676040519384612b4d565b8294818452818301116101da578281602093846000960137010152565b600154811015612a7657600160005260206000209060021b0190600090565b60ff1660ff81146115a15760010190565b60048210156118ce5752565b9060048110156118ce5760ff80198354169116179055565b818110612de3575050565b60008155600101612dd8565b91906119045780518255600160208083015160048110156118ce57612e179060018601612dc0565b6002906002850160408501518051906001600160401b03821161184457612e3e8354612c22565b601f8111612f62575b508390601f8311600114612efb57612e77929160009183612ef05750508160011b916000199060031b1c19161790565b90555b60608401519060005b838110612ed357505050505060e06008916005840160ff60808301511660ff1982541617905560a081015160068501556007840162ffffff60c08301511662ffffff198254161790550151910155565b82516001600160a01b031687820160030155918101918401612e83565b015190503880610b2a565b90601f1983169184600052856000209260005b878a838310612f4e57505050908460019594939210612f35575b505050811b019055612e7a565b015160001960f88460031b161c19169055388080612f28565b859682939686015181550195019301612f0e565b612f8c908460005285600020601f850160051c810191878610610c5c57601f0160051c0190612dd8565b38612e47565b60035490600160401b821015611844576104df826001612c9e9401600355612c03565b60405190612fc282612aa7565b8160e060009182815282602082015260606040820152604051612fe481612a8c565b604036823760608201528260808201528260a08201528260c08201520152565b6060906020815260146020820152731518589b1948191bd95cc81b9bdd08195e1a5cdd60621b60408201520190565b60405191906000835b6002821061305057505050612c9e82612a8c565b82546001600160a01b03168152600192830192919091019060200161303c565b9060405161307d81612aa7565b60e0600882948054845261309b60ff60018301541660208601612db4565b6130a760028201612c5c565b60408501526130b860038201613033565b606085015260ff6005820154166080850152600681015460a085015262ffffff60078201541660c08501520154910152565b906002811015612a765760051b0190565b6002821015612a76570190600090565b9060209081838203126101da5782516001600160401b03938482116101da5701916080838303126101da576040519361314385612ade565b83516001600160a01b03811681036101da578552818401519081116101da57830182601f820112156101da57805161317a81612d32565b936131886040519586612b4d565b8185528382840101116101da576131a491838086019101612781565b83015260408101519063ffffffff821682036101da5760609160408401520151606082015290565b6000805b61012081106131de57505050565b6020906040838151916131f083612ac3565b818352818584015282015281850152016131d0565b6000805b6101e0811061321757505050565b60209060408381519161322983612ac3565b81835281858401528201528185015201613209565b604090604051610140908181018181106001600160401b0382111761184457604052809360005b8381106132725750505050565b602090825161328081612b31565b613289816131cc565b8185015201613265565b604090606061014083516132a681612af9565b8094600080835280602084015281516132be81612a8c565b823682378284015280858401528060808401528060a08401528060c08401528060e0840152808251926132f084612ade565b8184528160208501528301528482015261010082015261330e61323e565b6101208201520152565b60088210156118ce5752565b6001600160401b0381116118445760051b60200190565b9060405161334881612af9565b80928054825261336260ff60018301541660208401612db4565b61336e60028201613033565b60408301526004810154606083015262ffffff6005820154166080830152600681015460a0830152600781015460c083015260ff60088201541660038110156118ce5760e08301526133c260098201612b6e565b61010083015260405161014081018181106001600160401b0382111761184457604052600a82016000825b600a82106134a657505050906064916101208401520190815461340f81613324565b9261341d6040519485612b4d565b818452602084019060005260206000206000915b83831061344357505050506101400152565b60405161344f81612a8c565b600083825b60028310613475575050506020826002926001945201920192019190613431565b60016020819260405161348781612a8c565b60ff8654818116835260081c1683820152815201920192019190613454565b604051806101208101106001600160401b0361012083011117611844576101208101604052600084825b600983106134f15750505060208260099260019452019301910190916133ed565b60016020819260405161350381612ac3565b60ff8654818116835261351d828260081c16868501613318565b60101c16151560408201528152019201920191906134d0565b90600a811015612a765760051b0190565b906009811015612a765760051b0190565b6040519061356582612ade565b60006060838281528160208201528260408201520152565b908160209103126101da575180151581036101da5790565b906040516135a281612ade565b82546001600160a01b031681529182906060906003906135c460018201612c5c565b602085015263ffffffff60028201541660408501520154910152565b5160088110156118ce5790565b62ffffff90811660001901919082116115a157565b91909162ffffff808094169116029182169182036115a157565b91909162ffffff808094169116019182116115a157565b8051821015612a765760209160051b010190565b9161ffff169261365684613324565b926136646040519485612b4d565b848452601f1961367386613324565b0160005b8181106137b957505060048110156118ce5780156137375761369b90949294612d01565b9162ffffff806136b3836136ae896135ed565b613602565b16918454925b826136d0836136cb816136ae8d6135ed565b61361c565b1681101561372d5783811461372d57906136cb816136ae6001858b6137158261370f6103048f6136d09c61370391612d1a565b90549060031b1c612c03565b92613633565b52613720818d613633565b50019350509250506136b9565b5050505092505090565b50909262ffffff8061374c836136ae886135ed565b1691600354925b82613765836136cb816136ae8c6135ed565b168110156137b0578381146137b057906136cb816136ae60018561378e61030461376598612c03565b613798828d613633565b526137a3818c613633565b5001935050925050613753565b50505050915090565b6020906137c4612fb5565b82828901015201613677565b60ff166001039060ff82116115a157565b6000546001600160a01b031633036137f557565b60405163118cdaa760e01b8152336004820152602490fd5b90600f811015612a765760051b019056fea264697066735822122032a2f14a4ad2cc72b573f318db6eaa6f993b5cba65fac70d4315971576cbc85464736f6c63430008160033",
  "linkReferences": {},
  "deployedLinkReferences": {}
}