{
  "_format": "hh-sol-artifact-1",
  "contractName": "MysteryChineseChess",
  "sourceName": "contracts/MysteryChineseChess.sol",
  "abi": [
    {
      "inputs": [],
      "stateMutability": "payable",
      "type": "constructor"
    },
    {
      "inputs": [
        {
          "internalType": "string",
          "name": "message",
          "type": "string"
        }
      ],
      "name": "InvalidAction",
      "type": "error"
    },
    {
      "inputs": [
        {
          "internalType": "address",
          "name": "owner",
          "type": "address"
        }
      ],
      "name": "OwnableInvalidOwner",
      "type": "error"
    },
    {
      "inputs": [
        {
          "internalType": "address",
          "name": "account",
          "type": "address"
        }
      ],
      "name": "OwnableUnauthorizedAccount",
      "type": "error"
    },
    {
      "inputs": [
        {
          "internalType": "string",
          "name": "message",
          "type": "string"
        }
      ],
      "name": "ResourceNotFound",
      "type": "error"
    },
    {
      "inputs": [],
      "name": "Unauthorized",
      "type": "error"
    },
    {
      "anonymous": false,
      "inputs": [
        {
          "indexed": false,
          "internalType": "address",
          "name": "playerAddress",
          "type": "address"
        },
        {
          "indexed": false,
          "internalType": "uint256",
          "name": "tableId",
          "type": "uint256"
        }
      ],
      "name": "ExitedTable",
      "type": "event"
    },
    {
      "anonymous": false,
      "inputs": [
        {
          "indexed": false,
          "internalType": "address",
          "name": "playerAddress",
          "type": "address"
        },
        {
          "indexed": false,
          "internalType": "uint256",
          "name": "tableId",
          "type": "uint256"
        }
      ],
      "name": "JoinedTable",
      "type": "event"
    },
    {
      "anonymous": false,
      "inputs": [
        {
          "indexed": false,
          "internalType": "uint256",
          "name": "matchId",
          "type": "uint256"
        },
        {
          "components": [
            {
              "internalType": "uint8",
              "name": "winnerIndex",
              "type": "uint8"
            },
            {
              "internalType": "enum MysteryChineseChess.MatchResultType",
              "name": "resultType",
              "type": "uint8"
            },
            {
              "internalType": "uint8",
              "name": "increasingElo",
              "type": "uint8"
            },
            {
              "internalType": "uint8",
              "name": "decreasingElo",
              "type": "uint8"
            }
          ],
          "indexed": false,
          "internalType": "struct MysteryChineseChess.MatchResult",
          "name": "matchResult",
          "type": "tuple"
        },
        {
          "indexed": false,
          "internalType": "address",
          "name": "winner",
          "type": "address"
        },
        {
          "indexed": false,
          "internalType": "address",
          "name": "loser",
          "type": "address"
        }
      ],
      "name": "MatchEnded",
      "type": "event"
    },
    {
      "anonymous": false,
      "inputs": [
        {
          "indexed": false,
          "internalType": "string",
          "name": "gameName",
          "type": "string"
        },
        {
          "indexed": false,
          "internalType": "address",
          "name": "player1",
          "type": "address"
        },
        {
          "indexed": false,
          "internalType": "address",
          "name": "player2",
          "type": "address"
        }
      ],
      "name": "NewGameStarted",
      "type": "event"
    },
    {
      "anonymous": false,
      "inputs": [
        {
          "components": [
            {
              "internalType": "address",
              "name": "playerAddress",
              "type": "address"
            },
            {
              "internalType": "string",
              "name": "playerName",
              "type": "string"
            },
            {
              "internalType": "int32",
              "name": "elo",
              "type": "int32"
            },
            {
              "internalType": "uint256",
              "name": "tableId",
              "type": "uint256"
            }
          ],
          "indexed": false,
          "internalType": "struct MysteryChineseChess.Player",
          "name": "player",
          "type": "tuple"
        }
      ],
      "name": "NewPlayer",
      "type": "event"
    },
    {
      "anonymous": false,
      "inputs": [
        {
          "components": [
            {
              "internalType": "uint256",
              "name": "id",
              "type": "uint256"
            },
            {
              "internalType": "enum MysteryChineseChess.GameMode",
              "name": "gameMode",
              "type": "uint8"
            },
            {
              "internalType": "string",
              "name": "name",
              "type": "string"
            },
            {
              "internalType": "address[2]",
              "name": "players",
              "type": "address[2]"
            },
            {
              "internalType": "uint8",
              "name": "hostIndex",
              "type": "uint8"
            },
            {
              "internalType": "uint256",
              "name": "stake",
              "type": "uint256"
            },
            {
              "internalType": "uint24",
              "name": "timeControl",
              "type": "uint24"
            },
            {
              "internalType": "uint256",
              "name": "matchId",
              "type": "uint256"
            }
          ],
          "indexed": false,
          "internalType": "struct MysteryChineseChess.Table",
          "name": "table",
          "type": "tuple"
        }
      ],
      "name": "NewTableCreated",
      "type": "event"
    },
    {
      "anonymous": false,
      "inputs": [
        {
          "indexed": true,
          "internalType": "address",
          "name": "previousOwner",
          "type": "address"
        },
        {
          "indexed": true,
          "internalType": "address",
          "name": "newOwner",
          "type": "address"
        }
      ],
      "name": "OwnershipTransferred",
      "type": "event"
    },
    {
      "anonymous": false,
      "inputs": [
        {
          "indexed": false,
          "internalType": "address",
          "name": "playerAddress",
          "type": "address"
        }
      ],
      "name": "UpdatedPlayerInfo",
      "type": "event"
    },
    {
      "anonymous": false,
      "inputs": [
        {
          "components": [
            {
              "internalType": "uint256",
              "name": "id",
              "type": "uint256"
            },
            {
              "internalType": "enum MysteryChineseChess.GameMode",
              "name": "gameMode",
              "type": "uint8"
            },
            {
              "internalType": "string",
              "name": "name",
              "type": "string"
            },
            {
              "internalType": "address[2]",
              "name": "players",
              "type": "address[2]"
            },
            {
              "internalType": "uint8",
              "name": "hostIndex",
              "type": "uint8"
            },
            {
              "internalType": "uint256",
              "name": "stake",
              "type": "uint256"
            },
            {
              "internalType": "uint24",
              "name": "timeControl",
              "type": "uint24"
            },
            {
              "internalType": "uint256",
              "name": "matchId",
              "type": "uint256"
            }
          ],
          "indexed": false,
          "internalType": "struct MysteryChineseChess.Table",
          "name": "table",
          "type": "tuple"
        }
      ],
      "name": "UpdatedTable",
      "type": "event"
    },
    {
      "anonymous": false,
      "inputs": [
        {
          "indexed": false,
          "internalType": "uint256",
          "name": "oldTableId",
          "type": "uint256"
        },
        {
          "indexed": false,
          "internalType": "uint256",
          "name": "newTableId",
          "type": "uint256"
        }
      ],
      "name": "UpdatedTableId",
      "type": "event"
    },
    {
      "inputs": [],
      "name": "BLACK",
      "outputs": [
        {
          "internalType": "uint8",
          "name": "",
          "type": "uint8"
        }
      ],
      "stateMutability": "view",
      "type": "function"
    },
    {
      "inputs": [],
      "name": "MAX_TIME_CONTROL",
      "outputs": [
        {
          "internalType": "uint24",
          "name": "",
          "type": "uint24"
        }
      ],
      "stateMutability": "view",
      "type": "function"
    },
    {
      "inputs": [],
      "name": "RED",
      "outputs": [
        {
          "internalType": "uint8",
          "name": "",
          "type": "uint8"
        }
      ],
      "stateMutability": "view",
      "type": "function"
    },
    {
      "inputs": [
        {
          "internalType": "enum MysteryChineseChess.GameMode",
          "name": "gameMode",
          "type": "uint8"
        },
        {
          "internalType": "string",
          "name": "name",
          "type": "string"
        },
        {
          "internalType": "uint256",
          "name": "stake",
          "type": "uint256"
        }
      ],
      "name": "createTable",
      "outputs": [],
      "stateMutability": "nonpayable",
      "type": "function"
    },
    {
      "inputs": [
        {
          "internalType": "uint256",
          "name": "tableId",
          "type": "uint256"
        }
      ],
      "name": "exitTable",
      "outputs": [],
      "stateMutability": "nonpayable",
      "type": "function"
    },
    {
      "inputs": [],
      "name": "getAllMatches",
      "outputs": [
        {
          "components": [
            {
              "internalType": "uint256",
              "name": "id",
              "type": "uint256"
            },
            {
              "internalType": "enum MysteryChineseChess.GameMode",
              "name": "gameMode",
              "type": "uint8"
            },
            {
              "internalType": "address[2]",
              "name": "players",
              "type": "address[2]"
            },
            {
              "internalType": "uint256",
              "name": "stake",
              "type": "uint256"
            },
            {
              "internalType": "uint24",
              "name": "timeControl",
              "type": "uint24"
            },
            {
              "internalType": "uint256",
              "name": "startTimestamp",
              "type": "uint256"
            },
            {
              "internalType": "uint256",
              "name": "endTimestamp",
              "type": "uint256"
            },
            {
              "internalType": "enum MysteryChineseChess.MatchStatus",
              "name": "gameStatus",
              "type": "uint8"
            },
            {
              "components": [
                {
                  "internalType": "uint8",
                  "name": "winnerIndex",
                  "type": "uint8"
                },
                {
                  "internalType": "enum MysteryChineseChess.MatchResultType",
                  "name": "resultType",
                  "type": "uint8"
                },
                {
                  "internalType": "uint8",
                  "name": "increasingElo",
                  "type": "uint8"
                },
                {
                  "internalType": "uint8",
                  "name": "decreasingElo",
                  "type": "uint8"
                }
              ],
              "internalType": "struct MysteryChineseChess.MatchResult",
              "name": "matchResult",
              "type": "tuple"
            },
            {
              "components": [
                {
                  "internalType": "uint8",
                  "name": "color",
                  "type": "uint8"
                },
                {
                  "internalType": "enum MysteryChineseChess.Piece",
                  "name": "piece",
                  "type": "uint8"
                },
                {
                  "internalType": "bool",
                  "name": "unfolded",
                  "type": "bool"
                }
              ],
              "internalType": "struct MysteryChineseChess.PlayerPiece[9][10]",
              "name": "board",
              "type": "tuple[9][10]"
            },
            {
              "components": [
                {
                  "internalType": "uint8",
                  "name": "row",
                  "type": "uint8"
                },
                {
                  "internalType": "uint8",
                  "name": "column",
                  "type": "uint8"
                }
              ],
              "internalType": "struct MysteryChineseChess.Position[2][]",
              "name": "steps",
              "type": "tuple[2][]"
            }
          ],
          "internalType": "struct MysteryChineseChess.Match[]",
          "name": "",
          "type": "tuple[]"
        }
      ],
      "stateMutability": "view",
      "type": "function"
    },
    {
      "inputs": [],
      "name": "getAllPlayers",
      "outputs": [
        {
          "components": [
            {
              "internalType": "address",
              "name": "playerAddress",
              "type": "address"
            },
            {
              "internalType": "string",
              "name": "playerName",
              "type": "string"
            },
            {
              "internalType": "int32",
              "name": "elo",
              "type": "int32"
            },
            {
              "internalType": "uint256",
              "name": "tableId",
              "type": "uint256"
            }
          ],
          "internalType": "struct MysteryChineseChess.Player[]",
          "name": "",
          "type": "tuple[]"
        }
      ],
      "stateMutability": "view",
      "type": "function"
    },
    {
      "inputs": [
        {
          "internalType": "enum MysteryChineseChess.GameMode",
          "name": "gameMode",
          "type": "uint8"
        },
        {
          "internalType": "uint24",
          "name": "page",
          "type": "uint24"
        },
        {
          "internalType": "uint16",
          "name": "size",
          "type": "uint16"
        }
      ],
      "name": "getAllTables",
      "outputs": [
        {
          "components": [
            {
              "internalType": "uint256",
              "name": "id",
              "type": "uint256"
            },
            {
              "internalType": "enum MysteryChineseChess.GameMode",
              "name": "gameMode",
              "type": "uint8"
            },
            {
              "internalType": "string",
              "name": "name",
              "type": "string"
            },
            {
              "internalType": "address[2]",
              "name": "players",
              "type": "address[2]"
            },
            {
              "internalType": "uint8",
              "name": "hostIndex",
              "type": "uint8"
            },
            {
              "internalType": "uint256",
              "name": "stake",
              "type": "uint256"
            },
            {
              "internalType": "uint24",
              "name": "timeControl",
              "type": "uint24"
            },
            {
              "internalType": "uint256",
              "name": "matchId",
              "type": "uint256"
            }
          ],
          "internalType": "struct MysteryChineseChess.Table[]",
          "name": "",
          "type": "tuple[]"
        }
      ],
      "stateMutability": "view",
      "type": "function"
    },
    {
      "inputs": [
        {
          "internalType": "uint256",
          "name": "id",
          "type": "uint256"
        }
      ],
      "name": "getMatch",
      "outputs": [
        {
          "components": [
            {
              "internalType": "uint256",
              "name": "id",
              "type": "uint256"
            },
            {
              "internalType": "enum MysteryChineseChess.GameMode",
              "name": "gameMode",
              "type": "uint8"
            },
            {
              "internalType": "address[2]",
              "name": "players",
              "type": "address[2]"
            },
            {
              "internalType": "uint256",
              "name": "stake",
              "type": "uint256"
            },
            {
              "internalType": "uint24",
              "name": "timeControl",
              "type": "uint24"
            },
            {
              "internalType": "uint256",
              "name": "startTimestamp",
              "type": "uint256"
            },
            {
              "internalType": "uint256",
              "name": "endTimestamp",
              "type": "uint256"
            },
            {
              "internalType": "enum MysteryChineseChess.MatchStatus",
              "name": "gameStatus",
              "type": "uint8"
            },
            {
              "components": [
                {
                  "internalType": "uint8",
                  "name": "winnerIndex",
                  "type": "uint8"
                },
                {
                  "internalType": "enum MysteryChineseChess.MatchResultType",
                  "name": "resultType",
                  "type": "uint8"
                },
                {
                  "internalType": "uint8",
                  "name": "increasingElo",
                  "type": "uint8"
                },
                {
                  "internalType": "uint8",
                  "name": "decreasingElo",
                  "type": "uint8"
                }
              ],
              "internalType": "struct MysteryChineseChess.MatchResult",
              "name": "matchResult",
              "type": "tuple"
            },
            {
              "components": [
                {
                  "internalType": "uint8",
                  "name": "color",
                  "type": "uint8"
                },
                {
                  "internalType": "enum MysteryChineseChess.Piece",
                  "name": "piece",
                  "type": "uint8"
                },
                {
                  "internalType": "bool",
                  "name": "unfolded",
                  "type": "bool"
                }
              ],
              "internalType": "struct MysteryChineseChess.PlayerPiece[9][10]",
              "name": "board",
              "type": "tuple[9][10]"
            },
            {
              "components": [
                {
                  "internalType": "uint8",
                  "name": "row",
                  "type": "uint8"
                },
                {
                  "internalType": "uint8",
                  "name": "column",
                  "type": "uint8"
                }
              ],
              "internalType": "struct MysteryChineseChess.Position[2][]",
              "name": "steps",
              "type": "tuple[2][]"
            }
          ],
          "internalType": "struct MysteryChineseChess.Match",
          "name": "",
          "type": "tuple"
        }
      ],
      "stateMutability": "view",
      "type": "function"
    },
    {
      "inputs": [
        {
          "internalType": "address",
          "name": "_addr",
          "type": "address"
        }
      ],
      "name": "getPlayer",
      "outputs": [
        {
          "components": [
            {
              "internalType": "address",
              "name": "playerAddress",
              "type": "address"
            },
            {
              "internalType": "string",
              "name": "playerName",
              "type": "string"
            },
            {
              "internalType": "int32",
              "name": "elo",
              "type": "int32"
            },
            {
              "internalType": "uint256",
              "name": "tableId",
              "type": "uint256"
            }
          ],
          "internalType": "struct MysteryChineseChess.Player",
          "name": "",
          "type": "tuple"
        }
      ],
      "stateMutability": "view",
      "type": "function"
    },
    {
      "inputs": [
        {
          "internalType": "uint256",
          "name": "id",
          "type": "uint256"
        }
      ],
      "name": "getTable",
      "outputs": [
        {
          "components": [
            {
              "internalType": "uint256",
              "name": "id",
              "type": "uint256"
            },
            {
              "internalType": "enum MysteryChineseChess.GameMode",
              "name": "gameMode",
              "type": "uint8"
            },
            {
              "internalType": "string",
              "name": "name",
              "type": "string"
            },
            {
              "internalType": "address[2]",
              "name": "players",
              "type": "address[2]"
            },
            {
              "internalType": "uint8",
              "name": "hostIndex",
              "type": "uint8"
            },
            {
              "internalType": "uint256",
              "name": "stake",
              "type": "uint256"
            },
            {
              "internalType": "uint24",
              "name": "timeControl",
              "type": "uint24"
            },
            {
              "internalType": "uint256",
              "name": "matchId",
              "type": "uint256"
            }
          ],
          "internalType": "struct MysteryChineseChess.Table",
          "name": "",
          "type": "tuple"
        }
      ],
      "stateMutability": "view",
      "type": "function"
    },
    {
      "inputs": [],
      "name": "initializeTables",
      "outputs": [],
      "stateMutability": "payable",
      "type": "function"
    },
    {
      "inputs": [
        {
          "internalType": "address",
          "name": "_addr",
          "type": "address"
        }
      ],
      "name": "isPlayer",
      "outputs": [
        {
          "internalType": "bool",
          "name": "",
          "type": "bool"
        }
      ],
      "stateMutability": "view",
      "type": "function"
    },
    {
      "inputs": [
        {
          "internalType": "uint256",
          "name": "tableId",
          "type": "uint256"
        }
      ],
      "name": "joinTable",
      "outputs": [],
      "stateMutability": "nonpayable",
      "type": "function"
    },
    {
      "inputs": [
        {
          "internalType": "uint256",
          "name": "",
          "type": "uint256"
        }
      ],
      "name": "matches",
      "outputs": [
        {
          "internalType": "uint256",
          "name": "id",
          "type": "uint256"
        },
        {
          "internalType": "enum MysteryChineseChess.GameMode",
          "name": "gameMode",
          "type": "uint8"
        },
        {
          "internalType": "uint256",
          "name": "stake",
          "type": "uint256"
        },
        {
          "internalType": "uint24",
          "name": "timeControl",
          "type": "uint24"
        },
        {
          "internalType": "uint256",
          "name": "startTimestamp",
          "type": "uint256"
        },
        {
          "internalType": "uint256",
          "name": "endTimestamp",
          "type": "uint256"
        },
        {
          "internalType": "enum MysteryChineseChess.MatchStatus",
          "name": "gameStatus",
          "type": "uint8"
        },
        {
          "components": [
            {
              "internalType": "uint8",
              "name": "winnerIndex",
              "type": "uint8"
            },
            {
              "internalType": "enum MysteryChineseChess.MatchResultType",
              "name": "resultType",
              "type": "uint8"
            },
            {
              "internalType": "uint8",
              "name": "increasingElo",
              "type": "uint8"
            },
            {
              "internalType": "uint8",
              "name": "decreasingElo",
              "type": "uint8"
            }
          ],
          "internalType": "struct MysteryChineseChess.MatchResult",
          "name": "matchResult",
          "type": "tuple"
        }
      ],
      "stateMutability": "view",
      "type": "function"
    },
    {
      "inputs": [
        {
          "internalType": "uint8",
          "name": "sourceRow",
          "type": "uint8"
        },
        {
          "internalType": "uint8",
          "name": "sourceCol",
          "type": "uint8"
        },
        {
          "internalType": "uint8",
          "name": "destRow",
          "type": "uint8"
        },
        {
          "internalType": "uint8",
          "name": "destCol",
          "type": "uint8"
        }
      ],
      "name": "move",
      "outputs": [
        {
          "internalType": "bool",
          "name": "",
          "type": "bool"
        }
      ],
      "stateMutability": "payable",
      "type": "function"
    },
    {
      "inputs": [
        {
          "internalType": "uint256",
          "name": "",
          "type": "uint256"
        }
      ],
      "name": "normalModeAdvancedTableIndexes",
      "outputs": [
        {
          "internalType": "uint256",
          "name": "",
          "type": "uint256"
        }
      ],
      "stateMutability": "view",
      "type": "function"
    },
    {
      "inputs": [
        {
          "internalType": "uint256",
          "name": "",
          "type": "uint256"
        }
      ],
      "name": "normalModeBeginnerTableIndexes",
      "outputs": [
        {
          "internalType": "uint256",
          "name": "",
          "type": "uint256"
        }
      ],
      "stateMutability": "view",
      "type": "function"
    },
    {
      "inputs": [
        {
          "internalType": "uint256",
          "name": "",
          "type": "uint256"
        }
      ],
      "name": "normalModeIntermediateTableIndexes",
      "outputs": [
        {
          "internalType": "uint256",
          "name": "",
          "type": "uint256"
        }
      ],
      "stateMutability": "view",
      "type": "function"
    },
    {
      "inputs": [
        {
          "internalType": "uint256",
          "name": "matchId",
          "type": "uint256"
        }
      ],
      "name": "offerDraw",
      "outputs": [],
      "stateMutability": "payable",
      "type": "function"
    },
    {
      "inputs": [
        {
          "internalType": "uint256",
          "name": "",
          "type": "uint256"
        },
        {
          "internalType": "uint256",
          "name": "",
          "type": "uint256"
        }
      ],
      "name": "originalPieces",
      "outputs": [
        {
          "internalType": "enum MysteryChineseChess.Piece",
          "name": "",
          "type": "uint8"
        }
      ],
      "stateMutability": "view",
      "type": "function"
    },
    {
      "inputs": [],
      "name": "owner",
      "outputs": [
        {
          "internalType": "address",
          "name": "",
          "type": "address"
        }
      ],
      "stateMutability": "view",
      "type": "function"
    },
    {
      "inputs": [
        {
          "internalType": "address",
          "name": "",
          "type": "address"
        }
      ],
      "name": "playerIndexes",
      "outputs": [
        {
          "internalType": "uint256",
          "name": "",
          "type": "uint256"
        }
      ],
      "stateMutability": "view",
      "type": "function"
    },
    {
      "inputs": [
        {
          "internalType": "uint256",
          "name": "",
          "type": "uint256"
        }
      ],
      "name": "players",
      "outputs": [
        {
          "internalType": "address",
          "name": "playerAddress",
          "type": "address"
        },
        {
          "internalType": "string",
          "name": "playerName",
          "type": "string"
        },
        {
          "internalType": "int32",
          "name": "elo",
          "type": "int32"
        },
        {
          "internalType": "uint256",
          "name": "tableId",
          "type": "uint256"
        }
      ],
      "stateMutability": "view",
      "type": "function"
    },
    {
      "inputs": [
        {
          "internalType": "uint256",
          "name": "",
          "type": "uint256"
        }
      ],
      "name": "rankModeTableIndexes",
      "outputs": [
        {
          "internalType": "uint256",
          "name": "",
          "type": "uint256"
        }
      ],
      "stateMutability": "view",
      "type": "function"
    },
    {
      "inputs": [
        {
          "internalType": "string",
          "name": "_name",
          "type": "string"
        }
      ],
      "name": "registerPlayer",
      "outputs": [],
      "stateMutability": "payable",
      "type": "function"
    },
    {
      "inputs": [],
      "name": "renounceOwnership",
      "outputs": [],
      "stateMutability": "nonpayable",
      "type": "function"
    },
    {
      "inputs": [
        {
          "internalType": "uint256",
          "name": "matchId",
          "type": "uint256"
        }
      ],
      "name": "resign",
      "outputs": [],
      "stateMutability": "payable",
      "type": "function"
    },
    {
      "inputs": [
        {
          "internalType": "uint256",
          "name": "tableId",
          "type": "uint256"
        }
      ],
      "name": "startNewMatch",
      "outputs": [
        {
          "components": [
            {
              "internalType": "uint256",
              "name": "id",
              "type": "uint256"
            },
            {
              "internalType": "enum MysteryChineseChess.GameMode",
              "name": "gameMode",
              "type": "uint8"
            },
            {
              "internalType": "address[2]",
              "name": "players",
              "type": "address[2]"
            },
            {
              "internalType": "uint256",
              "name": "stake",
              "type": "uint256"
            },
            {
              "internalType": "uint24",
              "name": "timeControl",
              "type": "uint24"
            },
            {
              "internalType": "uint256",
              "name": "startTimestamp",
              "type": "uint256"
            },
            {
              "internalType": "uint256",
              "name": "endTimestamp",
              "type": "uint256"
            },
            {
              "internalType": "enum MysteryChineseChess.MatchStatus",
              "name": "gameStatus",
              "type": "uint8"
            },
            {
              "components": [
                {
                  "internalType": "uint8",
                  "name": "winnerIndex",
                  "type": "uint8"
                },
                {
                  "internalType": "enum MysteryChineseChess.MatchResultType",
                  "name": "resultType",
                  "type": "uint8"
                },
                {
                  "internalType": "uint8",
                  "name": "increasingElo",
                  "type": "uint8"
                },
                {
                  "internalType": "uint8",
                  "name": "decreasingElo",
                  "type": "uint8"
                }
              ],
              "internalType": "struct MysteryChineseChess.MatchResult",
              "name": "matchResult",
              "type": "tuple"
            },
            {
              "components": [
                {
                  "internalType": "uint8",
                  "name": "color",
                  "type": "uint8"
                },
                {
                  "internalType": "enum MysteryChineseChess.Piece",
                  "name": "piece",
                  "type": "uint8"
                },
                {
                  "internalType": "bool",
                  "name": "unfolded",
                  "type": "bool"
                }
              ],
              "internalType": "struct MysteryChineseChess.PlayerPiece[9][10]",
              "name": "board",
              "type": "tuple[9][10]"
            },
            {
              "components": [
                {
                  "internalType": "uint8",
                  "name": "row",
                  "type": "uint8"
                },
                {
                  "internalType": "uint8",
                  "name": "column",
                  "type": "uint8"
                }
              ],
              "internalType": "struct MysteryChineseChess.Position[2][]",
              "name": "steps",
              "type": "tuple[2][]"
            }
          ],
          "internalType": "struct MysteryChineseChess.Match",
          "name": "newMatch",
          "type": "tuple"
        }
      ],
      "stateMutability": "payable",
      "type": "function"
    },
    {
      "inputs": [
        {
          "internalType": "uint256",
          "name": "",
          "type": "uint256"
        }
      ],
      "name": "tables",
      "outputs": [
        {
          "internalType": "uint256",
          "name": "id",
          "type": "uint256"
        },
        {
          "internalType": "enum MysteryChineseChess.GameMode",
          "name": "gameMode",
          "type": "uint8"
        },
        {
          "internalType": "string",
          "name": "name",
          "type": "string"
        },
        {
          "internalType": "uint8",
          "name": "hostIndex",
          "type": "uint8"
        },
        {
          "internalType": "uint256",
          "name": "stake",
          "type": "uint256"
        },
        {
          "internalType": "uint24",
          "name": "timeControl",
          "type": "uint24"
        },
        {
          "internalType": "uint256",
          "name": "matchId",
          "type": "uint256"
        }
      ],
      "stateMutability": "view",
      "type": "function"
    },
    {
      "inputs": [
        {
          "internalType": "address",
          "name": "newOwner",
          "type": "address"
        }
      ],
      "name": "transferOwnership",
      "outputs": [],
      "stateMutability": "nonpayable",
      "type": "function"
    },
    {
      "inputs": [
        {
          "internalType": "string",
          "name": "playerName",
          "type": "string"
        },
        {
          "internalType": "uint256",
          "name": "tableId",
          "type": "uint256"
        },
        {
          "internalType": "bool",
          "name": "setsTableId",
          "type": "bool"
        }
      ],
      "name": "updatePlayer",
      "outputs": [],
      "stateMutability": "nonpayable",
      "type": "function"
    },
    {
      "inputs": [
        {
          "components": [
            {
              "internalType": "uint256",
              "name": "id",
              "type": "uint256"
            },
            {
              "internalType": "enum MysteryChineseChess.GameMode",
              "name": "gameMode",
              "type": "uint8"
            },
            {
              "internalType": "string",
              "name": "name",
              "type": "string"
            },
            {
              "internalType": "address[2]",
              "name": "players",
              "type": "address[2]"
            },
            {
              "internalType": "uint8",
              "name": "hostIndex",
              "type": "uint8"
            },
            {
              "internalType": "uint256",
              "name": "stake",
              "type": "uint256"
            },
            {
              "internalType": "uint24",
              "name": "timeControl",
              "type": "uint24"
            },
            {
              "internalType": "uint256",
              "name": "matchId",
              "type": "uint256"
            }
          ],
          "internalType": "struct MysteryChineseChess.Table",
          "name": "c_table",
          "type": "tuple"
        }
      ],
      "name": "updateTable",
      "outputs": [],
      "stateMutability": "nonpayable",
      "type": "function"
    },
    {
      "inputs": [
        {
          "internalType": "uint256",
          "name": "matchId",
          "type": "uint256"
        }
      ],
      "name": "verifyCheckmate",
      "outputs": [],
      "stateMutability": "payable",
      "type": "function"
    }
  ],
  "bytecode": "0x608080604052331562000bbb5760008054336001600160a01b0319821681178355916001600160a01b03909116907f8be0079c531659141344cd1fd0a4f28419497f9722a3daafe3b4186f6b6457e09080a3600160406200005f62000bd1565b600281526000602082015201526014805462ffffff19166201000217905560405161014081016001600160401b038111828210176200087b5760405260005b610140811062000b525750620000b362000bf1565b60008152620000c162000c31565b600081526020820152600060408201526000606082015260015490680100000000000000008210156200087b576001820180600155821015620009455760016000528051600283901b7fb10e2d527612073b26eecdfd717e6a320cf44b4afac2b0732d9fcbe2b7fa0cf690810180546001600160a01b0319166001600160a01b03939093169290921790915560208201518051919291906001600160401b0382116200087b5760018560021b85010154600181811c9116801562000b47575b602082101462000a5857601f811162000b09575b50602090601f831160011462000a85579180600395949260609460009262000a79575b50508160011b9160001990871b1c19161760018660021b850101555b600285811b840101604082015163ffffffff198254169063ffffffff1617905501519260021b0101556200020662000c11565b60008082526020820152604051906001600160401b036101008301908111908311176200087b57610100820160405260008252600060208301526200024a62000c31565b600081526040830152606082015260006080820152600060a0820152600060c0820152600060e082015260035490680100000000000000008210156200087b57600182018060035582101562000945576003600052602060002090805160098402830155602081015160068110156200090957620002d19060016009860285010162000c6a565b60408101518051906001600160401b0382116200087b576002600986028501015490600182811c9216801562000a6e575b602083101462000a585781601f84931162000a0e575b50602090601f83116001146200098d5760009262000981575b50508160011b916000199060031b1c191617600260098502840101555b606081015160005b600281106200095b575050608081015160099390930290910160058101805460ff191660ff949094169390931790925560a0810151600683015560c081015160078301805462ffffff191662ffffff9290921691909117905560e0015160089190910155620003c462000c11565b906000825260006020830152620003da62000bf1565b60008152600060208201526000604082015260006060820152604051928361016081011060018060401b03610160860111176200087b576101608401604052600084526000602085015260408401526000606084015260006080840152600060a0840152600060c0840152600260e08401526101008301526101208201526060610140820152600854680100000000000000008110156200087b57600181018060085581101562000945576008600052602060002090825160658202830155602083015160068110156200090957620004bc9060016065840285010162000c6a565b604083015160005b600281106200091f57505060608301516065820283016004810191909155608084015160058201805462ffffff191662ffffff9290921691909117905560a0840151600682015560c084015160079091015560e0830151600381101562000909576008606583028401908101805460ff191660ff93841617905561010085015180516009928301546020830151949293919092169190841015620009095762ff00009161ff0063ff0000006060604087015196015160181b169560081b169163ffffffff191617179160101b16171760096065830284010155610120830151600a606583028401016000915b600a831062000891576101408601518051606586028701606401916801000000000000000082116200087b5782548284558083106200080d575b50602001916000526020600020916000905b828210620007b557604051604160f81b815260096001820152602180912060ff19815416905580604051602160f91b81526009600182015220600160ff1982541617905580604051604360f81b81526009600182015220600260ff1982541617905580604051601160fa1b81526009600182015220600360ff1982541617905580604051604560f81b81526009600182015220600460ff1982541617905580604051602360f91b81526009600182015220600560ff1982541617905580604051604760f81b81526009600182015220600660ff1982541617905580604051600960fb1b81526009600182015220600760ff1982541617905580604051604960f81b81526009600182015220600860ff19825416179055604051602560f91b81526009600182015220600960ff19825416179055600a546013549068050403020002030405918268ffffffff00ffffffff1980931617600a55161760135567060000000000060067ff0000000000ff00198181600c541617600c5560115416176011556807000700070007000768ff00ff00ff00ff00ff198181600d541617600d556010541617601055604051614307908162000c848239f35b8051846000915b60028310620007dc575050506002602060019201940191019092620005fc565b600160208282935160ff81511661ff0084885493015160081b169161ffff19161717855501920192019190620007bc565b6001600160ff1b03818116820362000865578316830362000865578360005260206000209060011b8101908360011b015b8181106200084d5750620005ea565b806200085e60028093018262000c51565b016200083e565b634e487b7160e01b600052601160045260246000fd5b634e487b7160e01b600052604160045260246000fd5b8051826000915b60098310620008b8575050506009602060019201920192019190620005b0565b805160ff81511690835492602082015160088110156200090957600194859461ff0062ff000060406020970151151560101b169360081b169162ffffff191617171785550192019201919062000898565b634e487b7160e01b600052602160045260246000fd5b81516001600160a01b0316600260658502860183010155602090910190600101620004c4565b634e487b7160e01b600052603260045260246000fd5b81516001600160a01b031660036009870286018301015560209091019060010162000356565b01519050868062000331565b92506002600987028601016000526020600020906000935b601f1984168510620009f2576001945083601f19811610620009d8575b505050811b01600260098502840101556200034e565b015160001960f88460031b161c19169055868080620009c2565b81810151835560209485019460019093019290910190620009a5565b62000a46906002600989028801016000526020600020601f850160051c8101916020861062000a4d575b601f0160051c019062000c51565b8762000318565b909150819062000a38565b634e487b7160e01b600052602260045260246000fd5b91607f169162000302565b015190508880620001b7565b9060018660021b86010160005260206000209160005b601f198516811062000af0575092600395949260019260609583601f1981161062000ad7575b505050811b0160018660021b85010155620001d3565b015160001983891b60f8161c1916905588808062000ac1565b9192602060018192868501518155019401920162000a9b565b62000b409060018760021b8701016000526020600020601f850160051c8101916020861062000a4d57601f0160051c019062000c51565b8662000194565b90607f169062000180565b6040516101208082016001600160401b038111838210176200087b5760405260005b81811062000b8b575050828201526020016200009e565b90602080959262000b9b62000bd1565b600081526000838201526000604082015281860152019091945062000b74565b631e4fbdf760e01b815260006004820152602490fd5b60405190606082016001600160401b038111838210176200087b57604052565b60405190608082016001600160401b038111838210176200087b57604052565b60408051919082016001600160401b038111838210176200087b57604052565b60405190602082016001600160401b038111838210176200087b57604052565b81811062000c5d575050565b6000815560010162000c51565b906006811015620009095760ff8019835416911617905556fe608080604052600436101561001357600080fd5b60003560e01c90816308d9801c14612ac057816309c95e1014612a8857508063115577bc146129ac578063195e251f14612970578063200301e21461291f578063225b031d1461290357806336d18b67146128e75780633823bb031461279557806338b8abe61461257d5780633d092b3d146124ec5780634768d4ef146124445780634e02a7151461133c5780634f5ba44d146123f3578063559028fc146120e35780635c12cd4b14611fe25780636f86c80614611448578063715018a6146113ef57806371671bf21461134157806384ff731c1461133c5780638da5cb5b1461131357806391628795146112d95780639bfb29781461108f578063b3446f8514610d92578063c17c5a4514610ca9578063c7e5992c146108ff578063d2ccd05714610857578063e1e20c2014610807578063ea77647b146107b6578063eed79abb14610765578063efa1c48214610692578063efb79e3514610674578063f1819eb9146102a6578063f2fde38b146102205763f71d96cb1461019557600080fd5b3461021b57602036600319011261021b5760043560015481101561021b576101bc9061314d565b5060018060a01b03815416604051916101e3836101dc8160018501613065565b0384612f59565b600360028201549101546102096040519485948552608060208601526080850190612b17565b9160030b604084015260608301520390f35b600080fd5b3461021b57602036600319011261021b57610239612ad1565b610241613cc6565b6001600160a01b0390811690811561028d576000548260018060a01b0319821617600055167f8be0079c531659141344cd1fd0a4f28419497f9722a3daafe3b4186f6b6457e0600080a3005b604051631e4fbdf760e01b815260006004820152602490fd5b3461021b5760208060031936011261021b5760043590604051629c95e160e41b81523360048201528181602481305afa9081156106685760009161063b575b501561062a576102f48261300c565b50541561059457606061030f6103098461300c565b50613416565b015160018060a01b0390818381835116331415928361061a575b5050506105d85760039060008261033f33613e56565b015561034a8461300c565b50918083013383825416146000146105d15760005b61036881613cb5565b958461037488856134a5565b905490861b1c161561045f5750918593917f2de3400c5320d2aca62a876730addbd498e102edf4a9fbb7cb99d7f1d6b56010979593600160ff610403991614610408575b509160ff93916103d36005946103cd88613cb5565b906134a5565b81939154921b1b1916905501911660ff198254161790555b60408051338152602081019290925290918291820190565b0390a1005b9161044e60ff959361043086610422869a600599976134a5565b905490861b1c1691896134a5565b90919060018060a01b038084549260031b9316831b921b1916179055565b6103d36000969294505091936103b8565b93505050600093508392506105406104846105209261047d33613e56565b0154613cf2565b926104ca60316040518096700383630bcb2b9173a30b13632a4b2101e9607d1b858301526104ba81518092878686019101612af4565b8101036011810187520185612f59565b6105326040516104d981612e98565b60178152762e20537461727420746f2064656c657465207461626c6560481b83820152604051948593840196634b5c427760e01b8852604060248601526064850190612b17565b83810360231901604485015290612b17565b03601f198101835282612f59565b51906a636f6e736f6c652e6c6f675afa5061055a8161300c565b505415610594576104038161058f7f2de3400c5320d2aca62a876730addbd498e102edf4a9fbb7cb99d7f1d6b5601093613f43565b6103eb565b604051633bca200b60e21b81526020600482015260146024820152731518589b1948191bd95cc81b9bdd08195e1a5cdd60621b6044820152606490fd5b600161035f565b6040516312a441ad60e01b8152602060048201526019602482015278596f7520617265206e6f7420696e2074686973207461626c6560381b6044820152606490fd5b0151163314159050818386610329565b6040516282b42960e81b8152600490fd5b61065b9150823d8411610661575b6106538183612f59565b8101906134b5565b836102e5565b503d610649565b6040513d6000823e3d90fd5b3461021b57600036600319011261021b576020604051621b77408152f35b3461021b57600036600319011261021b5760018054906106b1826136a9565b906106bf6040519283612f59565b828252602080830193846001600052826000206000915b83831061073e5750505050604051928184019082855251809152604084019160408260051b86010195926000905b8382106107115786880387f35b9091929394838061072d839a603f198b82030186528951612fcd565b999701959493919091019101610704565b94600485829997610751859a989a6139b9565b8152019201920191909694969593956106d6565b3461021b57602036600319011261021b5760043560055481101561021b5760056000527f036b6384b5eca791c62761152d0c79bb0604c104a5fb6f4eb0703f3154bb3db00154604051908152602090f35b3461021b57602036600319011261021b5760043560075481101561021b5760076000527fa66cc928b5edb82af9bd49922954155ab7b0942694bea4ce44661d9a8736c6880154604051908152602090f35b3461021b57604036600319011261021b57600435602435600a82101561021b57600981101561021b576108558160ff600a60209560f89560051c01015460405194859360031b161c16612cd5565bf35b3461021b57606036600319011261021b57600435600681101561021b5760243562ffffff8116810361021b576044359061ffff8216820361021b5761089b92613a6b565b60405160209160208201926020835281518094526040830193602060408260051b8601019301916000955b8287106108d35785850386f35b9091929382806108ef600193603f198a82030186528851612b6d565b96019201960195929190926108c6565b3461021b576020600319818136011261021b576001600160401b039160043583811161021b576101208093823603011261021b576040519261094084612eb3565b816004013584526024820135600681101561021b5783850152604482013585811161021b5782013660238201121561021b57610986903690602460048201359101613116565b93604081019485523660838401121561021b576040516109a581612e98565b8060a485019136831161021b5760648601905b838210610c8a57505060608301523560ff8116810361021b57608082015260a0810160c4840135815260e48401359162ffffff94858416840361021b576101049060c08301948552013560e0820152610a11815161300c565b50541561059457610a22905161300c565b509580518681518015159283610c36575b505050610b2c575b5060008051602061429283398151915296509083915180151580610b1e575b610b13575b50511680151580610b03575b610aed575b506008604051948486958652815490860152610a9760ff6001830154166040870190612ae7565b826060860152610aae610140860160028301613065565b93610abf60808701600384016133e4565b60ff60058301541660c0870152600682015460e08701526007820154166101008601520154908301520390a1005b600785019062ffffff1982541617905585610a70565b5082600786015416811415610a6b565b600687015587610a5f565b506006870154811415610a5a565b519660028701908851908111610c2057610b5081610b4a845461302b565b846131b8565b86601f8211600114610ba857818795949392610b93926000805160206142928339815191529c600092610b9d575b50508160011b916000199060031b1c19161790565b90555b9091610a3b565b015190508c80610b7e565b601f1982169983600052886000209a60005b818110610c0957509a60019284928a989796956000805160206142928339815191529e10610bf0575b505050811b019055610b96565b015160001960f88460031b161c191690558b8080610be3565b838301518d556001909c019b928a01928a01610bba565b634e487b7160e01b600052604160045260246000fd5b829350918192610c6292610c5560405195869385850198899101612af4565b8101038084520182612f59565b51902060405187810190610c7d816105328460028e016134cd565b5190201415868a80610a33565b81356001600160a01b038116810361021b5781529087019087016109b8565b3461021b57600036600319011261021b57600854610cc6816136a9565b90610cd46040519283612f59565b80825260086000908152602091828401917ff3f7a9fe364faab93b216da50a3214154f22a0a2b415b23a84c8169e8b636ee3835b838310610d6f5750505050604051918083019381845251809452604083019360408160051b85010192916000955b828710610d435785850386f35b909192938280610d5f600193603f198a82030186528851612ce2565b9601920196019592919092610d36565b606586600192610d81859a999a6136c0565b815201920192019190959495610d08565b60208060031936011261021b576001600160401b039060043582811161021b57610dc0903690600401612c65565b919060405193629c95e160e41b855233600486015260249483818781305afa90811561066857600091611072575b50611032578315610ff657600190610e1982549360405196610e0f88612ecf565b3388523691613116565b848601908152604086019060008252606087019260008452600160401b861015610fe1578486018555610e4b8661314d565b959095610fcc57885186546001600160a01b0319166001600160a01b03919091161786559151805190998387019391928311610fb85750610e9682610e90855461302b565b856131b8565b8790601f8311600114610f2f575081600395949392610eed927f1a9f78dbaab8e275c9024eed0763e6dbd23496aa15c942786fb1f868cb5832b29c600092610b9d5750508160011b916000199060031b1c19161790565b90555b60028401905163ffffffff198254169063ffffffff16179055519101553360005260028252604060002055610403604051928284938452830190612fcd565b9190601f1982169a84600052896000209b60005b818110610fa35750917f1a9f78dbaab8e275c9024eed0763e6dbd23496aa15c942786fb1f868cb5832b29c9184600399989796959410610f8b575b505050811b019055610ef0565b015160001983891b60f8161c191690558b8080610f7e565b838301518e559c85019c928b01928b01610f43565b634e487b7160e01b60009081526041600452fd5b89634e487b7160e01b60005260006004526000fd5b88634e487b7160e01b60005260416004526000fd5b6040516312a441ad60e01b815260048101849052601481870152734e616d652063616e6e6f7420626520656d70747960601b6044820152606490fd5b60405162461bcd60e51b81526004810184905260198187015278141b185e595c88185b1c9958591e481c9959da5cdd195c9959603a1b6044820152606490fd5b6110899150843d8611610661576106538183612f59565b86610dee565b3461021b57606036600319011261021b57600435600681101561021b5760249081356001600160401b03811161021b576110cd903690600401612c65565b92909160035492611112604051916110e483612e98565b33835260006020840152604051966110fb88612eb3565b86885261110b8560208a0161317d565b3691613116565b604086015260608501526000608085015260443560a0850152621b774060c0850152600060e08501526111448461336c565b82600361115033613e56565b0155600281036111c0575060045490600160401b821015610fb85750916111ac610403926111938560016000805160206142728339815191529701600455612c4a565b90919082549060031b91821b91600019901b1916179055565b604051918291602083526020830190612b6d565b60038103611206575060055490600160401b821015610fb8575091611201610403926111938560016000805160206142728339815191529701600555612c2f565b6111ac565b60048103611247575060065490600160401b821015610fb8575091611201610403926111938560016000805160206142728339815191529701600655612c14565b6005036112865760075490600160401b821015610fb8575091611201610403926111938560016000805160206142728339815191529701600755612be3565b6084906025604051916312a441ad60e01b8352602060048401528201527f496e76616c69642047616d654d6f64652e2043616e6e6f7420637265617465206044820152647461626c6560d81b6064820152fd5b3461021b57602036600319011261021b576001600160a01b036112fa612ad1565b1660005260026020526020604060002054604051908152f35b3461021b57600036600319011261021b576000546040516001600160a01b039091168152602090f35b612fbf565b3461021b57602036600319011261021b5760043560035481101561021b576113689061300c565b50805460ff6001830154169160405161138f816113888160028601613065565b0382612f59565b60ff6005830154169160068101546113d6600862ffffff600785015416930154936113c560405198899889526020890190612ae7565b60e0604088015260e0870190612b17565b936060860152608085015260a084015260c08301520390f35b3461021b57600036600319011261021b57611408613cc6565b600080546001600160a01b0319811682556001600160a01b03167f8be0079c531659141344cd1fd0a4f28419497f9722a3daafe3b4186f6b6457e08280a3005b602036600319011261021b5760043561145f613618565b50604051629c95e160e41b8152336004820152602081602481305afa90811561066857600091611fc3575b501561062a576114998161300c565b505415610594576114ae61030960609261300c565b015180516001600160a01b03163314159081611fab575b506105d857604051635c12cd4b60e01b8152336004820152600081602481305afa80156106685760606103099161150693600091611f88575b50015161300c565b60608101805180516001600160a01b031615908115611f72575b50611f2c57815160405160208101913360601b835242603483015260548201526054815261154d81612ecf565b519020918260e08201526020810151916006831015611d0657828491519262ffffff60c060a0830151920151166115826135c3565b5060405161158f81612f3d565b61159881613551565b6040516115a481612f3d565b6115ad81613551565b6040519687946115bc86612f3d565b6115c586613551565b6040516115d181612f3d565b6115da81613551565b604051906115e782612f3d565b6115f082613551565b604051996115fd8b612f3d565b6116068b613551565b6040519261161384612f3d565b61161c84613551565b6040519b6116298d612f3d565b6116328d613551565b6040519161163f83612f3d565b61164883613551565b6040519b6116558d612f3d565b61165e8d613551565b6116666135c3565b998b8b5260208b015260408a01528460608a0152608089015260a08801528360c08801528b60e0880152610100870152886101208701526040516116a981612eea565b60008152600160208201526001604082015260808801526040516116cc81612eea565b60018152600160208201526001604082015260808a01526116f76040516116f281612f21565b61358a565b6040519561170487612f21565b6002875260076020880152600660408801526007606088015260056080880152600360a0880152600760c0880152600260e08801526004610100880152600761012088015260036101408801526006610160880152600761018088015260056101a088015260046101c08801526040519661177e88612f21565b6117878861358a565b600f60006000195b600f8210611e5857505050506117aa6040516116f281612f21565b6040519a6117b78c612f21565b60028c52600760208d0152600660408d0152600760608d0152600560808d0152600360a08d0152600760c08d0152600260e08d015260046101008d015260076101208d015260036101408d015260066101608d015260076101808d015260056101a08d015260046101c08d01526040519b6118318d612f21565b61183a8d61358a565b600f60006000195b600f8210611d52575050505060009960005b60ff6009818316101561190057816118e29f9e9d8f8f9093829f9e9d9c9b9a99989796958f908f90966004846118da9916146118f5576118b86118be936118a1866118d499168095613e7b565b516118ae878b16836139a8565b52858916906139a8565b50613e7b565b516118cb828616846139a8565b528316906139a8565b5061316c565b9d8e9b61316c565b9b9c9d5090919293949596979899611854565b50505050505061316c565b5050918c93918f938f61195d9061193d8f8e9a9860e06119348d60ff8516906119298282613e7b565b516020860152613e7b565b5191015261316c565b9060e061193460ff8416611951818d613e7b565b5160208501528b613e7b565b986000995b600960ff8c1610156119f357808b6119b560ff6119ac8d8c61199861198d856119c39a168094613e7b565b5191858816906139a8565b526119a58584168e6139a8565b508d613e7b565b5192168d6139a8565b526118d460ff8d168c6139a8565b9960ff600281831601116119dd5760ff1660020199611962565b634e487b7160e01b600052601160045260246000fd5b508a611a3660405194611a0586612ecf565b6000865260006020870152600a6040870152600a606087015260405197611a2b89612f05565b88526020880161317d565b6040860152606085015260808401524260a0840152600060c0840152600060e08401526101008301526101208201526060610140820152600854600160401b811015610c2057806001611a8c9201600855612e79565b611d3c578151815560208201516006811015611d0657611aaf9060018301613189565b604082015160005b60028110611d1c575050606082015160048201556005810162ffffff60808401511662ffffff1982541617905560a0820151600682015560c0820151600782015560e08201516003811015611d065760ff8019600884015416911617600882015561010082015160ff815116906009830154916020820151926009841015611d065762ff00009161ff0063ff0000006060604087015196015160181b169560081b169163ffffffff191617179160101b1617176009820155610120820151600a82016000915b600a8310611c9257610140850151805186916064870190600160401b8311610c20578154838355808410611c33575b506020019060005260206000206000915b838310611bde5760405160208082528190611bda90820188612ce2565b0390f35b8051826000915b60028310611c03575050506002602060019201920192019190611bbd565b600160208282935160ff81511661ff0084885493015160081b169161ffff19161717855501920192019190611be5565b6001600160ff1b0381811682036119dd57841684036119dd578260005260206000209060011b8101908460011b015b818110611c6f5750611bac565b60028101815b818110611c86575050600201611c62565b60008155600101611c75565b8051826000915b60098310611cb7575050506009602060019201920192019190611b7d565b805160ff8151169083549260208201516008811015611d0657600194859461ff0062ff000060406020970151151560101b169360081b169162ffffff1916171717855501920192019190611c99565b634e487b7160e01b600052602160045260246000fd5b81516001600160a01b031660028285010155602090910190600101611ab7565b634e487b7160e01b600052600060045260246000fd5b939f9b9a999897969594939c9e9d9c60405160208101913360601b835242603483015260f81b605482015260358152611d8a81612eea565b51902060ff831615611e4257818f92611dee9060ff60019481881690061694611dbb611db6878a613e7b565b613a04565b611dd760405191611dcb83612eea565b8783526020830161369d565b60006040820152611de88383613e7b565b52613e7b565b506000611e2a84820b9560ff831991160194611e2460ff871691611e1f611e18611db6858d613e7b565b918b613e7b565b61369d565b87613e7b565b520190919f939495969798999a9b9f9e9c9d9e611842565b634e487b7160e01b600052601260045260246000fd5b9d9e9a999897969594939c9b9d60405160208101913360601b835242603483015260f81b605482015260358152611e8e81612eea565b51902060ff831615611e425760ff60019181851690061691611eb3611db68487613e7b565b611ed060405191611ec383612eea565b600083526020830161369d565b60006040820152611ee1828d613e7b565b52611eec818c613e7b565b506000611f1684820b9560ff831991160194611e2460ff871691611e1f611e18611db6858d613e7b565b520190919e9d9b9c939495969798999a9e61178f565b6040516312a441ad60e01b815260206004820152601b60248201527f4e6f7420656e6f75676820706c617965727320746f20737461727400000000006044820152606490fd5b602001516001600160a01b031615905083611520565b611fa591503d806000833e611f9d8183612f59565b8101906138c8565b846114fe565b602001516001600160a01b03163314159050816114c5565b611fdc915060203d602011610661576106538183612f59565b8261148a565b3461021b5760208060031936011261021b57611ffc612ad1565b6000606060405161200c81612ecf565b8281528185820152826040820152015260405190629c95e160e41b825260018060a01b0316908160048201528281602481305afa908115610668576000916120c6575b5015612088576000526002815261207361206d60406000205461314d565b506139b9565b90611bda604051928284938452830190612fcd565b604051633bca200b60e21b8152600481018390526015602482015274141b185e595c88191bd95cc81b9bdd08195e1a5cdd605a1b6044820152606490fd5b6120dd9150833d8511610661576106538183612f59565b8361204f565b608036600319011261021b5760043560ff80821680920361021b5760249182359082821680920361021b576044359280841680940361021b576064359481861680960361021b57600a8310806123e9575b806123df575b806123d5575b1561021b57604051635c12cd4b60e01b81523360048201526000818381305afa8015610668576060916000916123ba575b500180511561236b5761218961030960e0925161300c565b0180511561232c5761219e6121a49151612e79565b506136c0565b604081015180516001600160a01b03908116330361230d5750508260005b1690600282036122be576121e761012085920151966121e18789613997565b516139a8565b5151160361228b576001604061227d886121e189896122778a8a61223087612213816121e18689613997565b5161221e8888613997565b519061222a83836139a8565b526139a8565b5061223b8285613997565b519089519061224982612eea565b6014548181168352612263828260081c166020850161369d565b60101c1615158a82015261222a83836139a8565b50613997565b510152602060405160018152f35b606490600c6040519162461bcd60e51b8352602060048401528201526b496e76616c6964206d6f766560a01b6044820152fd5b60405162461bcd60e51b8152602060048201526022818501527f596f75206861736e2774206265656e206265696e6720696e20616e79206d61746044820152610c6d60f31b6064820152608490fd5b6020339201511614600014612324578260016121c2565b8260026121c2565b60405162461bcd60e51b8152602060048201526018818401527711d85b59481a185cdb89dd081899595b881cdd185c9d195960421b6044820152606490fd5b60405162461bcd60e51b8152602060048201526022818401527f596f75206861736e2774206265656e206265696e6720696e20616e79207461626044820152616c6560f01b6064820152608490fd5b6123cf91503d806000833e611f9d8183612f59565b88612171565b5060098610612140565b506009841061213a565b50600a8510612134565b3461021b57602036600319011261021b5760043560065481101561021b5760066000527ff652222313e28459528d920b65115c16c04f3efc82aaedc97be59f3f377c0d3f0154604051908152602090f35b3461021b57602036600319011261021b5760043560085481101561021b5761246e61016091612e79565b506108558154916124e260ff60018301541691600481015462ffffff6005830154166006830154906007840154926124c46124b3600960ff6008890154169701612f7a565b976040519a8b5260208b0190612ae7565b60408901526060880152608087015260a086015260c0850190612c92565b60e0830190612c9f565b3461021b57602036600319011261021b57600435612508613618565b5061251281612e79565b50541561253c5761252861219e611bda92612e79565b604051918291602083526020830190612ce2565b604051633bca200b60e21b8152602060048201526018602482015277151a19481b585d18da08191bd95cc81b9bdd08195e1a5cdd60421b6044820152606490fd5b3461021b57606036600319011261021b576001600160401b0360043581811161021b576125ae903690600401612c65565b9190604435801515810361021b57604051629c95e160e41b8152336004820152602093908481602481305afa90811561066857600091612778575b501561062a57336000526002845261260560406000205461314d565b50928515158061272e575b612645575b50506000805160206142b28339815191529350612637575b50604051338152a1005b60036024359101558261262d565b60019060018501928711610c205761266187610e90855461302b565b600091601f88116001146126b7575095806126a2926000805160206142b2833981519152986000926126ac5750508160011b916000199060031b1c19161790565b90555b8480612615565b013590508880610b7e565b91601f1988168460005287600020936000905b8282106127175750509160019391896000805160206142b28339815191529a94106126fd575b505050811b0190556126a5565b0135600019600384901b60f8161c191690558780806126f0565b8484013586559485019492890192908901906126ca565b50604051858101908783833761275387828a8101600083820152038084520182612f59565b5190206040518681019061276e816105328460018b016134cd565b5190201415612610565b61278f9150853d8711610661576106538183612f59565b866125e9565b3461021b57602036600319011261021b576004356127b28161300c565b505415610594576127c28161300c565b5060029160038201916004810160018060a01b0380825416156128de575b80855416156128d5575b600260ff87161461289b5780856128466128287f763c767a5382e600b41ed4384a37ec09f8ca82425090658ecab866f16effc74199610403996134a5565b81546001600160a01b0360039290921b91821b19163390911b179055565b85600361285233613e56565b0155541615918261288f575b505061287e575b5060408051338152602081019290925290918291820190565b600501805460ff1916905583612865565b5416159050858061285e565b6040516312a441ad60e01b8152602060048201526011602482015270151a19481d18589b19481a5cc8199d5b1b607a1b6044820152606490fd5b600095506127ea565b600195506127e0565b3461021b57600036600319011261021b57602060405160008152f35b3461021b57600036600319011261021b57602060405160018152f35b3461021b57602036600319011261021b5760043560045481101561021b5760046000527f8a35acfbc15ff81a39ae7d344fd709f28e8600b4aa8c65c6b64bfe7fe36bd19b0154604051908152602090f35b3461021b57602036600319011261021b5760043561298c613395565b506129968161300c565b505415610594576111ac610309611bda9261300c565b600036600319011261021b576129c0613cc6565b600180805b6129cb57005b60ff81169060148211612a8657612a7b826129e8612a8094613cf2565b6040516020916402937b7b6960dd1b83830152612a2782602592612a1481518092888786019101612af4565b8101039160059283810185520183612f59565b60405192612a3484612e98565b6000845260008185015260405194612a4b86612eb3565b85528401526040830152606082015260006080820152600060a0820152600060c0820152600060e082015261336c565b61316c565b816129c5565b005b3461021b57602036600319011261021b576020906001600160a01b03612aac612ad1565b166000526002825260406000205415158152f35b602036600319011261021b57600080fd5b600435906001600160a01b038216820361021b57565b906006821015611d065752565b60005b838110612b075750506000910152565b8181015183820152602001612af7565b90602091612b3081518092818552858086019101612af4565b601f01601f1916010190565b6000915b60028310612b4d57505050565b81516001600160a01b031681526001929092019160209182019101612b40565b9061010060e0612ba361012085518552612b8f60208701516020870190612ae7565b604086015190806040870152850190612b17565b93612bb660608201516060860190612b3c565b60ff60808201511660a085015260a081015160c085015262ffffff60c08201511682850152015191015290565b600754811015612bfe57600760005260206000200190600090565b634e487b7160e01b600052603260045260246000fd5b600654811015612bfe57600660005260206000200190600090565b600554811015612bfe57600560005260206000200190600090565b600454811015612bfe57600460005260206000200190600090565b9181601f8401121561021b578235916001600160401b03831161021b576020838186019501011161021b57565b906003821015611d065752565b60ff81511682526020810151906009821015611d0657606060ff9181936020860152826040820151166040860152015116910152565b906008821015611d065752565b612380918281019082518152602090612d018285015183830190612ae7565b604090612d1660408601516040830190612b3c565b606094606081015195608096608084015262ffffff60808301511660a084015260a082015160c084015260c082015160e084015260e0820151612d5f6101009182860190612c92565b820151612d726101209182860190612c9f565b8201516000906101a085015b600a8310612e11575050505083916101406123a0920151976123608201528751809652019501936000915b848310612db95750505050505090565b909192939495848388518390856000925b60028410612de8575050509201970195949360010192919050612da9565b8260019496939550518360ff918281511684520151168382015201920192018792858793612dca565b87829a9798999a5182866000915b60098310612e425750505050610360600192019201920191909897969598612d7e565b908394918d80600195965160ff8151168452612e648682015187860190612cd5565b01511515908201520193019101868c93612e1f565b600854811015612bfe5760086000526065602060002091020190600090565b604081019081106001600160401b03821117610c2057604052565b61010081019081106001600160401b03821117610c2057604052565b608081019081106001600160401b03821117610c2057604052565b606081019081106001600160401b03821117610c2057604052565b61016081019081106001600160401b03821117610c2057604052565b6101e081019081106001600160401b03821117610c2057604052565b61012081019081106001600160401b03821117610c2057604052565b90601f801991011681019081106001600160401b03821117610c2057604052565b90604051612f8781612ecf565b80925460ff8116825260ff8160081c166009811015611d065760609160ff916020850152818160101c16604085015260181c16910152565b602036600319011261021b57005b9060018060a01b038251168152606080612ff66020850151608060208601526080850190612b17565b93604081015160030b6040850152015191015290565b600354811015612bfe5760036000526009602060002091020190600090565b90600182811c9216801561305b575b602083101461304557565b634e487b7160e01b600052602260045260246000fd5b91607f169161303a565b8054600093926130748261302b565b918282526020936001916001811690816000146130dc575060011461309b575b5050505050565b90939495506000929192528360002092846000945b8386106130c857505050500101903880808080613094565b8054858701830152940193859082016130b0565b60ff19168685015250505090151560051b010191503880808080613094565b6001600160401b038111610c2057601f01601f191660200190565b929192613122826130fb565b916131306040519384612f59565b82948184528183011161021b578281602093846000960137010152565b600154811015612bfe57600160005260206000209060021b0190600090565b60ff1660ff81146119dd5760010190565b6006821015611d065752565b906006811015611d065760ff80198354169116179055565b8181106131ac575050565b600081556001016131a1565b9190601f81116131c757505050565b6131f3926000526020600020906020601f840160051c830193106131f5575b601f0160051c01906131a1565b565b90915081906131e6565b9190611d3c578051825560016020808301516006811015611d06576132279060018601613189565b6002906002850160408501518051906001600160401b038211610c205761325282610e90855461302b565b8390601f8311600114613305576132819291600091836132fa5750508160011b916000199060031b1c19161790565b90555b60608401519060005b8381106132dd57505050505060e06008916005840160ff60808301511660ff1982541617905560a081015160068501556007840162ffffff60c08301511662ffffff198254161790550151910155565b82516001600160a01b03168782016003015591810191840161328d565b015190503880610b7e565b90601f1983169184600052856000209260005b878a8383106133585750505090846001959493921061333f575b505050811b019055613284565b015160001960f88460031b161c19169055388080613332565b859682939686015181550195019301613318565b60035490600160401b821015610c205761338f8260016131f3940160035561300c565b906131ff565b604051906133a282612eb3565b8160e0600091828152826020820152606060408201526040516133c481612e98565b604036823760608201528260808201528260a08201528260c08201520152565b906000905b600282106133f657505050565b82546001600160a01b0316815260019283019291909101906020016133e9565b9060405161342381612eb3565b60e0600882948054845261344160ff6001830154166020860161317d565b604051613455816113888160028601613065565b604085015260405161346a81600384016133e4565b61347381612e98565b606085015260ff6005820154166080850152600681015460a085015262ffffff60078201541660c08501520154910152565b6002821015612bfe570190600090565b9081602091031261021b5751801515810361021b5790565b6000929181546134dc8161302b565b9260019180831690811561353657506001146134f9575b50505050565b9091929394506000526020906020600020906000915b85831061352557505050500190388080806134f3565b80548584015291830191810161350f565b60ff19168452505050811515909102019150388080806134f3565b6000805b610120811061356357505050565b60209060408381519161357583612eea565b81835281858401528201528185015201613555565b6000805b6101e0811061359c57505050565b6020906040838151916135ae83612eea565b8183528185840152820152818501520161358e565b604090604051610140908181018181106001600160401b03821117610c2057604052809360005b8381106135f75750505050565b602090825161360581612f3d565b61360e81613551565b81850152016135ea565b6040906060610140835161362b81612f05565b80946000808352806020840152815161364381612e98565b823682378284015280858401528060808401528060a08401528060c08401528060e08401528082519261367584612ecf565b818452816020850152830152848201526101008201526136936135c3565b6101208201520152565b6008821015611d065752565b6001600160401b038111610c205760051b60200190565b906040516136cd81612f05565b8092805482526136e760ff6001830154166020840161317d565b6040516136f781600284016133e4565b61370081612e98565b60408301526004810154606083015262ffffff6005820154166080830152600681015460a0830152600781015460c083015260ff6008820154166003811015611d065760e083015261375460098201612f7a565b61010083015260405161014081018181106001600160401b03821117610c2057604052600a82016000825b600a82106138385750505090606491610120840152019081546137a1816136a9565b926137af6040519485612f59565b818452602084019060005260206000206000915b8383106137d557505050506101400152565b6040516137e181612e98565b600083825b600283106138075750505060208260029260019452019201920191906137c3565b60016020819260405161381981612e98565b60ff8654818116835260081c16838201528152019201920191906137e6565b604051806101208101106001600160401b0361012083011117610c20576101208101604052600084825b6009831061388357505050602082600992600194520193019101909161377f565b60016020819260405161389581612eea565b60ff865481811683526138af828260081c1686850161369d565b60101c1615156040820152815201920192019190613862565b90602090818382031261021b5782516001600160401b039384821161021b57019160808383031261021b576040519361390085612ecf565b83516001600160a01b038116810361021b5785528184015190811161021b57830182601f8201121561021b578051613937816130fb565b936139456040519586612f59565b81855283828401011161021b5761396191838086019101612af4565b8301526040810151908160030b820361021b5760609160408401520151606082015290565b906002811015612bfe5760051b0190565b90600a811015612bfe5760051b0190565b906009811015612bfe5760051b0190565b906040516139c681612ecf565b60606003829460018060a01b0381541684526040516139ec816113888160018601613065565b60208501526002810154820b60408501520154910152565b516008811015611d065790565b62ffffff90811660001901919082116119dd57565b91909162ffffff808094169116029182169182036119dd57565b91909162ffffff808094169116019182116119dd57565b8051821015612bfe5760209160051b010190565b929161ffff1692613a7b846136a9565b92604091613a8c6040519586612f59565b858552601f19613a9b876136a9565b0160005b818110613c9e5750506006811015611d06578015613c1a5760028103613bad575060049183955b62ffffff9081613ade82613ad989613a11565b613a26565b1682613b00613afb84613af681613ad98c549d613a11565b613a40565b613a11565b16811015613ba25783516000806020928381019063f82c50f160e01b8252602486818301528152613b3081612eea565b51906a636f6e736f6c652e6c6f675afa5087821015613b965791613af681613ad9600185613b86818f613b768f613afb9b613b009d61030992600052600020015461300c565b613b808383613a57565b52613a57565b500194919592848895928f613a11565b50505050509350505090565b505050509350505090565b60038103613bc157506005915b8395613ac6565b60048103613bd25750600691613bba565b600503613be157600791613bba565b6040516312a441ad60e01b815260206004820152601060248201526f496e76616c69642047616d654d6f646560801b6044820152606490fd5b509193905062ffffff80613c3183613ad988613a11565b1691600354925b82613c4a83613af681613ad98c613a11565b16811015613c9557838114613c955790613af681613ad9600185613c73610309613c4a9861300c565b613c7d828d613a57565b52613c88818c613a57565b5001935050925050613c38565b50505050915090565b602090613ca9613395565b82828a01015201613a9f565b60ff166001039060ff82116119dd57565b6000546001600160a01b03163303613cda57565b60405163118cdaa760e01b8152336004820152602490fd5b6000908072184f03e93ff9f4daa797ed6e38ed64bf6a1f0160401b80821015613e48575b506d04ee2d6d415b85acef810000000080831015613e39575b50662386f26fc1000080831015613e2a575b506305f5e10080831015613e1b575b5061271080831015613e0c575b506064821015613dfc575b600a80921015613df2575b6001908160216001860195613d87876130fb565b96613d956040519889612f59565b808852613da4601f19916130fb565b01366020890137860101905b613dbc575b5050505090565b600019019083906f181899199a1a9b1b9c1cb0b131b232b360811b8282061a835304918215613ded57919082613db0565b613db5565b9160010191613d73565b9190606460029104910191613d68565b60049193920491019138613d5d565b60089193920491019138613d50565b60109193920491019138613d41565b60209193920491019138613d2f565b604093508104915038613d16565b6001600160a01b0316600090815260026020526040902054613e779061314d565b5090565b90600f811015612bfe5760051b0190565b6003548015613f2d5760001901613ea28161300c565b611d3c5760086000918281558260018201558260028201613ec3815461302b565b80613ef0575b505060058201613edc81600385016131a1565b558260068201558260078201550155600355565b82601f8211600114613f08575050555b823880613ec9565b9091808252613f26601f60208420940160051c8401600185016131a1565b5555613f00565b634e487b7160e01b600052603160045260246000fd5b613f4f6103098261300c565b6060810160005b60ff81166001811161405b578251613f8d92916001600160a01b03918290613f7f908390613986565b5116613f92575b505061316c565b613f56565b61404f613fd28261047d8560008a613fbc61405499613fb5600397889451613986565b5116613e56565b0155613fb5613fca87613cf2565b968b51613986565b9160405180936020927001434b7103637b7b81490283630bcb2b91607d1b84840152770103430b9903a30b13632a4b21031b430b733b2b2103a37960451b60319161402581518092888689019101612af4565b84019182015261404060499483519384918785019101612af4565b01036029810184520182612f59565b614230565b3880613f86565b50505060200180519060069182811015611d06576002036141995750506004548015613f2d57600019016140a261409182612c4a565b8154906000199060031b1b19169055565b6004555b6003546000198101919082116119dd576140e26040516140c581612e98565b600b81526a4d6f73746c7920646f6e6560a81b6020820152614230565b808214614169578181604092600361415460606141226103097f9003df9102c82cb1355f80d0db09c128787aa2adde042a70815408301544fb419961300c565b61412f8161338f8761300c565b01602060018060a01b039185856141498584515116613e56565b015551015116613e56565b015582519182526020820152a16131f3613e8c565b5050614173613e8c565b6131f360405161418281612e98565b6005815264446f6e652160d81b6020820152614230565b805182811015611d06576003036141ce5750506005548015613f2d57600019016141c561409182612c2f565b6005555b6140a6565b805182811015611d06576004036141ff575080548015613f2d5760001901906141f961409183612c14565b556140a6565b5190811015611d06576005036141c9576007548015613f2d576000190161422861409182612be3565b6007556140a6565b6000809160405161425e81610532602082019463104c13eb60e21b8652602060248401526044830190612b17565b51906a636f6e736f6c652e6c6f675afa5056fe5ef14ac0341ddf16cc13a71f61852b0e40afdb913b241e2b2b50b8e0876192821496c7288501eeeb4145c783b323b4a2b8bc56489dbd541da962d1b03447d41a040b6e4d98acb52cfb61a8beb8587bf37d362f8afc07142f5211d2c386f09f2da2646970667358221220cee21644aca31d789e22ee1c1efe30d11c171f47d91bb42a572ec65718abf2ad64736f6c63430008160033",
  "linkReferences": {},
  "deployedLinkReferences": {}
}