{
  "_format": "hh-sol-artifact-1",
  "contractName": "MysteryChineseChess",
  "sourceName": "contracts/MysteryChineseChess.sol",
  "abi": [
    {
      "inputs": [],
      "stateMutability": "payable",
      "type": "constructor"
    },
    {
      "inputs": [
        {
          "internalType": "string",
          "name": "message",
          "type": "string"
        }
      ],
      "name": "InvalidAction",
      "type": "error"
    },
    {
      "inputs": [
        {
          "internalType": "address",
          "name": "owner",
          "type": "address"
        }
      ],
      "name": "OwnableInvalidOwner",
      "type": "error"
    },
    {
      "inputs": [
        {
          "internalType": "address",
          "name": "account",
          "type": "address"
        }
      ],
      "name": "OwnableUnauthorizedAccount",
      "type": "error"
    },
    {
      "inputs": [
        {
          "internalType": "string",
          "name": "message",
          "type": "string"
        }
      ],
      "name": "ResourceNotFound",
      "type": "error"
    },
    {
      "inputs": [],
      "name": "Unauthorized",
      "type": "error"
    },
    {
      "anonymous": false,
      "inputs": [
        {
          "indexed": false,
          "internalType": "uint256",
          "name": "matchId",
          "type": "uint256"
        },
        {
          "indexed": false,
          "internalType": "address",
          "name": "playerAddress",
          "type": "address"
        }
      ],
      "name": "ApprovedDrawOffer",
      "type": "event"
    },
    {
      "anonymous": false,
      "inputs": [
        {
          "indexed": false,
          "internalType": "uint256",
          "name": "matchId",
          "type": "uint256"
        },
        {
          "indexed": false,
          "internalType": "address",
          "name": "playerAddress",
          "type": "address"
        }
      ],
      "name": "DeclinedDrawOffer",
      "type": "event"
    },
    {
      "anonymous": false,
      "inputs": [
        {
          "indexed": false,
          "internalType": "address",
          "name": "playerAddress",
          "type": "address"
        },
        {
          "indexed": false,
          "internalType": "uint256",
          "name": "tableId",
          "type": "uint256"
        }
      ],
      "name": "ExitedTable",
      "type": "event"
    },
    {
      "anonymous": false,
      "inputs": [
        {
          "indexed": false,
          "internalType": "address",
          "name": "playerAddress",
          "type": "address"
        },
        {
          "indexed": false,
          "internalType": "uint256",
          "name": "tableId",
          "type": "uint256"
        }
      ],
      "name": "JoinedTable",
      "type": "event"
    },
    {
      "anonymous": false,
      "inputs": [
        {
          "components": [
            {
              "internalType": "uint256",
              "name": "id",
              "type": "uint256"
            },
            {
              "internalType": "enum MysteryChineseChess.GameMode",
              "name": "gameMode",
              "type": "uint8"
            },
            {
              "internalType": "address[2]",
              "name": "players",
              "type": "address[2]"
            },
            {
              "internalType": "uint32",
              "name": "stake",
              "type": "uint32"
            },
            {
              "internalType": "uint24",
              "name": "timeControl",
              "type": "uint24"
            },
            {
              "internalType": "uint256",
              "name": "startTimestamp",
              "type": "uint256"
            },
            {
              "internalType": "uint256",
              "name": "endTimestamp",
              "type": "uint256"
            },
            {
              "internalType": "enum MysteryChineseChess.MatchStatus",
              "name": "matchStatus",
              "type": "uint8"
            },
            {
              "components": [
                {
                  "internalType": "uint8",
                  "name": "winnerIndex",
                  "type": "uint8"
                },
                {
                  "internalType": "uint8",
                  "name": "offererIndex",
                  "type": "uint8"
                },
                {
                  "internalType": "enum MysteryChineseChess.MatchResultType",
                  "name": "resultType",
                  "type": "uint8"
                },
                {
                  "internalType": "uint32",
                  "name": "increasingElo",
                  "type": "uint32"
                },
                {
                  "internalType": "uint32",
                  "name": "decreasingElo",
                  "type": "uint32"
                }
              ],
              "internalType": "struct MysteryChineseChess.MatchResult",
              "name": "matchResult",
              "type": "tuple"
            },
            {
              "components": [
                {
                  "internalType": "uint8",
                  "name": "color",
                  "type": "uint8"
                },
                {
                  "internalType": "enum MysteryChineseChess.Piece",
                  "name": "piece",
                  "type": "uint8"
                },
                {
                  "internalType": "bool",
                  "name": "unfolded",
                  "type": "bool"
                }
              ],
              "internalType": "struct MysteryChineseChess.PlayerPiece[9][10]",
              "name": "board",
              "type": "tuple[9][10]"
            },
            {
              "components": [
                {
                  "components": [
                    {
                      "internalType": "uint8",
                      "name": "playerIndex",
                      "type": "uint8"
                    },
                    {
                      "components": [
                        {
                          "internalType": "uint8",
                          "name": "y",
                          "type": "uint8"
                        },
                        {
                          "internalType": "uint8",
                          "name": "x",
                          "type": "uint8"
                        }
                      ],
                      "internalType": "struct MysteryChineseChess.Position",
                      "name": "oldPosition",
                      "type": "tuple"
                    },
                    {
                      "components": [
                        {
                          "internalType": "uint8",
                          "name": "y",
                          "type": "uint8"
                        },
                        {
                          "internalType": "uint8",
                          "name": "x",
                          "type": "uint8"
                        }
                      ],
                      "internalType": "struct MysteryChineseChess.Position",
                      "name": "newPosition",
                      "type": "tuple"
                    },
                    {
                      "internalType": "uint256",
                      "name": "timestamp",
                      "type": "uint256"
                    }
                  ],
                  "internalType": "struct MysteryChineseChess.MoveDetails",
                  "name": "details",
                  "type": "tuple"
                },
                {
                  "internalType": "string[2]",
                  "name": "signatures",
                  "type": "string[2]"
                }
              ],
              "internalType": "struct MysteryChineseChess.Move[]",
              "name": "moves",
              "type": "tuple[]"
            }
          ],
          "indexed": false,
          "internalType": "struct MysteryChineseChess.Match",
          "name": "_match",
          "type": "tuple"
        }
      ],
      "name": "MatchEnded",
      "type": "event"
    },
    {
      "anonymous": false,
      "inputs": [
        {
          "indexed": false,
          "internalType": "uint256",
          "name": "matchId",
          "type": "uint256"
        },
        {
          "indexed": false,
          "internalType": "address[2]",
          "name": "players",
          "type": "address[2]"
        }
      ],
      "name": "NewMatchStarted",
      "type": "event"
    },
    {
      "anonymous": false,
      "inputs": [
        {
          "components": [
            {
              "internalType": "address",
              "name": "playerAddress",
              "type": "address"
            },
            {
              "internalType": "string",
              "name": "playerName",
              "type": "string"
            },
            {
              "internalType": "int32",
              "name": "elo",
              "type": "int32"
            },
            {
              "internalType": "uint256",
              "name": "tableId",
              "type": "uint256"
            }
          ],
          "indexed": false,
          "internalType": "struct MysteryChineseChess.Player",
          "name": "player",
          "type": "tuple"
        }
      ],
      "name": "NewPlayer",
      "type": "event"
    },
    {
      "anonymous": false,
      "inputs": [
        {
          "components": [
            {
              "internalType": "uint256",
              "name": "id",
              "type": "uint256"
            },
            {
              "internalType": "enum MysteryChineseChess.GameMode",
              "name": "gameMode",
              "type": "uint8"
            },
            {
              "internalType": "string",
              "name": "name",
              "type": "string"
            },
            {
              "internalType": "address[2]",
              "name": "players",
              "type": "address[2]"
            },
            {
              "internalType": "uint8",
              "name": "hostIndex",
              "type": "uint8"
            },
            {
              "internalType": "uint32",
              "name": "stake",
              "type": "uint32"
            },
            {
              "internalType": "uint24",
              "name": "timeControl",
              "type": "uint24"
            },
            {
              "internalType": "uint256",
              "name": "matchId",
              "type": "uint256"
            }
          ],
          "indexed": false,
          "internalType": "struct MysteryChineseChess.Table",
          "name": "table",
          "type": "tuple"
        }
      ],
      "name": "NewTableCreated",
      "type": "event"
    },
    {
      "anonymous": false,
      "inputs": [
        {
          "indexed": false,
          "internalType": "uint256",
          "name": "matchId",
          "type": "uint256"
        },
        {
          "indexed": false,
          "internalType": "address",
          "name": "playerAddress",
          "type": "address"
        }
      ],
      "name": "OfferingDraw",
      "type": "event"
    },
    {
      "anonymous": false,
      "inputs": [
        {
          "indexed": true,
          "internalType": "address",
          "name": "previousOwner",
          "type": "address"
        },
        {
          "indexed": true,
          "internalType": "address",
          "name": "newOwner",
          "type": "address"
        }
      ],
      "name": "OwnershipTransferred",
      "type": "event"
    },
    {
      "anonymous": false,
      "inputs": [
        {
          "indexed": false,
          "internalType": "address",
          "name": "playerAddress",
          "type": "address"
        }
      ],
      "name": "UpdatedPlayerInfo",
      "type": "event"
    },
    {
      "anonymous": false,
      "inputs": [
        {
          "components": [
            {
              "internalType": "uint256",
              "name": "id",
              "type": "uint256"
            },
            {
              "internalType": "enum MysteryChineseChess.GameMode",
              "name": "gameMode",
              "type": "uint8"
            },
            {
              "internalType": "string",
              "name": "name",
              "type": "string"
            },
            {
              "internalType": "address[2]",
              "name": "players",
              "type": "address[2]"
            },
            {
              "internalType": "uint8",
              "name": "hostIndex",
              "type": "uint8"
            },
            {
              "internalType": "uint32",
              "name": "stake",
              "type": "uint32"
            },
            {
              "internalType": "uint24",
              "name": "timeControl",
              "type": "uint24"
            },
            {
              "internalType": "uint256",
              "name": "matchId",
              "type": "uint256"
            }
          ],
          "indexed": false,
          "internalType": "struct MysteryChineseChess.Table",
          "name": "table",
          "type": "tuple"
        }
      ],
      "name": "UpdatedTable",
      "type": "event"
    },
    {
      "anonymous": false,
      "inputs": [
        {
          "indexed": false,
          "internalType": "uint256",
          "name": "oldTableId",
          "type": "uint256"
        },
        {
          "indexed": false,
          "internalType": "uint256",
          "name": "newTableId",
          "type": "uint256"
        }
      ],
      "name": "UpdatedTableId",
      "type": "event"
    },
    {
      "inputs": [],
      "name": "BLACK",
      "outputs": [
        {
          "internalType": "uint8",
          "name": "",
          "type": "uint8"
        }
      ],
      "stateMutability": "view",
      "type": "function"
    },
    {
      "inputs": [],
      "name": "MAX_TIME_CONTROL",
      "outputs": [
        {
          "internalType": "uint24",
          "name": "",
          "type": "uint24"
        }
      ],
      "stateMutability": "view",
      "type": "function"
    },
    {
      "inputs": [],
      "name": "RED",
      "outputs": [
        {
          "internalType": "uint8",
          "name": "",
          "type": "uint8"
        }
      ],
      "stateMutability": "view",
      "type": "function"
    },
    {
      "inputs": [
        {
          "internalType": "enum MysteryChineseChess.GameMode",
          "name": "gameMode",
          "type": "uint8"
        },
        {
          "internalType": "string",
          "name": "name",
          "type": "string"
        },
        {
          "internalType": "uint32",
          "name": "stake",
          "type": "uint32"
        }
      ],
      "name": "createTable",
      "outputs": [],
      "stateMutability": "nonpayable",
      "type": "function"
    },
    {
      "inputs": [
        {
          "internalType": "uint256",
          "name": "",
          "type": "uint256"
        },
        {
          "internalType": "uint256",
          "name": "",
          "type": "uint256"
        }
      ],
      "name": "drawVotes",
      "outputs": [
        {
          "internalType": "enum MysteryChineseChess.Vote",
          "name": "",
          "type": "uint8"
        }
      ],
      "stateMutability": "view",
      "type": "function"
    },
    {
      "inputs": [
        {
          "internalType": "uint256",
          "name": "tableId",
          "type": "uint256"
        }
      ],
      "name": "exitTable",
      "outputs": [],
      "stateMutability": "nonpayable",
      "type": "function"
    },
    {
      "inputs": [],
      "name": "getAllMatches",
      "outputs": [
        {
          "components": [
            {
              "internalType": "uint256",
              "name": "id",
              "type": "uint256"
            },
            {
              "internalType": "enum MysteryChineseChess.GameMode",
              "name": "gameMode",
              "type": "uint8"
            },
            {
              "internalType": "address[2]",
              "name": "players",
              "type": "address[2]"
            },
            {
              "internalType": "uint32",
              "name": "stake",
              "type": "uint32"
            },
            {
              "internalType": "uint24",
              "name": "timeControl",
              "type": "uint24"
            },
            {
              "internalType": "uint256",
              "name": "startTimestamp",
              "type": "uint256"
            },
            {
              "internalType": "uint256",
              "name": "endTimestamp",
              "type": "uint256"
            },
            {
              "internalType": "enum MysteryChineseChess.MatchStatus",
              "name": "matchStatus",
              "type": "uint8"
            },
            {
              "components": [
                {
                  "internalType": "uint8",
                  "name": "winnerIndex",
                  "type": "uint8"
                },
                {
                  "internalType": "uint8",
                  "name": "offererIndex",
                  "type": "uint8"
                },
                {
                  "internalType": "enum MysteryChineseChess.MatchResultType",
                  "name": "resultType",
                  "type": "uint8"
                },
                {
                  "internalType": "uint32",
                  "name": "increasingElo",
                  "type": "uint32"
                },
                {
                  "internalType": "uint32",
                  "name": "decreasingElo",
                  "type": "uint32"
                }
              ],
              "internalType": "struct MysteryChineseChess.MatchResult",
              "name": "matchResult",
              "type": "tuple"
            },
            {
              "components": [
                {
                  "internalType": "uint8",
                  "name": "color",
                  "type": "uint8"
                },
                {
                  "internalType": "enum MysteryChineseChess.Piece",
                  "name": "piece",
                  "type": "uint8"
                },
                {
                  "internalType": "bool",
                  "name": "unfolded",
                  "type": "bool"
                }
              ],
              "internalType": "struct MysteryChineseChess.PlayerPiece[9][10]",
              "name": "board",
              "type": "tuple[9][10]"
            },
            {
              "components": [
                {
                  "components": [
                    {
                      "internalType": "uint8",
                      "name": "playerIndex",
                      "type": "uint8"
                    },
                    {
                      "components": [
                        {
                          "internalType": "uint8",
                          "name": "y",
                          "type": "uint8"
                        },
                        {
                          "internalType": "uint8",
                          "name": "x",
                          "type": "uint8"
                        }
                      ],
                      "internalType": "struct MysteryChineseChess.Position",
                      "name": "oldPosition",
                      "type": "tuple"
                    },
                    {
                      "components": [
                        {
                          "internalType": "uint8",
                          "name": "y",
                          "type": "uint8"
                        },
                        {
                          "internalType": "uint8",
                          "name": "x",
                          "type": "uint8"
                        }
                      ],
                      "internalType": "struct MysteryChineseChess.Position",
                      "name": "newPosition",
                      "type": "tuple"
                    },
                    {
                      "internalType": "uint256",
                      "name": "timestamp",
                      "type": "uint256"
                    }
                  ],
                  "internalType": "struct MysteryChineseChess.MoveDetails",
                  "name": "details",
                  "type": "tuple"
                },
                {
                  "internalType": "string[2]",
                  "name": "signatures",
                  "type": "string[2]"
                }
              ],
              "internalType": "struct MysteryChineseChess.Move[]",
              "name": "moves",
              "type": "tuple[]"
            }
          ],
          "internalType": "struct MysteryChineseChess.Match[]",
          "name": "",
          "type": "tuple[]"
        }
      ],
      "stateMutability": "view",
      "type": "function"
    },
    {
      "inputs": [],
      "name": "getAllPlayers",
      "outputs": [
        {
          "components": [
            {
              "internalType": "address",
              "name": "playerAddress",
              "type": "address"
            },
            {
              "internalType": "string",
              "name": "playerName",
              "type": "string"
            },
            {
              "internalType": "int32",
              "name": "elo",
              "type": "int32"
            },
            {
              "internalType": "uint256",
              "name": "tableId",
              "type": "uint256"
            }
          ],
          "internalType": "struct MysteryChineseChess.Player[]",
          "name": "",
          "type": "tuple[]"
        }
      ],
      "stateMutability": "view",
      "type": "function"
    },
    {
      "inputs": [
        {
          "internalType": "enum MysteryChineseChess.GameMode",
          "name": "gameMode",
          "type": "uint8"
        },
        {
          "internalType": "uint24",
          "name": "page",
          "type": "uint24"
        },
        {
          "internalType": "uint16",
          "name": "size",
          "type": "uint16"
        }
      ],
      "name": "getAllTables",
      "outputs": [
        {
          "components": [
            {
              "internalType": "uint256",
              "name": "id",
              "type": "uint256"
            },
            {
              "internalType": "enum MysteryChineseChess.GameMode",
              "name": "gameMode",
              "type": "uint8"
            },
            {
              "internalType": "string",
              "name": "name",
              "type": "string"
            },
            {
              "internalType": "address[2]",
              "name": "players",
              "type": "address[2]"
            },
            {
              "internalType": "uint8",
              "name": "hostIndex",
              "type": "uint8"
            },
            {
              "internalType": "uint32",
              "name": "stake",
              "type": "uint32"
            },
            {
              "internalType": "uint24",
              "name": "timeControl",
              "type": "uint24"
            },
            {
              "internalType": "uint256",
              "name": "matchId",
              "type": "uint256"
            }
          ],
          "internalType": "struct MysteryChineseChess.Table[]",
          "name": "",
          "type": "tuple[]"
        }
      ],
      "stateMutability": "view",
      "type": "function"
    },
    {
      "inputs": [
        {
          "internalType": "uint256",
          "name": "id",
          "type": "uint256"
        }
      ],
      "name": "getMatch",
      "outputs": [
        {
          "components": [
            {
              "internalType": "uint256",
              "name": "id",
              "type": "uint256"
            },
            {
              "internalType": "enum MysteryChineseChess.GameMode",
              "name": "gameMode",
              "type": "uint8"
            },
            {
              "internalType": "address[2]",
              "name": "players",
              "type": "address[2]"
            },
            {
              "internalType": "uint32",
              "name": "stake",
              "type": "uint32"
            },
            {
              "internalType": "uint24",
              "name": "timeControl",
              "type": "uint24"
            },
            {
              "internalType": "uint256",
              "name": "startTimestamp",
              "type": "uint256"
            },
            {
              "internalType": "uint256",
              "name": "endTimestamp",
              "type": "uint256"
            },
            {
              "internalType": "enum MysteryChineseChess.MatchStatus",
              "name": "matchStatus",
              "type": "uint8"
            },
            {
              "components": [
                {
                  "internalType": "uint8",
                  "name": "winnerIndex",
                  "type": "uint8"
                },
                {
                  "internalType": "uint8",
                  "name": "offererIndex",
                  "type": "uint8"
                },
                {
                  "internalType": "enum MysteryChineseChess.MatchResultType",
                  "name": "resultType",
                  "type": "uint8"
                },
                {
                  "internalType": "uint32",
                  "name": "increasingElo",
                  "type": "uint32"
                },
                {
                  "internalType": "uint32",
                  "name": "decreasingElo",
                  "type": "uint32"
                }
              ],
              "internalType": "struct MysteryChineseChess.MatchResult",
              "name": "matchResult",
              "type": "tuple"
            },
            {
              "components": [
                {
                  "internalType": "uint8",
                  "name": "color",
                  "type": "uint8"
                },
                {
                  "internalType": "enum MysteryChineseChess.Piece",
                  "name": "piece",
                  "type": "uint8"
                },
                {
                  "internalType": "bool",
                  "name": "unfolded",
                  "type": "bool"
                }
              ],
              "internalType": "struct MysteryChineseChess.PlayerPiece[9][10]",
              "name": "board",
              "type": "tuple[9][10]"
            },
            {
              "components": [
                {
                  "components": [
                    {
                      "internalType": "uint8",
                      "name": "playerIndex",
                      "type": "uint8"
                    },
                    {
                      "components": [
                        {
                          "internalType": "uint8",
                          "name": "y",
                          "type": "uint8"
                        },
                        {
                          "internalType": "uint8",
                          "name": "x",
                          "type": "uint8"
                        }
                      ],
                      "internalType": "struct MysteryChineseChess.Position",
                      "name": "oldPosition",
                      "type": "tuple"
                    },
                    {
                      "components": [
                        {
                          "internalType": "uint8",
                          "name": "y",
                          "type": "uint8"
                        },
                        {
                          "internalType": "uint8",
                          "name": "x",
                          "type": "uint8"
                        }
                      ],
                      "internalType": "struct MysteryChineseChess.Position",
                      "name": "newPosition",
                      "type": "tuple"
                    },
                    {
                      "internalType": "uint256",
                      "name": "timestamp",
                      "type": "uint256"
                    }
                  ],
                  "internalType": "struct MysteryChineseChess.MoveDetails",
                  "name": "details",
                  "type": "tuple"
                },
                {
                  "internalType": "string[2]",
                  "name": "signatures",
                  "type": "string[2]"
                }
              ],
              "internalType": "struct MysteryChineseChess.Move[]",
              "name": "moves",
              "type": "tuple[]"
            }
          ],
          "internalType": "struct MysteryChineseChess.Match",
          "name": "",
          "type": "tuple"
        }
      ],
      "stateMutability": "view",
      "type": "function"
    },
    {
      "inputs": [
        {
          "internalType": "address",
          "name": "_addr",
          "type": "address"
        }
      ],
      "name": "getPlayer",
      "outputs": [
        {
          "components": [
            {
              "internalType": "address",
              "name": "playerAddress",
              "type": "address"
            },
            {
              "internalType": "string",
              "name": "playerName",
              "type": "string"
            },
            {
              "internalType": "int32",
              "name": "elo",
              "type": "int32"
            },
            {
              "internalType": "uint256",
              "name": "tableId",
              "type": "uint256"
            }
          ],
          "internalType": "struct MysteryChineseChess.Player",
          "name": "",
          "type": "tuple"
        }
      ],
      "stateMutability": "view",
      "type": "function"
    },
    {
      "inputs": [
        {
          "internalType": "uint256",
          "name": "id",
          "type": "uint256"
        }
      ],
      "name": "getTable",
      "outputs": [
        {
          "components": [
            {
              "internalType": "uint256",
              "name": "id",
              "type": "uint256"
            },
            {
              "internalType": "enum MysteryChineseChess.GameMode",
              "name": "gameMode",
              "type": "uint8"
            },
            {
              "internalType": "string",
              "name": "name",
              "type": "string"
            },
            {
              "internalType": "address[2]",
              "name": "players",
              "type": "address[2]"
            },
            {
              "internalType": "uint8",
              "name": "hostIndex",
              "type": "uint8"
            },
            {
              "internalType": "uint32",
              "name": "stake",
              "type": "uint32"
            },
            {
              "internalType": "uint24",
              "name": "timeControl",
              "type": "uint24"
            },
            {
              "internalType": "uint256",
              "name": "matchId",
              "type": "uint256"
            }
          ],
          "internalType": "struct MysteryChineseChess.Table",
          "name": "",
          "type": "tuple"
        }
      ],
      "stateMutability": "view",
      "type": "function"
    },
    {
      "inputs": [
        {
          "internalType": "address",
          "name": "_addr",
          "type": "address"
        }
      ],
      "name": "isPlayer",
      "outputs": [
        {
          "internalType": "bool",
          "name": "",
          "type": "bool"
        }
      ],
      "stateMutability": "view",
      "type": "function"
    },
    {
      "inputs": [
        {
          "internalType": "uint256",
          "name": "tableId",
          "type": "uint256"
        }
      ],
      "name": "joinTable",
      "outputs": [],
      "stateMutability": "nonpayable",
      "type": "function"
    },
    {
      "inputs": [
        {
          "internalType": "uint256",
          "name": "",
          "type": "uint256"
        }
      ],
      "name": "matchIndexes",
      "outputs": [
        {
          "internalType": "uint256",
          "name": "",
          "type": "uint256"
        }
      ],
      "stateMutability": "view",
      "type": "function"
    },
    {
      "inputs": [
        {
          "internalType": "uint256",
          "name": "",
          "type": "uint256"
        }
      ],
      "name": "matches",
      "outputs": [
        {
          "internalType": "uint256",
          "name": "id",
          "type": "uint256"
        },
        {
          "internalType": "enum MysteryChineseChess.GameMode",
          "name": "gameMode",
          "type": "uint8"
        },
        {
          "internalType": "uint32",
          "name": "stake",
          "type": "uint32"
        },
        {
          "internalType": "uint24",
          "name": "timeControl",
          "type": "uint24"
        },
        {
          "internalType": "uint256",
          "name": "startTimestamp",
          "type": "uint256"
        },
        {
          "internalType": "uint256",
          "name": "endTimestamp",
          "type": "uint256"
        },
        {
          "internalType": "enum MysteryChineseChess.MatchStatus",
          "name": "matchStatus",
          "type": "uint8"
        },
        {
          "components": [
            {
              "internalType": "uint8",
              "name": "winnerIndex",
              "type": "uint8"
            },
            {
              "internalType": "uint8",
              "name": "offererIndex",
              "type": "uint8"
            },
            {
              "internalType": "enum MysteryChineseChess.MatchResultType",
              "name": "resultType",
              "type": "uint8"
            },
            {
              "internalType": "uint32",
              "name": "increasingElo",
              "type": "uint32"
            },
            {
              "internalType": "uint32",
              "name": "decreasingElo",
              "type": "uint32"
            }
          ],
          "internalType": "struct MysteryChineseChess.MatchResult",
          "name": "matchResult",
          "type": "tuple"
        }
      ],
      "stateMutability": "view",
      "type": "function"
    },
    {
      "inputs": [
        {
          "internalType": "uint8",
          "name": "sourceRow",
          "type": "uint8"
        },
        {
          "internalType": "uint8",
          "name": "sourceCol",
          "type": "uint8"
        },
        {
          "internalType": "uint8",
          "name": "destRow",
          "type": "uint8"
        },
        {
          "internalType": "uint8",
          "name": "destCol",
          "type": "uint8"
        }
      ],
      "name": "move",
      "outputs": [
        {
          "internalType": "bool",
          "name": "",
          "type": "bool"
        }
      ],
      "stateMutability": "payable",
      "type": "function"
    },
    {
      "inputs": [
        {
          "internalType": "uint256",
          "name": "",
          "type": "uint256"
        }
      ],
      "name": "normalModeAdvancedTableIndexes",
      "outputs": [
        {
          "internalType": "uint256",
          "name": "",
          "type": "uint256"
        }
      ],
      "stateMutability": "view",
      "type": "function"
    },
    {
      "inputs": [
        {
          "internalType": "uint256",
          "name": "",
          "type": "uint256"
        }
      ],
      "name": "normalModeBeginnerTableIndexes",
      "outputs": [
        {
          "internalType": "uint256",
          "name": "",
          "type": "uint256"
        }
      ],
      "stateMutability": "view",
      "type": "function"
    },
    {
      "inputs": [
        {
          "internalType": "uint256",
          "name": "",
          "type": "uint256"
        }
      ],
      "name": "normalModeIntermediateTableIndexes",
      "outputs": [
        {
          "internalType": "uint256",
          "name": "",
          "type": "uint256"
        }
      ],
      "stateMutability": "view",
      "type": "function"
    },
    {
      "inputs": [
        {
          "internalType": "uint256",
          "name": "",
          "type": "uint256"
        },
        {
          "internalType": "uint256",
          "name": "",
          "type": "uint256"
        }
      ],
      "name": "originalPieces",
      "outputs": [
        {
          "internalType": "enum MysteryChineseChess.Piece",
          "name": "",
          "type": "uint8"
        }
      ],
      "stateMutability": "view",
      "type": "function"
    },
    {
      "inputs": [],
      "name": "owner",
      "outputs": [
        {
          "internalType": "address",
          "name": "",
          "type": "address"
        }
      ],
      "stateMutability": "view",
      "type": "function"
    },
    {
      "inputs": [
        {
          "internalType": "address",
          "name": "",
          "type": "address"
        }
      ],
      "name": "playerIndexes",
      "outputs": [
        {
          "internalType": "uint256",
          "name": "",
          "type": "uint256"
        }
      ],
      "stateMutability": "view",
      "type": "function"
    },
    {
      "inputs": [
        {
          "internalType": "uint256",
          "name": "",
          "type": "uint256"
        }
      ],
      "name": "players",
      "outputs": [
        {
          "internalType": "address",
          "name": "playerAddress",
          "type": "address"
        },
        {
          "internalType": "string",
          "name": "playerName",
          "type": "string"
        },
        {
          "internalType": "int32",
          "name": "elo",
          "type": "int32"
        },
        {
          "internalType": "uint256",
          "name": "tableId",
          "type": "uint256"
        }
      ],
      "stateMutability": "view",
      "type": "function"
    },
    {
      "inputs": [
        {
          "internalType": "uint256",
          "name": "",
          "type": "uint256"
        }
      ],
      "name": "rankModeTableIndexes",
      "outputs": [
        {
          "internalType": "uint256",
          "name": "",
          "type": "uint256"
        }
      ],
      "stateMutability": "view",
      "type": "function"
    },
    {
      "inputs": [
        {
          "internalType": "string",
          "name": "_name",
          "type": "string"
        }
      ],
      "name": "registerPlayer",
      "outputs": [],
      "stateMutability": "nonpayable",
      "type": "function"
    },
    {
      "inputs": [],
      "name": "renounceOwnership",
      "outputs": [],
      "stateMutability": "nonpayable",
      "type": "function"
    },
    {
      "inputs": [
        {
          "internalType": "uint256",
          "name": "matchId",
          "type": "uint256"
        },
        {
          "components": [
            {
              "components": [
                {
                  "internalType": "uint8",
                  "name": "playerIndex",
                  "type": "uint8"
                },
                {
                  "components": [
                    {
                      "internalType": "uint8",
                      "name": "y",
                      "type": "uint8"
                    },
                    {
                      "internalType": "uint8",
                      "name": "x",
                      "type": "uint8"
                    }
                  ],
                  "internalType": "struct MysteryChineseChess.Position",
                  "name": "oldPosition",
                  "type": "tuple"
                },
                {
                  "components": [
                    {
                      "internalType": "uint8",
                      "name": "y",
                      "type": "uint8"
                    },
                    {
                      "internalType": "uint8",
                      "name": "x",
                      "type": "uint8"
                    }
                  ],
                  "internalType": "struct MysteryChineseChess.Position",
                  "name": "newPosition",
                  "type": "tuple"
                },
                {
                  "internalType": "uint256",
                  "name": "timestamp",
                  "type": "uint256"
                }
              ],
              "internalType": "struct MysteryChineseChess.MoveDetails",
              "name": "details",
              "type": "tuple"
            },
            {
              "internalType": "string[2]",
              "name": "signatures",
              "type": "string[2]"
            }
          ],
          "internalType": "struct MysteryChineseChess.Move[]",
          "name": "moves",
          "type": "tuple[]"
        }
      ],
      "name": "resign",
      "outputs": [],
      "stateMutability": "payable",
      "type": "function"
    },
    {
      "inputs": [
        {
          "internalType": "uint256",
          "name": "matchId",
          "type": "uint256"
        },
        {
          "components": [
            {
              "components": [
                {
                  "internalType": "uint8",
                  "name": "playerIndex",
                  "type": "uint8"
                },
                {
                  "components": [
                    {
                      "internalType": "uint8",
                      "name": "y",
                      "type": "uint8"
                    },
                    {
                      "internalType": "uint8",
                      "name": "x",
                      "type": "uint8"
                    }
                  ],
                  "internalType": "struct MysteryChineseChess.Position",
                  "name": "oldPosition",
                  "type": "tuple"
                },
                {
                  "components": [
                    {
                      "internalType": "uint8",
                      "name": "y",
                      "type": "uint8"
                    },
                    {
                      "internalType": "uint8",
                      "name": "x",
                      "type": "uint8"
                    }
                  ],
                  "internalType": "struct MysteryChineseChess.Position",
                  "name": "newPosition",
                  "type": "tuple"
                },
                {
                  "internalType": "uint256",
                  "name": "timestamp",
                  "type": "uint256"
                }
              ],
              "internalType": "struct MysteryChineseChess.MoveDetails",
              "name": "details",
              "type": "tuple"
            },
            {
              "internalType": "string[2]",
              "name": "signatures",
              "type": "string[2]"
            }
          ],
          "internalType": "struct MysteryChineseChess.Move[]",
          "name": "moves",
          "type": "tuple[]"
        }
      ],
      "name": "resignAndExitTable",
      "outputs": [],
      "stateMutability": "payable",
      "type": "function"
    },
    {
      "inputs": [
        {
          "internalType": "uint256",
          "name": "tableId",
          "type": "uint256"
        }
      ],
      "name": "startNewMatch",
      "outputs": [],
      "stateMutability": "nonpayable",
      "type": "function"
    },
    {
      "inputs": [
        {
          "internalType": "uint256",
          "name": "",
          "type": "uint256"
        }
      ],
      "name": "tables",
      "outputs": [
        {
          "internalType": "uint256",
          "name": "id",
          "type": "uint256"
        },
        {
          "internalType": "enum MysteryChineseChess.GameMode",
          "name": "gameMode",
          "type": "uint8"
        },
        {
          "internalType": "string",
          "name": "name",
          "type": "string"
        },
        {
          "internalType": "uint8",
          "name": "hostIndex",
          "type": "uint8"
        },
        {
          "internalType": "uint32",
          "name": "stake",
          "type": "uint32"
        },
        {
          "internalType": "uint24",
          "name": "timeControl",
          "type": "uint24"
        },
        {
          "internalType": "uint256",
          "name": "matchId",
          "type": "uint256"
        }
      ],
      "stateMutability": "view",
      "type": "function"
    },
    {
      "inputs": [
        {
          "internalType": "address",
          "name": "newOwner",
          "type": "address"
        }
      ],
      "name": "transferOwnership",
      "outputs": [],
      "stateMutability": "nonpayable",
      "type": "function"
    },
    {
      "inputs": [
        {
          "internalType": "string",
          "name": "playerName",
          "type": "string"
        },
        {
          "internalType": "uint256",
          "name": "tableId",
          "type": "uint256"
        },
        {
          "internalType": "bool",
          "name": "setsTableId",
          "type": "bool"
        }
      ],
      "name": "updatePlayer",
      "outputs": [],
      "stateMutability": "nonpayable",
      "type": "function"
    },
    {
      "inputs": [
        {
          "internalType": "uint256",
          "name": "tableId",
          "type": "uint256"
        },
        {
          "internalType": "string",
          "name": "name",
          "type": "string"
        },
        {
          "internalType": "uint24",
          "name": "timeControl",
          "type": "uint24"
        },
        {
          "internalType": "uint32",
          "name": "stake",
          "type": "uint32"
        }
      ],
      "name": "updateTable",
      "outputs": [],
      "stateMutability": "nonpayable",
      "type": "function"
    },
    {
      "inputs": [
        {
          "internalType": "uint256",
          "name": "matchId",
          "type": "uint256"
        },
        {
          "components": [
            {
              "components": [
                {
                  "internalType": "uint8",
                  "name": "playerIndex",
                  "type": "uint8"
                },
                {
                  "components": [
                    {
                      "internalType": "uint8",
                      "name": "y",
                      "type": "uint8"
                    },
                    {
                      "internalType": "uint8",
                      "name": "x",
                      "type": "uint8"
                    }
                  ],
                  "internalType": "struct MysteryChineseChess.Position",
                  "name": "oldPosition",
                  "type": "tuple"
                },
                {
                  "components": [
                    {
                      "internalType": "uint8",
                      "name": "y",
                      "type": "uint8"
                    },
                    {
                      "internalType": "uint8",
                      "name": "x",
                      "type": "uint8"
                    }
                  ],
                  "internalType": "struct MysteryChineseChess.Position",
                  "name": "newPosition",
                  "type": "tuple"
                },
                {
                  "internalType": "uint256",
                  "name": "timestamp",
                  "type": "uint256"
                }
              ],
              "internalType": "struct MysteryChineseChess.MoveDetails",
              "name": "details",
              "type": "tuple"
            },
            {
              "internalType": "string[2]",
              "name": "signatures",
              "type": "string[2]"
            }
          ],
          "internalType": "struct MysteryChineseChess.Move[]",
          "name": "moves",
          "type": "tuple[]"
        }
      ],
      "name": "verifyCheckmate",
      "outputs": [],
      "stateMutability": "payable",
      "type": "function"
    }
  ],
  "bytecode": "0x608080604052331562000dfd5760008054336001600160a01b0319821681178355916001600160a01b03909116907f8be0079c531659141344cd1fd0a4f28419497f9722a3daafe3b4186f6b6457e09080a3600160406200005f62000e13565b600281526000602082015201526017805462ffffff19166201000217905560405161014081016001600160401b0381118282101762000a065760405260005b610140811062000d945750604051608081016001600160401b0381118282101762000a065760405260008152620000d462000e53565b6000815260208201526000604082015260006060820152600254906801000000000000000082101562000a0657600182018060025582101562000bbf576002600081905281517f405787fa12a823e0f2b7631cc41b3ba8828b3321ca811111fa75cd3aa3bb5ace9184901b820180546001600160a01b039092166001600160a01b031990921691909117905560208201518051919291906001600160401b03821162000a06576200018e60018660021b8601015462000e73565b601f811162000d56575b50602090601f831160011462000cd257826060936003969593620001d49360009262000cc6575b50508160011b916000199060031b1c19161790565b60018660021b850101555b600285811b840101604082015163ffffffff198254169063ffffffff1617905501519260021b0101556200021262000e33565b60008082526020820152604051906001600160401b0361010083019081119083111762000a0657610100820160405260008252600060208301526200025662000e53565b600081526040830152606082015260006080820152600060a0820152600060c0820152600060e0820152600454906801000000000000000082101562000a0657600182018060045582101562000bbf5760046000526020600020908051600784028301556020810151600681101562000b8357620002dd9060016007860285010162000ec9565b60408101518051906001600160401b03821162000a0657620003086002600787028601015462000e73565b601f811162000c88575b50602090601f831160011462000c07576200034692916000918362000bfb5750508160011b916000199060031b1c19161790565b600260078502840101555b606081015160005b6002811062000bd557505090600760e08360ff608060069601511660058488028601015460a08301519164ffffffff0067ffffff000000000060c086015160281b169360081b169160018060401b03191617171760058488028601015501519302010155620003c762000e33565b600080825260208201526040519091906001600160401b0360a082019081119082111762000a065760a081016040526000815260026020820152600060408201526000606082015260006080820152604051928361016081011060018060401b036101608601111762000a06576101608401604052600084526000602085015260408401526000606084015260006080840152600060a0840152600060c0840152600260e08401526101008301526101208201526060610140820152600954906801000000000000000082101562000a0657600182018060095582101562000bbf5760096000526020600020908051606484028301556020810151600681101562000b8357620004e09060016064860285010162000ec9565b604081015160005b6002811062000b9957505060046064840283010163ffffffff60608301511681549066ffffff00000000608085015160201b169166ffffffffffffff19161717905560a08101516005606485028401015560c08101516006606485028401015560e0810151600381101562000b835760648402830160078101805460ff93841660ff1991909116179055610100830151805160089283018054602084015161ffff1990911692909516919091179390921b61ff0016929092179055604081015190600a82101562000b83576008606486028501015462ff00006affffffff00000000000000608066ffffffff000000606086015160181b1694015160381b169360101b169062010000600160581b031916171717600860648502840101556101208101516009606485028401016000915b600a831062000b0b5750505061014001519081519168010000000000000000831162000a065760648402820160630180549084905580841062000a1c575b509060646020606393019402010160005260206000206000925b8284106200081f57604051604160f81b8152600c806001830152602180922060ff19815416905581604051602160f91b815282600182015220600160ff1982541617905581604051604360f81b815282600182015220600260ff1982541617905581604051601160fa1b815282600182015220600360ff1982541617905581604051604560f81b815282600182015220600460ff1982541617905581604051602360f91b815282600182015220600560ff1982541617905581604051604760f81b815282600182015220600660ff1982541617905581604051600960fb1b815282600182015220600760ff1982541617905581604051604960f81b815282600182015220600860ff1982541617905560405190602560f91b8252600182015220600960ff19825416179055600d546016549068050403020102030405918260018060481b031980931617600d55161760165567060000000000060067ff0000000000ff00198181600f541617600f5560145416176014556807000700070007000768ff00ff00ff00ff00ff19818160105416176010556013541617601355604051615cf7908162000ee38239f35b602081516060815160ff81511660ff19875416178655620008686001870160ff868085015182815116831985541617845501511661ff0082549160081b169061ff001916179055565b6200089c6002870160ff86604085015182815116831985541617845501511661ff0082549160081b169061ff001916179055565b015160038501550151600483016000915b60028310620008cd57505050600660206001920192019301929062000671565b80518051906001600160401b03821162000a0657620008ed845462000e73565b601f8111620009c4575b50602090601f83116001146200094f57926200093383600195946020948796600092620009435750508160011b916000199060031b1c19161790565b85555b01920192019190620008ad565b015190508d80620001bf565b908460005260206000209160005b601f1985168110620009ab575083602093600196938796938794601f1981161062000991575b505050811b01855562000936565b015160001960f88460031b161c191690558c808062000983565b919260206001819286850151815501940192016200095d565b620009f490856000526020600020601f850160051c81019160208610620009fb575b601f0160051c019062000eb0565b89620008f7565b9091508190620009e6565b634e487b7160e01b600052604160045260246000fd5b8060060290600682040362000af557836006029060068204850362000af55760636064870285010160005260206000209182015b818301811062000a6257505062000657565b60008155600060018201556000600282015560006003820155600481015b60068201811062000a95575060060162000a50565b8062000aa46001925462000e73565b8062000ab3575b500162000a80565b601f8111831462000acb5750600081555b8962000aab565b60009082825262000aeb601f60208420920160051c820185830162000eb0565b8183555562000ac4565b634e487b7160e01b600052601160045260246000fd5b8051826000915b6009831062000b3257505050600960206001920192019201919062000619565b805160ff815116908354926020820151600881101562000b8357600194859461ff0062ff000060406020970151151560101b169360081b169162ffffff191617171785550192019201919062000b12565b634e487b7160e01b600052602160045260246000fd5b81516001600160a01b0316600260648702860183010155602090910190600101620004e8565b634e487b7160e01b600052603260045260246000fd5b81516001600160a01b031660036007870286018301015560209091019060010162000359565b015190508780620001bf565b91906002600787028601016000526020600020906000935b601f198416851062000c6c576001945083601f1981161062000c52575b505050811b016002600785028401015562000351565b015160001960f88460031b161c1916905586808062000c3c565b8181015183556020948501946001909301929091019062000c1f565b62000cbf906002600788028701016000526020600020601f850160051c81019160208610620009fb57601f0160051c019062000eb0565b8662000312565b015190508980620001bf565b9060018660021b86010160005260206000209160005b601f198516811062000d3d575092600395949260019260609583601f1981161062000d24575b505050811b0160018660021b85010155620001df565b015160001983891b60f8161c1916905588808062000d0e565b9192602060018192868501518155019401920162000ce8565b62000d8d9060018760021b8701016000526020600020601f850160051c81019160208610620009fb57601f0160051c019062000eb0565b8662000198565b6040516101208082016001600160401b0381118382101762000a065760405260005b81811062000dcd575050828201526020016200009e565b90602080959262000ddd62000e13565b600081526000838201526000604082015281860152019091945062000db6565b631e4fbdf760e01b815260006004820152602490fd5b60405190606082016001600160401b0381118382101762000a0657604052565b60408051919082016001600160401b0381118382101762000a0657604052565b60405190602082016001600160401b0381118382101762000a0657604052565b90600182811c9216801562000ea5575b602083101462000e8f57565b634e487b7160e01b600052602260045260246000fd5b91607f169162000e83565b81811062000ebc575050565b6000815560010162000eb0565b90600681101562000b835760ff8019835416911617905556fe608080604052600436101561001357600080fd5b60003560e01c9081630971e31614613ee45750806309c95e1014613ea4578063195e251f14613e68578063200301e214613e17578063225b031d14613dfb57806336d18b6714613ddf5780633823bb0314613c8d57806338b8abe614613a755780633d092b3d1461398d5780634768d4ef146138e05780634f5ba44d1461388f578063559028fc146134d45780635c12cd4b146133cc5780636f86c806146124f4578063715018a61461249b57806371671bf2146123ea5780638da5cb5b146123c157806391628795146123835780639b64fa8a14611bbd578063b3446f85146118c4578063b36fec0c14611872578063c17c5a4514611789578063c77e9dcd146114fe578063d2ccd05714611456578063df39493c14611039578063e1e20c2014610ff2578063e77b4b1a14610cc0578063ea4973ab1461074f578063ea77647b146106fe578063eed79abb146106ad578063efa1c482146105c4578063efb79e35146105a6578063f1819eb9146102b3578063f2fde38b1461022b5763f71d96cb146101a057600080fd5b3461022657602036600319011261022657600435600254811015610226576101c790614859565b5060018060a01b03815416604051916101ee836101e7816001850161456e565b0384614452565b600360028201549101546102146040519485948552608060208601526080850190613f3c565b9160030b604084015260608301520390f35b600080fd5b34610226576020366003190112610226576004356001600160a01b03818116918290036102265761025a6156de565b811561029a576000548260018060a01b0319821617600055167f8be0079c531659141344cd1fd0a4f28419497f9722a3daafe3b4186f6b6457e0600080a3005b604051631e4fbdf760e01b815260006004820152602490fd5b3461022657602036600319011261022657600435604051629c95e160e41b8152336004820152602081602481305afa90811561059a5760009161056b575b501561055a5761030081614515565b5054156104c257606061031b61031583614515565b5061491f565b015160018060a01b039081808251163314159182610548575b5050610506576000600361034733615646565b015561035282614515565b50600381018054831633036104ff5760005b61036d81615363565b938061037986856149b2565b905460039190911b1c161561045e5791600080516020615c428339815191529593918593600160ff610403981614610408575b505060ff916103de6103c96005936103c387615363565b906149b2565b81549060018060a01b039060031b1b19169055565b01911660ff198254161790555b60408051338152602081019290925290918291820190565b0390a1005b60ff939161042f61044d9261042086986005976149b2565b90549060031b1c1691876149b2565b90919060018060a01b038084549260031b9316831b921b1916179055565b6000939092509050816103de6103ac565b505050505061049161048361047e600361047733615646565b015461570a565b6155cb565b61048b615613565b9061586e565b61049a81614515565b5054156104c257610403816104bd600080516020615c4283398151915293615919565b6103eb565b604051633bca200b60e21b81526020600482015260146024820152731518589b1948191bd95cc81b9bdd08195e1a5cdd60621b6044820152606490fd5b6001610364565b6040516312a441ad60e01b8152602060048201526019602482015278596f7520617265206e6f7420696e2074686973207461626c6560381b6044820152606490fd5b60209192500151163314158184610334565b6040516282b42960e81b8152600490fd5b61058d915060203d602011610593575b6105858183614452565b8101906149c2565b826102f1565b503d61057b565b6040513d6000823e3d90fd5b34610226576000366003190112610226576020604051621b77408152f35b34610226576000366003190112610226576002546105e181614604565b906105ef6040519283614452565b80825260026000908152602091828401917f405787fa12a823e0f2b7631cc41b3ba8828b3321ca811111fa75cd3aa3bb5ace835b83831061068a5750505050604051918083019381845251809452604083019360408160051b85010192916000955b82871061065e5785850386f35b90919293828061067a600193603f198a820301865288516144d6565b9601920196019592919092610651565b60048660019261069c859a999a614e3a565b815201920192019190959495610623565b34610226576020366003190112610226576004356006548110156102265760066000527ff652222313e28459528d920b65115c16c04f3efc82aaedc97be59f3f377c0d3f0154604051908152602090f35b34610226576020366003190112610226576004356008548110156102265760086000527ff3f7a9fe364faab93b216da50a3214154f22a0a2b415b23a84c8169e8b636ee30154604051908152602090f35b610758366146c1565b9080600052600a908160205260406000205415610c67578060005281602052604061078f6107898260002054614357565b50614bb1565b015180516001600160a01b03163314159081610ca8575b50610c0957806000528160205260406000205415610c6757806000528160205260406107d86107898260002054614357565b015180516001600160a01b03163314159081610c4f575b50610c095760005280602052610809604060002054614357565b5060028101549092906001600160a01b03163303610c025760005b61088161083082615363565b936040519061083e82614392565b60ff86811680845290851660208401526005604084015260608301829052608092909201526008868101805461ffff191690921793901b61ff0016929092178255565b80546affffffffffffffffff00001916670a0000000a05000017905560078301805460ff19166002179055805190600160401b8211610b67576063840154826063860155808310610b7d575b50602001906063840160005260206000206000925b8284106109d357600080516020615c2283398151915261040387600060066109c48a61091181600287016149b2565b9054600391821b1c6001600160a01b031685526020819052604085205490919060029061093d90614859565b500161097661096d82549361095385870b615346565b63ffffffff1995861663ffffffff91821617909455615363565b600289016149b2565b905490841b1c6001600160a01b031686526020839052604086205460029061099d90614859565b5001918254916109ae83860b615374565b1691161790556109bd33615646565b0154614515565b50015560405191829182615392565b602081516060815160ff81511660ff19875416178655610a1b6001870160ff868085015182815116831985541617845501511661ff0082549160081b169061ff001916179055565b610a4e6002870160ff86604085015182815116831985541617845501511661ff0082549160081b169061ff001916179055565b015160038501550151600483016000915b60028310610a7d5750505060066020600192019201930192906108e2565b80518051906001600160401b038211610b6757610aa482610a9e8654614534565b86614a75565b602090601f8311600114610af75792610add83600195946020948796600092610aec575b50508160011b916000199060031b1c19161790565b85555b01920192019190610a5f565b015190508f80610ac8565b908460005260206000209160005b601f1985168110610b4f575083602093600196938796938794601f19811610610b36575b505050811b018555610ae0565b015160001960f88460031b161c191690558e8080610b29565b91926020600181928685015181550194019201610b05565b634e487b7160e01b600052604160045260246000fd5b6006818102048103610bec576006838102048303610bec576063850160005260206000208360060281015b8260060282018110610bbb5750506108cd565b80600060069255600060018201556000600282015560006003820155610be682820160048301614ef3565b01610ba8565b634e487b7160e01b600052601160045260246000fd5b6001610824565b6040516312a441ad60e01b815260206004820152601e60248201527f596f7520617265206e6f74206a6f696e696e672074686973206d6174636800006044820152606490fd5b602001516001600160a01b03163314159050846107ef565b604051633bca200b60e21b8152602060048201526018602482015277151a19481b585d18da08191bd95cc81b9bdd08195e1a5cdd60421b6044820152606490fd5b602001516001600160a01b03163314159050846107a6565b34610226576080366003190112610226576001600160401b0360043560243582811161022657610cf49036906004016146a3565b9060443562ffffff9182821690818303610226576064359063ffffffff958683169182840361022657610d2681614515565b5054156104c257610d3690614515565b509781518015159081610f91575b50610e84575b505091600695939183600080516020615c0283398151915298969415159081610e70575b50610e46575b508015159081610e32575b50610e06575b506040519384936020855280546020860152610dac60ff6001830154166040870190613f0c565b61012092836060870152610dc761014087016002840161456e565b94610dd860808801600385016148ed565b60058301549060ff821660c08901528160081c1660e088015260281c166101008601520154908301520390a1005b610e2c90600585019062ffffff60281b82549160281b169062ffffff60281b1916179055565b85610d85565b905082600586015460281c16141587610d7f565b610e6a90600587019064ffffffff0082549160081b169064ffffffff001916179055565b87610d74565b905085600588015460081c16141589610d6e565b60028901918051918211610b6757610ea682610ea08554614534565b85614a75565b602090816001601f851114610f0e575082600080516020615c028339815191529b9997959360069b99979593610ef293600092610f035750508160011b916000199060031b1c19161790565b90555b919395978193959750610d4a565b015190508d80610ac8565b9190601f198416856000526020600020936000905b828210610f79575050926001928592600080516020615c028339815191529e9c9a989660069e9c9a989610610f60575b505050811b019055610ef5565b015160001960f88460031b161c191690558c8080610f53565b80600186978294978701518155019601940190610f23565b9050604051610fba60208281810194610fad8187858b01613f19565b8101038084520182614452565b5190206002610fd9610fe78c60405192839160208301958691016149da565b03601f198101835282614452565b51902014158a610d44565b346102265761100036614843565b600a821015610226576009811015610226576110378160ff600d60209560f89560051c01015460405194859360031b161c16614119565bf35b611042366146c1565b9080600052600a60205260406000205415610c675780600052600a60205260406110726107898260002054614357565b015180516001600160a01b0316331415908161143e575b50610c0957600052600a6020526110a4604060002054614357565b5060028101546001600160a01b03163303611436576000905b82516000198101908111610bec5760ff60406110db600293876150e8565b5151015151161161142e576001925b60ff604051936110f985614392565b858216855216602084015260016040840152600a606084018190526080840152805190600160401b8211610b675760638301548260638501558083106113bf575b50602001906063830160005260206000206000925b82841061123057505050506008810160ff8351169260ff19938483541617825561119160ff602083015116839061ff0082549160081b169061ff001916179055565b604081015190600a82101561121a57600080516020615c228339815191529561040395846006946109c4946000975462ff000066ffffffff000000606084015160181b1692608063ffffffff60381b91015160381b169360101b16906affffffffffffffffff0000191617171790556002600787019182541617905561091181600287016149b2565b634e487b7160e01b600052602160045260246000fd5b60208151606081516112ad60ff82511660ff19908189541617885561127c6001890160ff8880870151828151168685541617845501511661ff0082549160081b169061ff001916179055565b60ff8660028a0192604086015190838251169085541617845501511661ff0082549160081b169061ff001916179055565b015160038501550151600483016000915b600283106112dc57505050600660206001920192019301929061114f565b80518051906001600160401b038211610b67576112fd82610a9e8654614534565b602090601f831160011461134f5792611335836001959460209487966000926113445750508160011b916000199060031b1c19161790565b85555b019201920191906112be565b015190503880610ac8565b908460005260206000209160005b601f19851681106113a7575083602093600196938796938794601f1981161061138e575b505050811b018555611338565b015160001960f88460031b161c191690558f8080611381565b9192602060018192868501518155019401920161135d565b6006818102048103610bec576006838102048303610bec576063840160005260206000208360060281015b82600602820181106113fd57505061113a565b8060006006925560006001820155600060028201556000600382015561142882820160048301614ef3565b016113ea565b6000926110ea565b6001906110bd565b602001516001600160a01b0316331415905083611089565b346102265760603660031901126102265760043560068110156102265760243562ffffff81168103610226576044359061ffff821682036102265761149a926150fc565b60405160209160208201926020835281518094526040830193602060408260051b8601019301916000955b8287106114d25785850386f35b9091929382806114ee600193603f198a82030186528851613f92565b96019201960195929190926114c5565b3461022657606036600319011261022657600435600681101561022657602480356001600160401b0381116102265761153b903690600401614090565b92909160443563ffffffff8116809103610226576004549361159160405191611563836143e3565b338352600060208401526040519761157a896143fe565b87895261158a8760208b016148e1565b369161466c565b604087015260608601526000608086015260a0850152621b774060c0850152600060e0850152600160401b918284101561177457600184016004556115df856115d986614515565b90614f10565b8360036115eb33615646565b01556002810361166a57506005549182101561165657509161164261040392611629856001600080516020615c828339815191529701600555614075565b90919082549060031b91821b91600019901b1916179055565b604051918291602083526020830190613f92565b634e487b7160e01b60009081526041600452fd5b600381036116ab5750600654918210156116565750916116a661040392611629856001600080516020615c82833981519152970160065561405a565b611642565b600481036116e75750600754918210156116565750916116a661040392611629856001600080516020615c82833981519152970160075561403f565b60050361172157600854918210156116565750916116a661040392611629856001600080516020615c82833981519152970160085561400e565b6084906025604051916312a441ad60e01b8352602060048401528201527f496e76616c69642047616d654d6f64652e2043616e6e6f7420637265617465206044820152647461626c6560d81b6064820152fd5b50634e487b7160e01b60009081526041600452fd5b34610226576000366003190112610226576009546117a681614604565b906117b46040519283614452565b80825260096000908152602091828401917f6e1540171b6c0c960b71a7020d9f60077f6af931a8bbf590da0223dacf75c7af835b83831061184f5750505050604051918083019381845251809452604083019360408160051b85010192916000955b8287106118235785850386f35b90919293828061183f600193603f198a82030186528851614126565b9601920196019592919092611816565b606486600192611861859a999a614bb1565b8152019201920191909594956117e8565b346102265761188036614843565b90600052600b602052604060002080548210156102265760209160ff9160005260f8836000208260051c01549160031b161c16604051906118c0816140bd565b8152f35b3461022657602080600319360112610226576001600160401b0390600435828111610226576118f7903690600401614090565b919060405193629c95e160e41b855233600486015260249483818781305afa90811561059a57600091611ba0575b50611b60578315611b245761194e6002549260405195611944876143ad565b338752369161466c565b8385019081526040850160648152606086019160008352600160401b851015611b0f576001936001860160025561198486614859565b959095611afa57885186546001600160a01b0319166001600160a01b039190911617865591518051909960018701939192831161165657506119ca82610ea08554614534565b8790601f8311600114611a6e575081600395949392611a21927f1a9f78dbaab8e275c9024eed0763e6dbd23496aa15c942786fb1f868cb5832b29c600092611a635750508160011b916000199060031b1c19161790565b90555b60028401905163ffffffff198254169063ffffffff161790555191015533600052600382526040600020556104036040519282849384528301906144d6565b015190508c80610ac8565b99601f19831684600052896000209b6000905b828210611ae35750509a60019284926003989796957f1a9f78dbaab8e275c9024eed0763e6dbd23496aa15c942786fb1f868cb5832b29e10611acb575b505050811b019055611a24565b015160001983891b60f8161c191690558b8080611abe565b848401518e559c8d019c938b0193908b0190611a81565b89634e487b7160e01b60005260006004526000fd5b87634e487b7160e01b60005260416004526000fd5b6040516312a441ad60e01b815260048101849052601481870152734e616d652063616e6e6f7420626520656d70747960601b6044820152606490fd5b60405162461bcd60e51b81526004810184905260198187015278141b185e595c88185b1c9958591e481c9959da5cdd195c9959603a1b6044820152606490fd5b611bb79150843d8611610593576105858183614452565b86611925565b611bc6366146c1565b9080600052600a908160205260406000205415610c675780600052816020526040611bf76107898260002054614357565b015180516001600160a01b0316331415908161236b575b50610c0957611c49604051611c22816143e3565b601581527429ba30b93a103932b9b4b3b710333ab731ba34b7b760591b602082015261569d565b806000528160205260406000205415610c675780600052816020526040611c766107898260002054614357565b015180516001600160a01b03163314159081612353575b50610c095760005280602052611ca7604060002054614357565b5060028101549092906001600160a01b0316330361234c5760005b611cce61083082615363565b80546affffffffffffffffff00001916670a0000000a05000017905560078301805460ff19166002179055805190600160401b8211610b675760638401548260638601558083106122dd575b50602001906063840160005260206000206000925b82841061215b57600080516020615c22833981519152611def8787611d5781600284016149b2565b905460018060a01b039160031b1c1660005260036020526002611d7e604060002054614859565b5001611d9e611d958254936109538560030b615346565b600285016149b2565b60018060a01b0391549060031b1c1660005260036020526002611dc5604060002054614859565b500191825491611dd78360030b615374565b169116179055600060066109c460036109bd33615646565b0390a1611e2b604051611e01816143e3565b601881527729ba30b93a1032bc34ba2a30b1363290333ab731ba34b7b760411b602082015261569d565b6000806001600160a01b03611e3f33615646565b5416604051602081019163161765e160e11b8352602482015260248152611e65816143c8565b51906a636f6e736f6c652e6c6f675afa50611e8c611e87600361047733615646565b61569d565b6003611e9733615646565b0154604051629c95e160e41b8152336004820152602081602481305afa90811561059a5760009161213c575b501561055a57611ed281614515565b5054156104c2576060611ee761031583614515565b015180516001600160a01b03163314159081612124575b5061050657604051611f0f816143c8565b602181527f28696e736964652920537461727420657869745461626c652066756e6374696f6020820152611f4d603760f91b9182604082015261569d565b60006003611f5a33615646565b0155611f6582614515565b506003810180549091906001600160a01b0316330361211c576000915b611f8b83615363565b92611fe6604051611f9b816143c8565b603381527f28696e736964652920726574726965766564207461626c65206461746120696e6020820152721032bc34ba2a30b1363290333ab731ba34b7b760691b604082015261569d565b611ff084836149b2565b905460039190911b1c6001600160a01b0316156120cf57926103eb926104039592600080516020615c428339815191529795600160ff851614612092575b5060ff916120446103c96005936103c387615363565b01911660ff198254161790555b6040519061205e826143c8565b602182527f28696e736964652920456e64656420657869745461626c652066756e6374696f6020830152604082015261569d565b916120c260ff9361042f6120a985976005966149b2565b905460039190911b1c6001600160a01b031691876149b2565b600093909290915061202e565b505050506120e761048361047e600361047733615646565b6120f082614515565b5054156104c257816103eb61040392612117600080516020615c4283398151915295615919565b612051565b600191611f82565b602001516001600160a01b0316331415905082611efe565b612155915060203d602011610593576105858183614452565b82611ec3565b602081516060815160ff81511660ff198754161786556121a36001870160ff868085015182815116831985541617845501511661ff0082549160081b169061ff001916179055565b6121d66002870160ff86604085015182815116831985541617845501511661ff0082549160081b169061ff001916179055565b015160038501550151600483016000915b60028310612205575050506006602060019201920193019290611d2f565b80518051906001600160401b038211610b675761222682610a9e8654614534565b602090601f831160011461226d579261225e83600195946020948796600092610aec5750508160011b916000199060031b1c19161790565b85555b019201920191906121e7565b908460005260206000209160005b601f19851681106122c5575083602093600196938796938794601f198116106122ac575b505050811b018555612261565b015160001960f88460031b161c191690558e808061229f565b9192602060018192868501518155019401920161227b565b6006818102048103610bec576006838102048303610bec576063850160005260206000208360060281015b826006028201811061231b575050611d1a565b8060006006925560006001820155600060028201556000600382015561234682820160048301614ef3565b01612308565b6001611cc2565b602001516001600160a01b0316331415905084611c8d565b602001516001600160a01b0316331415905084611c0e565b34610226576020366003190112610226576004356001600160a01b038116908190036102265760005260036020526020604060002054604051908152f35b34610226576000366003190112610226576000546040516001600160a01b039091168152602090f35b34610226576020366003190112610226576004356004548110156102265761241190614515565b50805460ff6001830154169160405161243881612431816002860161456e565b0382614452565b62ffffff612470600660058501549401549261245f60405197889788526020880190613f0c565b60e0604087015260e0860190613f3c565b9260ff8116606086015263ffffffff8160081c16608086015260281c1660a084015260c08301520390f35b34610226576000366003190112610226576124b46156de565b600080546001600160a01b0319811682556001600160a01b03167f8be0079c531659141344cd1fd0a4f28419497f9722a3daafe3b4186f6b6457e08280a3005b3461022657602036600319011261022657600435604051629c95e160e41b8152336004820152602081602481305afa90811561059a576000916133ad575b501561055a5761254181614515565b5054156104c257606061255661031583614515565b015180516001600160a01b03163314159081613395575b506105065761257b90614515565b5060038101546001600160a01b0316158015613380575b61333a578054604051903360601b60208301524260348301526054820152605481526125bd816143ad565b60208151910120908160068201556125d3614b2e565b91604051906125e182614436565b6125ea82614abc565b6040516125f681614436565b6125ff81614abc565b6040519461260c86614436565b61261586614abc565b6040519461262286614436565b61262b86614abc565b6040519461263886614436565b61264186614abc565b6040519461264e86614436565b61265786614abc565b6040519661266488614436565b61266d88614abc565b6040519661267a88614436565b61268388614abc565b6040519161269083614436565b61269983614abc565b604051976126a689614436565b6126af89614abc565b85885260208801528b60408801528a6060880152608087015260a08601528760c08601528660e0860152610100850152846101208501526040516126f2816143c8565b6000815260016020820152600160408201526080830152604051612715816143c8565b600181526001602082015260016040820152608086015261277960405161273b816143c8565b602681527f5b5f696e6974426f6172645d204372656174656420313020726f777320666f7260208201526508189bd85c9960d21b604082015261569d565b61278d6040516127888161441a565b614af5565b6040519361279a8561441a565b6002855260076020860152600660408601526007606086015260056080860152600360a0860152600760c0860152600260e08601526004610100860152600761012086015260036101408601526006610160860152600761018086015260056101a086015260046101c0860152604051946128148661441a565b61281d86614af5565b600f60006000195b600f82106132925750505050612882604051612840816143c8565b602a81527f5b5f696e6974426f6172645d2047656e657261746564206f72646572206f66206020820152697265642070696563657360b01b604082015261569d565b6128916040516127888161441a565b6040519361289e8561441a565b6002855260076020860152600660408601526007606086015260056080860152600360a0860152600760c0860152600260e08601526004610100860152600761012086015260036101408601526006610160860152600761018086015260056101a086015260046101c0860152604051946129188661441a565b61292186614af5565b600f60006000195b600f82106131a55750505050612988604051612944816143c8565b602c81527f5b5f696e6974426f6172645d2047656e657261746564206f72646572206f662060208201526b626c61636b2070696563657360a01b604082015261569d565b60009860005b60ff808216906009821015612a1d5760048214612a0557916129f3828c8f826129e58f8f8f6129f99a6129df916129ce6129ff9e6129ec9916809661568c565b516129d98383614e29565b52614e29565b5061568c565b5192614e29565b528c614e29565b5061566b565b9a61566b565b9961298e565b5050996129f9612a176129ff9261567c565b9b61566b565b505050965096899350612aa2612ac292998c612a7a604051612a3e816143c8565b60368152600080516020615c62833981519152602082015275666972737420726f77206f662065616368207369646560501b604082015261569d565b60e0612a9960ff8416612a8d818d61568c565b5160208501528b61568c565b5191015261566b565b9060e0612a9960ff8416612ab6818a61568c565b5160208501528861568c565b95612b0e604051612ad2816143c8565b60368152600080516020615c62833981519152602082015275746869726420726f77206f662065616368207369646560501b604082015261569d565b6000965b600960ff89161015612b8c5780612b5660ff612b729316612b33818a61568c565b51612b4160ff8d1689614e29565b52612b4f60ff8c1688614e29565b508761568c565b51612b6460ff8b168a614e29565b526129f360ff8a1689614e29565b9660ff60028183160111610bec5760ff1660020196612b12565b5087612bd9604051612b9d816143c8565b60368152600080516020615c62833981519152602082015275666f75746820726f77206f662065616368207369646560501b604082015261569d565b612c0b604051612be8816143e3565b601181527010dbdb9cdd1c9d58dd195908189bd85c99607a1b602082015261569d565b60ff60018301541690600583015462ffffff60405191612c2a83614392565b600083526002602084015260006040840152600a6060840152600a6080840152612c6660405195612c5a87614376565b888752602087016148e1565b604051612c7681600389016148ed565b612c7f816143e3565b604086015263ffffffff8160081c16606086015260281c1660808401524260a0840152600060c0840152600060e08401526101008301526101208201526060610140820152612cf6604051612cd3816143e3565b6011815270086dedce6e8e4eac6e8cac840dac2e8c6d607b1b602082015261569d565b600954600160401b811015610b6757806001612d159201600955614357565b91909161318f57805182556020810151600681101561121a57612d3b9060018401614e85565b604081015160005b6002811061316f5750506004820163ffffffff60608301511681549066ffffff00000000608085015160201b169166ffffffffffffff19161717905560a0810151600583015560c081015160068301556007820160e0820151612da5816140bd565b612dae816140bd565b60ff8019835416911617905561010081015160ff81511660ff19600885015416176008840155612df960ff602083015116600885019061ff0082549160081b169061ff001916179055565b604081015190600a82101561121a57600884015462ff000066ffffffff000000606084015160181b1692608063ffffffff60381b91015160381b169360101b16906affffffffffffffffff000019161717176008830155610120810151600983016000915b600a83106130fb575050506101400151805190600160401b8211610b6757606383015482606385015580831061308c575b50602060639101920160005260206000206000925b828410612f0a578585600954916000198301928311610bec57612f076060927f0e3e1d0e77b3d9d48881e33085e74d23a87a9447f9b8d8ff919c1a511be1e5019483600052600a60205260406000205560405192835260036020840191016148ed565ba1005b602081516060815160ff81511660ff19875416178655612f526001870160ff868085015182815116831985541617845501511661ff0082549160081b169061ff001916179055565b612f856002870160ff86604085015182815116831985541617845501511661ff0082549160081b169061ff001916179055565b015160038501550151600483016000915b60028310612fb4575050506006602060019201920193019290612ea4565b80518051906001600160401b038211610b6757612fd582610a9e8654614534565b602090601f831160011461301c579261300d83600195946020948796600092610aec5750508160011b916000199060031b1c19161790565b85555b01920192019190612f96565b908460005260206000209160005b601f1985168110613074575083602093600196938796938794601f1981161061305b575b505050811b018555613010565b015160001960f88460031b161c191690558e808061304e565b9192602060018192868501518155019401920161302a565b6006818102048103610bec576006838102048303610bec576063840160005260206000208360060281015b82600602820181106130ca575050612e8f565b806000600692556000600182015560006002820155600060038201556130f582820160048301614ef3565b016130b7565b8051826000915b60098310613120575050506009602060019201920192019190612e5e565b805160ff815116908354926020820151600881101561121a57600194859461ff0062ff000060406020970151151560101b169360081b169162ffffff1916171717855501920192019190613102565b81516001600160a01b031660028286010155602090910190600101612d43565b634e487b7160e01b600052600060045260246000fd5b60409d9c9d5160208101913360601b835242603483015260f81b6054820152603581526131d1816143c8565b51902060ff83161561327c5760ff600191818516900616916131fb6131f6848761568c565b614e9d565b6132176040519161320b836143c8565b84835260208301614b83565b60006040820152613228828c61568c565b52613233818b61568c565b50600061327061324585830b9661567c565b9461326a60ff87169161326561325e6131f6858d61568c565b918b61568c565b614b83565b8761568c565b520190919c9b9c612929565b634e487b7160e01b600052601260045260246000fd5b60409c9b9c5160208101913360601b835242603483015260f81b6054820152603581526132be816143c8565b51902060ff83161561327c5760ff600191818516900616916132e36131f6848761568c565b613300604051916132f3836143c8565b6000835260208301614b83565b60006040820152613311828c61568c565b5261331c818b61568c565b50600061332e61324585830b9661567c565b520190919b9a9b612825565b6040516312a441ad60e01b815260206004820152601b60248201527f4e6f7420656e6f75676820706c617965727320746f20737461727400000000006044820152606490fd5b5060048101546001600160a01b031615612592565b602001516001600160a01b031633141590508261256d565b6133c6915060203d602011610593576105858183614452565b82612532565b3461022657602080600319360112610226576004356001600160a01b038116908190036102265760006060604051613403816143ad565b82815281858201528260408201520152604051629c95e160e41b81528160048201528281602481305afa90811561059a576000916134b7575b5015613479576000526003815261346061345a604060002054614859565b50614e3a565b906134756040519282849384528301906144d6565b0390f35b604051633bca200b60e21b8152600481018390526015602482015274141b185e595c88191bd95cc81b9bdd08195e1a5cdd605a1b6044820152606490fd5b6134ce9150833d8511610593576105858183614452565b8361343c565b60803660031901126102265760043560ff808216809203610226576024918235908282168092036102265760443592808416809403610226576064359481861680960361022657600a831080613885575b8061387b575b80613871575b1561022657604051635c12cd4b60e01b81523360048201526000818381305afa801561059a5760009061379f575b60609150018051156137505761357a61031560e09251614515565b018051156137115761078961358f9151614357565b604081015180516001600160a01b0390811633036136f25750508260005b1690600282036136a3576135d261012085920151966135cc8789614e18565b51614e29565b515116036136705760016040613662886135cc898961365c8a8a613615876135fe816135cc8689614e18565b516136098888614e18565b51906129d98383614e29565b506136208285614e18565b519089519061362e826143c8565b6017548181168352613648828260081c1660208501614b83565b60101c1615158a8201526129d98383614e29565b50614e18565b510152602060405160018152f35b606490600c6040519162461bcd60e51b8352602060048401528201526b496e76616c6964206d6f766560a01b6044820152fd5b60405162461bcd60e51b8152602060048201526022818501527f596f75206861736e2774206265656e206265696e6720696e20616e79206d61746044820152610c6d60f31b6064820152608490fd5b6020339201511614600014613709578260016135ad565b8260026135ad565b60405162461bcd60e51b8152602060048201526018818401527711d85b59481a185cdb89dd081899595b881cdd185c9d195960421b6044820152606490fd5b60405162461bcd60e51b8152602060048201526022818401527f596f75206861736e2774206265656e206265696e6720696e20616e79207461626044820152616c6560f01b6064820152608490fd5b503d806000833e6137b08183614452565b81019060209182828203126102265781516001600160401b039283821161022657019260808483031261022657604051926137ea846143ad565b84516001600160a01b03811681036102265784528185015190811161022657840182601f8201121561022657805161382181614651565b9361382f6040519586614452565b8185528382840101116102265761384b91838086019101613f19565b82015260408201518060030b81036102265760408201526060918201518183015261355f565b5060098610613531565b506009841061352b565b50600a8510613525565b34610226576020366003190112610226576004356007548110156102265760076000527fa66cc928b5edb82af9bd49922954155ab7b0942694bea4ce44661d9a8736c6880154604051908152602090f35b34610226576020366003190112610226576004356009548110156102265761390a61018091614357565b5061103781549160ff600182015416906004810154600582015462ffffff600684015492613956613945600860ff6007890154169701614473565b96604051998a5260208a0190613f0c565b63ffffffff8116604089015260201c166060870152608086015260a085015261397e816140bd565b60c084015260e08301906140d4565b34610226576020806003193601126102265760043560606101406040516139b381614376565b600081526000858201526040516139c9816143e3565b6040368237604082015260008382015260006080820152600060a0820152600060c0820152600060e0820152604051613a0181614392565b600081526000868201526000604082015260008482015260006080820152610100820152613a2d614b2e565b610120820152015280600052600a825260406000205415610c6757600052600a8152613a60610789604060002054614357565b90613475604051928284938452830190614126565b34610226576060366003190112610226576001600160401b0360043581811161022657613aa6903690600401614090565b9190604435801515810361022657604051629c95e160e41b8152336004820152602093908481602481305afa90811561059a57600091613c70575b501561055a573360005260038452613afd604060002054614859565b509285151580613c26575b613b3d575b5050600080516020615ca28339815191529350613b2f575b50604051338152a1005b600360243591015582613b25565b60019060018501928711610b6757613b5987610ea08554614534565b600091601f8811600114613baf57509580613b9a92600080516020615ca283398151915298600092613ba45750508160011b916000199060031b1c19161790565b90555b8480613b0d565b013590508880610ac8565b91601f1988168460005287600020936000905b828210613c0f575050916001939189600080516020615ca28339815191529a9410613bf5575b505050811b019055613b9d565b0135600019600384901b60f8161c19169055878080613be8565b848401358655948501949289019290890190613bc2565b506040518581019087838337613c4b87828a8101600083820152038084520182614452565b51902060405186810190613c6681610fd98460018b016149da565b5190201415613b08565b613c879150853d8711610593576105858183614452565b86613ae1565b3461022657602036600319011261022657600435613caa81614515565b5054156104c257613cba81614515565b5060029160038201916004810160018060a01b038082541615613dd6575b8085541615613dcd575b600260ff871614613d93578085613d3e613d207f763c767a5382e600b41ed4384a37ec09f8ca82425090658ecab866f16effc74199610403996149b2565b81546001600160a01b0360039290921b91821b19163390911b179055565b856003613d4a33615646565b01555416159182613d87575b5050613d76575b5060408051338152602081019290925290918291820190565b600501805460ff1916905583613d5d565b54161590508580613d56565b6040516312a441ad60e01b8152602060048201526011602482015270151a19481d18589b19481a5cc8199d5b1b607a1b6044820152606490fd5b60009550613ce2565b60019550613cd8565b3461022657600036600319011261022657602060405160008152f35b3461022657600036600319011261022657602060405160018152f35b34610226576020366003190112610226576004356005548110156102265760056000527f036b6384b5eca791c62761152d0c79bb0604c104a5fb6f4eb0703f3154bb3db00154604051908152602090f35b3461022657602036600319011261022657600435613e84614892565b50613e8e81614515565b5054156104c25761164261031561347592614515565b34610226576020366003190112610226576004356001600160a01b0381169081900361022657600052600360205260206040600020541515604051908152f35b3461022657602036600319011261022657602090600435600052600a82526040600020548152f35b90600682101561121a5752565b60005b838110613f2c5750506000910152565b8181015183820152602001613f1c565b90602091613f5581518092818552858086019101613f19565b601f01601f1916010190565b6000915b60028310613f7257505050565b81516001600160a01b031681526001929092019160209182019101613f65565b9061010060e0613fc861012085518552613fb460208701516020870190613f0c565b604086015190806040870152850190613f3c565b93613fdb60608201516060860190613f61565b60ff60808201511660a085015263ffffffff60a08201511660c085015262ffffff60c08201511682850152015191015290565b60085481101561402957600860005260206000200190600090565b634e487b7160e01b600052603260045260246000fd5b60075481101561402957600760005260206000200190600090565b60065481101561402957600660005260206000200190600090565b60055481101561402957600560005260206000200190600090565b9181601f84011215610226578235916001600160401b038311610226576020838186019501011161022657565b6003111561121a57565b90600a82101561121a5752565b60809060ff815116835260ff60208201511660208401526140fd604082015160408501906140c7565b8160608201519163ffffffff8093166060860152015116910152565b90600882101561121a5752565b6123a09182810190825181526020906141458285015183830190613f0c565b604061415960408601516040840190613f61565b60609063ffffffff606087015116608084015260808601519562ffffff60a0971660a085015260a08101519160c09260c086015260c082015160e09060e087015260e0830151610100906141ac816140bd565b81880152830151926141c461012094858901906140d4565b8084015160006101c089015b600a82106142e65750505061014001519961238087015289518098526123c09487868801968a60051b8901019b01996000975b8a89106142195750505050505050505050505090565b909192939495969798999a9b6123bf198282030189528a8d5191818782019387815160ff8151168552614261848201518587019060ff60208092828151168552015116910152565b6142808c8201518387019060ff60208092828151168552015116910152565b015187840152015192878b830152898201939160005b600281106142bc5750505050806001929e0199019901979a999896959493929190614203565b9193806142d7600193959760df198782030188528851613f3c565b960194019101918e9392614296565b8a839d9b9c9d9995969798995182876000915b600983106143215750505050610360600192019301910190919b9a999b9796959493976141d0565b908394918c600194955160ff81511683526143428582015186850190614119565b015115158d8201520193019101878f936142f9565b6009548110156140295760096000526064602060002091020190600090565b61016081019081106001600160401b03821117610b6757604052565b60a081019081106001600160401b03821117610b6757604052565b608081019081106001600160401b03821117610b6757604052565b606081019081106001600160401b03821117610b6757604052565b604081019081106001600160401b03821117610b6757604052565b61010081019081106001600160401b03821117610b6757604052565b6101e081019081106001600160401b03821117610b6757604052565b61012081019081106001600160401b03821117610b6757604052565b90601f801991011681019081106001600160401b03821117610b6757604052565b9060405161448081614392565b80925460ff8116825260ff8160081c16602083015260ff8160101c1690600a82101561121a57608091604084015263ffffffff90818160181c16606085015260381c16910152565b359060ff8216820361022657565b9060018060a01b0382511681526060806144ff6020850151608060208601526080850190613f3c565b93604081015160030b6040850152015191015290565b6004548110156140295760046000526007602060002091020190600090565b90600182811c92168015614564575b602083101461454e57565b634e487b7160e01b600052602260045260246000fd5b91607f1691614543565b80546000939261457d82614534565b918282526020936001916001811690816000146145e557506001146145a4575b5050505050565b90939495506000929192528360002092846000945b8386106145d15750505050010190388080808061459d565b8054858701830152940193859082016145b9565b60ff19168685015250505090151560051b01019150388080808061459d565b6001600160401b038111610b675760051b60200190565b919082604091031261022657604051614633816143e3565b602061464c818395614644816144c8565b8552016144c8565b910152565b6001600160401b038111610b6757601f01601f191660200190565b92919261467882614651565b916146866040519384614452565b829481845281830111610226578281602093846000960137010152565b9080601f83011215610226578160206146be9335910161466c565b90565b90604080600319840112610226576004359260248035906001600160401b0380831161022657836023840112156102265782600401359061470182614604565b9561470e81519788614452565b828752602095848789019460051b8701019581871161022657858101945b87861061473f5750505050505050505090565b8535858111610226578201808403602319019060e082126102265760c0865192614768846143e3565b12610226578551614778816143ad565b6147838a83016144c8565b8152614792866044840161461b565b8c8201526147a3866084840161461b565b8782015260c48201356060820152825260e481013590878211610226570184604382011215610226578551906147d8826143e3565b81906064810190878211610226578d94929593918c8201915b81831061480d575050508380955082015281520195019461472c565b91809496509690929496358b8111610226578f916148318f8c9085948701016146a3565b815201930190918e95939694926147f1565b6040906003190112610226576004359060243590565b600254811015614029576002600081815291901b7f405787fa12a823e0f2b7631cc41b3ba8828b3321ca811111fa75cd3aa3bb5ace0191565b6040519061489f826143fe565b8160e0600091828152826020820152606060408201526040516148c1816143e3565b604036823760608201528260808201528260a08201528260c08201520152565b600682101561121a5752565b906000905b600282106148ff57505050565b82546001600160a01b0316815260019283019291909101906020016148f2565b9060405161492c816143fe565b60e0600682948054845261494a60ff600183015416602086016148e1565b60405161495e81612431816002860161456e565b604085015260405161497381600384016148ed565b61497c816143e3565b606085015262ffffff600582015460ff8116608087015263ffffffff8160081c1660a087015260281c1660c08501520154910152565b6002821015614029570190600090565b90816020910312610226575180151581036102265790565b6000929181546149e981614534565b92600191808316908115614a435750600114614a06575b50505050565b9091929394506000526020906020600020906000915b858310614a325750505050019038808080614a00565b805485840152918301918101614a1c565b60ff1916845250505081151590910201915038808080614a00565b818110614a69575050565b60008155600101614a5e565b9190601f8111614a8457505050565b614ab0926000526020600020906020601f840160051c83019310614ab2575b601f0160051c0190614a5e565b565b9091508190614aa3565b6000805b6101208110614ace57505050565b602090604083815191614ae0836143c8565b81835281858401528201528185015201614ac0565b6000805b6101e08110614b0757505050565b602090604083815191614b19836143c8565b81835281858401528201528185015201614af9565b604090604051610140908181018181106001600160401b03821117610b6757604052809360005b838110614b625750505050565b6020908251614b7081614436565b614b7981614abc565b8185015201614b55565b600882101561121a5752565b90604051614b9c816143e3565b602060ff829454818116845260081c16910152565b90604051614bbe81614376565b809280548252614bd860ff600183015416602084016148e1565b604051614be881600284016148ed565b614bf1816143e3565b604083015262ffffff600482015463ffffffff8116606085015260201c166080830152600581015460a0830152600681015460c083015260ff600782015416614c39816140bd565b60e0830152614c4a60088201614473565b61010083015260405161014081018181106001600160401b03821117610b6757604052600982016000825b600a8210614d77575050509060639161012084015201908154614c9781614604565b92614ca56040519485614452565b818452602084019060005260206000206000915b838310614ccb57505050506101400152565b604051614cd7816143e3565b604051614ce3816143ad565b60ff8454168152614cf660018501614b8f565b6020820152614d0760028501614b8f565b6040820152600384015460608201528152604051614d24816143e3565b600060048501825b60028310614d525750505060019282602092836006950152815201920192019190614cb9565b600160208192604051614d6981612431818961456e565b815201920192019190614d2c565b604051806101208101106001600160401b0361012083011117610b67576101208101604052600084825b60098310614dc2575050506020826009926001945201930191019091614c75565b600160208192604051614dd4816143c8565b60ff86548181168352614dee828260081c16868501614b83565b60101c1615156040820152815201920192019190614da1565b9060028110156140295760051b0190565b90600a8110156140295760051b0190565b9060098110156140295760051b0190565b90604051614e47816143ad565b60606003829460018060a01b038154168452604051614e6d81612431816001860161456e565b60208501526002810154820b60408501520154910152565b90600681101561121a5760ff80198354169116179055565b51600881101561121a5790565b614eb48154614534565b9081614ebe575050565b81601f60009311600114614ed0575055565b908083918252614eef601f60208420940160051c840160018501614a5e565b5555565b818110614efe575050565b80614f0a600192614eaa565b01614ef3565b919061318f57805182556001602080830151600681101561121a57614f389060018601614e85565b6002906002850160408501518051906001600160401b038211610b6757614f6382610ea08554614534565b8390601f831160011461503b57614f929291600091836113445750508160011b916000199060031b1c19161790565b90555b60608401519060005b83811061501e57505050505060e06006916150176005850160ff60808401511660ff19825416178155614ff263ffffffff60a085015116829064ffffffff0082549160081b169064ffffffff001916179055565b60c0830151815467ffffff0000000000191660289190911b62ffffff60281b16179055565b0151910155565b82516001600160a01b031687820160030155918101918401614f9e565b90601f1983169184600052856000209260005b878a83831061508e57505050908460019594939210615075575b505050811b019055614f95565b015160001960f88460031b161c19169055388080615068565b85968293968601518155019501930161504e565b62ffffff9081166000190191908211610bec57565b91909162ffffff80809416911602918216918203610bec57565b91909162ffffff80809416911601918211610bec57565b80518210156140295760209160051b010190565b929161ffff169261510c84614604565b9260409161511d6040519586614452565b858552601f1961512c87614604565b0160005b81811061532f575050600681101561121a5780156152ab576002810361523e575060059183955b62ffffff908161516f8261516a896150a2565b6150b7565b168261519161518c846151878161516a8c549d6150a2565b6150d1565b6150a2565b168110156152335783516000806020928381019063f82c50f160e01b82526024868183015281526151c1816143c8565b51906a636f6e736f6c652e6c6f675afa508782101561522757916151878161516a600185615217818f6152078f61518c9b6151919d610315926000526000200154614515565b61521183836150e8565b526150e8565b500194919592848895928f6150a2565b50505050509350505090565b505050509350505090565b6003810361525257506006915b8395615157565b60048103615263575060079161524b565b6005036152725760089161524b565b6040516312a441ad60e01b815260206004820152601060248201526f496e76616c69642047616d654d6f646560801b6044820152606490fd5b509193905062ffffff806152c28361516a886150a2565b1691600454925b826152db836151878161516a8c6150a2565b168110156153265783811461532657906151878161516a6001856153046103156152db98614515565b61530e828d6150e8565b52615319818c6150e8565b50019350509250506152c9565b50505050915090565b60209061533a614892565b82828a01015201615130565b60030b600a0190637fffffff8213637fffffff19831217610bec57565b60ff166001039060ff8211610bec57565b60030b6009190190637fffffff198212637fffffff831317610bec57565b9060208252805460208301526153b360ff6001830154166040840190613f0c565b6153c360608301600283016148ed565b600481015462ffffff63ffffffff9182811660a086015260201c1660c0840152600582015460e0840152600682015461010084015260ff600783015416615409816140bd565b610120840152600882015460ff811661014085015260ff8160081c1661016085015261543f610180850160ff8360101c166140c7565b601881901c82166101a085015260381c166101c08301526009810160006101e084015b600a821061556f57505050606301906123a0808201528154806123c08301526123e091828101928260051b820101936000526020600020926000915b8383106154ad57505050505090565b90919293946123df1982820301835260e0810160ff87541682526154e6602083016001890160ff60209154818116845260081c16910152565b615505606083016002890160ff60209154818116845260081c16910152565b600387015460a083015260e060c083015290610120810191600488019160005b600281106155475750505050602060066001929701930193019193929061549e565b9091929360206001615563819360df198782030188528861456e565b96019401929101615525565b600083825b6009831061559357505050600961036060019201930191019091615462565b60016060819260ff855481811683526155b460208401838360081c16614119565b60101c161515604082015201920192019190615574565b90614ab060316040518094700383630bcb2b9173a30b13632a4b2101e9607d1b60208301526156038151809260208686019101613f19565b8101036011810185520183614452565b60405190615620826143e3565b60178252762e20537461727420746f2064656c657465207461626c6560481b6020830152565b6001600160a01b031660009081526003602052604090205461566790614859565b5090565b60ff1660ff8114610bec5760010190565b60ff168015610bec576000190190565b90600f8110156140295760051b0190565b600080916040516156cb81610fd9602082019463104c13eb60e21b8652602060248401526044830190613f3c565b51906a636f6e736f6c652e6c6f675afa50565b6000546001600160a01b031633036156f257565b60405163118cdaa760e01b8152336004820152602490fd5b6000908072184f03e93ff9f4daa797ed6e38ed64bf6a1f0160401b80821015615860575b506d04ee2d6d415b85acef810000000080831015615851575b50662386f26fc1000080831015615842575b506305f5e10080831015615833575b5061271080831015615824575b506064821015615814575b600a8092101561580a575b600190816021600186019561579f87614651565b966157ad6040519889614452565b8088526157bc601f1991614651565b01366020890137860101905b6157d4575b5050505090565b600019019083906f181899199a1a9b1b9c1cb0b131b232b360811b8282061a835304918215615805579190826157c8565b6157cd565b916001019161578b565b9190606460029104910191615780565b60049193920491019138615775565b60089193920491019138615768565b60109193920491019138615759565b60209193920491019138615747565b60409350810491503861572e565b60009190610fd96156cb84936040519283916158a36020840196634b5c427760e01b8852604060248601526064850190613f3c565b83810360231901604485015290613f3c565b600454801561590357600019016158cb81614515565b61318f5760068160008093558260018201556158e960028201614eaa565b82600582016158fb8160038501614a5e565b550155600455565b634e487b7160e01b600052603160045260246000fd5b61592561031582614515565b6060810160005b60ff811660018111615a2c57825161596392916001600160a01b03918290615955908390614e07565b5116615968575b505061566b565b61592c565b611e876159a8826104778560008a615992615a259961598b600397889451614e07565b5116615646565b015561598b6159a08761570a565b968b51614e07565b9160405180936020927001434b7103637b7b81490283630bcb2b91607d1b84840152770103430b9903a30b13632a4b21031b430b733b2b2103a37960451b6031916159fb81518092888689019101613f19565b840191820152615a1660499483519384918785019101613f19565b01036029810184520182614452565b388061595c565b5050506020018051906006918281101561121a57600203615b6a57505060055480156159035760001901615a73615a6282614075565b8154906000199060031b1b19169055565b6005555b600454600019810191908211610bec57615ab3604051615a96816143e3565b600b81526a4d6f73746c7920646f6e6560a81b602082015261569d565b808214615b3a5781816040926003615b256060615af36103157f9003df9102c82cb1355f80d0db09c128787aa2adde042a70815408301544fb4199614515565b615b00816115d987614515565b01602060018060a01b03918585615b1a8584515116615646565b015551015116615646565b015582519182526020820152a1614ab06158b5565b5050615b446158b5565b614ab0604051615b53816143e3565b6005815264446f6e652160d81b602082015261569d565b80518281101561121a57600303615b9c575080548015615903576000190190615b95615a628361405a565b555b615a77565b80518281101561121a57600403615bd057505060075480156159035760001901615bc8615a628261403f565b600755615a77565b519081101561121a57600503615b975760085480156159035760001901615bf9615a628261400e565b600855615a7756fed17d8739fe3acc1dc0c68b41b05c158c4e79ff275a9837ed7e4392187a9131385fa2981883a0eb955b46a348c82ded0ab4547248db521daa81e70d4ecb5aa2152de3400c5320d2aca62a876730addbd498e102edf4a9fbb7cb99d7f1d6b560105b5f696e6974426f6172645d2041737369676e65642070696563657320746f20965f36ee13ee10e23fe4feecd10920f77a590acde04bd54d0274d1cd6487795d040b6e4d98acb52cfb61a8beb8587bf37d362f8afc07142f5211d2c386f09f2da2646970667358221220a3010459bc0b451f1b8bec7a6a8c5d63a8f2a494c68ab7dba5909a761a80f3fa64736f6c63430008160033",
  "linkReferences": {},
  "deployedLinkReferences": {}
}